:020000040800F2
:1000000098050020D1000008BD2D0008912A0008A5
:1000100000000000000000000000000000000000E0
:10002000000000000000000000000000C12D0008DA
:100030000000000000000000BF2D0008C32D0008D4
:10004000E3000008E3000008E3000008E300000804
:10005000E3000008E3000008E3000008E3000008F4
:10006000E3000008E3000008E3000008E3000008E4
:10007000E3000008E3000008E3000008E3000008D4
:10008000E3000008E3000008E3000008E3000008C4
:10009000E3000008E3000008E3000008E3000008B4
:1000A000E3000008E3000008E3000008E3000008A4
:1000B000E3000008E3000008E30000080348854669
:1000C00000F0FEFB004800476D3D00089805002049
:1000D0000448804704480047FEE7FEE7FEE7FEE7E6
:1000E000FEE7FEE7452E0008BD00000830B50B46D0
:1000F000014600202022012409E00D46D5409D4202
:1001000005D31D469540491B254695404019154687
:10011000521E002DF1DC30BDF0B51FB406460020A4
:1001200082B005464024019100901BE001992246CF
:100130000F46304600F0CCFA049A059B801A99418C
:1001400010D310461946224600F0B2FA361A8F41F3
:100150000197224601200021009F00F0A9FA3818DB
:100160004D4100902046641E0028DFDC019B009872
:100170002946324607B0F0BD03460B439B0703D028
:1001800009E008C9121F08C0042AFAD203E00B785C
:100190000370401C491C521EF9D27047D2B201E0D4
:1001A0000270401C491EFBD270470022F6E710B5D2
:1001B00013460A4604461946FFF7F0FF204610BDD5
:1001C000F8B502464A40D40F42004B0052085B0883
:1001D0009A4202D20246084611464A0023D0C30D75
:1001E0004A00DDB2120EAD1A202D35DA4902012681
:1001F000490AF6058A19002C00D0524220214F1BD3
:100200001146B9402A411018C20D9A4221D0002C43
:1002100017D0012D08DCDA05801AD20F8019D20719
:10022000DBB200F081FAF8BDDA05801A0123400044
:100230001B06C01880185A428018CA0F1043490084
:1002400007E04908C2071143DA05801A80194008FF
:10025000801800F061FAF8BD61000122511A001BFC
:10026000F7E70122D2075140AAE70122D207504006
:10027000A6E70000F0B507460846584087B0C00F13
:10028000049048000E46590040084908BC1A8841AD
:1002900005D2384631461E4617460B4602465800E0
:1002A000400810434CD0300D039040055900400DDC
:1002B000490D0590401A0290402872DA1803012176
:1002C000000B09050843019004980092002805D00E
:1002D00001995242002088410092019002984021E9
:1002E0000A1A0199009800F0E3F905460C466B469E
:1002F00007CB00F0FEF9C0197141039A0E0D0023DF
:10030000D71756401A467A40164344D0049A002A1A
:100310002DD0029A012A039A15DC1205C01A9141C8
:1003200001263605001C7141D20F059ED2070093AD
:10033000019202962A46234600F03CFA07B0F0BD2F
:1003400038463146FAE71605224A0F46B218C01A57
:10035000B74101210905001C4F4100187F4111469A
:1003600018187941E20F10436D19644113E0E20758
:100370006D0815436408C2071443039A0126120549
:10038000C01A91413605001C7141CE074008304328
:100390004908C01851412A46234600F0FEF9CDE72E
:1003A000FFE7049801224000C117121A00238B4175
:1003B00004983146C417381AA141EEE730B401243D
:1003C000E407634030BC55E730B40124E4076140E2
:1003D00030BC4FE70000E0FFF0B51FB488B00B99C8
:1003E0000998002448400999C00F4900490809911B
:1003F000C0070B990090490049080B91099908988A
:10040000A64608431CD00B990A98084318D00998AF
:1004100001244000420D4800410D099824050003C5
:10042000000B204309900B980003000B20430B9016
:1004300050181C494018002201901446104605E04F
:10044000002001460DB0F0BD032801DA034600E0AC
:1004500003239C46C11A0AAE0AE05F0008ADED5BBB
:100460004F00F75B7D430027AA187C41491C5B1EA7
:100470006145F2DD410004AB5A522104120C0A43DB
:10048000240C401C0828DFDB01980290009970467C
:1004900001910090059B049A0799069800F08AF94B
:1004A000D0E700000DFCFFFFF0B50C465C4085B0C6
:1004B000E40FE40703944C000026640859009446B6
:1004C000490802460296224321D062460A431ED0C2
:1004D0006200570D4A000E032303550D0124024606
:1004E0002C492405781B1B0B360B4018234326434D
:1004F000614600901C46501AB44103D30098401C3A
:10050000009002E0921800985B41002803DA002076
:10051000014605B0F0BD00200121090507468646C9
:1005200011E064461D46141BB54106D36546521BB7
:10053000B341744607430C43A646CD07400849081B
:10054000284392185B4105460D43EAD110461843F3
:1005500013D06046194650407140084306D06046AB
:10056000101AB34106D20122002306E00022012323
:10057000DB0702E00122D2435310009874460105C4
:10058000381C6141029C039D0019694100F005F986
:10059000BFE70000FD03000070B54B005B0803439C
:1005A0000BD04B005C0D002633466542B341D41797
:1005B000AD1AA34102DB0020014670BD12053018C0
:1005C000514170BD0EB5C217C10F5040CA07401847
:1005D0000021054B0293019200910A460B4600F060
:1005E000E9F803B000BD0000330400000EB5054972
:1005F0000291002100910A460B46019100F0DAF8C1
:1006000003B000BD3304000070B5CD0F4A000903EC
:100610000123090B1B0519430B4BED070024520D59
:100620009A4201DA002070BD074B34339A4203DC52
:100630009A1A00F04DF802E00449511888402C4302
:10064000F1D0404270BD0000FF030000CDFBFFFF72
:10065000C20FD207400040080BD0C10D0723DB01B9
:10066000C91840020905400A1143C2084007114356
:100670007047002001467047CB0FDB07490010B5DB
:10068000490802460A4307D00A0D07240903E4017A
:10069000090B121B002A01DC002010BDC900440F09
:1006A0000C43C100E018D205801800F035F810BDE9
:1006B00010B5202A04DB0146203A9140002010BDED
:1006C000914020239C1A0346E3401943904010BDFB
:1006D00010B5202A04DB0846203AD040002110BD86
:1006E0000B46D340D0402024A21A9140084319461B
:1006F00010BD10B5202A06DBCB170846203A104162
:10070000C1170B4306E00B461341D0402024A21A28
:1007100091400843194610BD002904DA401C4900E5
:1007200001D140084000704770B40024050C05D189
:100730001024000402D1002921D01124050E01D17A
:1007400000020834050F01D10001241D850F01D1DD
:100750008000A41C002801DB4000641C002908D094
:1007600020252E1B0D46F540A14000D00121294334
:10077000084301061B1B000ADB1D02D5002070BCCC
:100780007047DB05181880180029F8DA401C49006A
:10079000F5D170BC40084000704710B5002B08DA56
:1007A0000024401C614192185B411A4301D140086A
:1007B000400010BDF0B51FB482B005460C0003D058
:1007C000084602F08BFD02E002F088FD2030024670
:1007D000009021462846FFF76BFF049B059A0446CC
:1007E0000F4618431143084314D0184610431BD03A
:1007F000009840210A1A18460599FFF769FF054637
:100800000E46009A05990498FFF752FF084305D059
:10081000012004E02046394607B0F0BD0020C11792
:1008200005430E432C43374300990E986305401A45
:100830007905E40A00220C43FD0A0A3002D50020A3
:100840000146E9E70105101969410C9C0D9D00194D
:100850006941FFF7A2FFDFE74A0009030123090B03
:100860001B0519430A4B10B5520D9A4202DA0020BB
:10087000014610BD064B34339A4203DC9A1AFFF747
:1008800027FF10BD034BD218FFF712FF10BD000069
:10089000FF030000CDFBFFFF10B5002904DB01249E
:1008A000E40740428C412146002B04DB1C46012317
:1008B000DB075242A341994200D1904210BD000093
:1008C000064C0125064E05E0E36807CC2B430C3CA3
:1008D00098471034B442F7D3FFF7F4FBD848000828
:1008E000F8480008FEB500231A461B1A8A4103DBAC
:1008F0000020014603B0F0BD4A000D0301212D0B7D
:100900000905520D0D43D10702D100186D41521E49
:100910005110FF31FF310131002704463E46384671
:10092000009701910246012100200905FFF7D0FE42
:10093000C3197141F818324684468E464A416146D1
:100940002846611A904104D36046241A95417646A0
:100950001F46241900986D41401C00903428E1DDA9
:10096000F91930467041091BA84103D20022D24335
:10097000134601E00022134601980105381C71411D
:10098000FFF70BFFB6E73EB50446032905D005295E
:1009900003D0082901D00C2918D100208BB2E166C0
:1009A0000322014600F0D0FFC2B24121204600F0F0
:1009B0006CFF00280AD10090019002906946204601
:1009C00001AA02AB00F017F9002800D001203EBDBB
:1009D000F8B504462546002001266035D3B200292B
:1009E00003D04F1C01D08F1C0DD1012A34D0022A14
:1009F00032D0032A30D0042A2ED0002906D04A1C37
:100A000007D08A1C08D0012908D025E020660220E2
:100A100005E06666206603E0206600E02666606604
:100A20002B72216E07228BB20020114600F08CFF42
:100A3000616EC0B28BB20622042100F085FFC0B205
:100A40002B7A0322002100F07FFFC2B24021204612
:100A500000F01BFF002800D00120F8BD7CB5044643
:100A600005468034A0680026012801D0002868D1FE
:100A700083B206221146304600F066FF237BC0B2E7
:100A8000002B05D0012B03D0022B01D0032B58D112
:100A90000522042100F058FF637BC0B2002B05D073
:100AA000012B03D0022B01D0032B4AD103220221B8
:100AB00000F04AFFA37BC0B2002B05D0012B03D06E
:100AC000022B01D0032B3CD10122002100F03CFF7E
:100AD000C2B26921284600F0D8FE002831D1206931
:100AE0000026012801D000282BD183B2062211460E
:100AF000304600F029FF6169C0B2012901D0002908
:100B00001FD18BB20722114600F01EFFC2B277211F
:100B1000284600F0BAFE002813D10321284600F031
:100B200012F800280DD1642000F03CFF0020009056
:100B3000019007236A467121284600F09FFE002895
:100B400000D001207CBD10B50A467E2100F09DFE3C
:100B5000002800D0012010BD3EB50446002907D072
:100B6000012905D0022903D0032901D0042918D175
:100B700000208BB2A1670322014600F0E5FEC2B25D
:100B80004321204600F081FE00280AD10090019008
:100B900002906946204601AA02AB00F04FF90028F6
:100BA00000D001203EBD70B50446002904D0481C89
:100BB00004D0891C04D01CE0022002E0012000E0E7
:100BC00000202546206760352A75216F00208BB2F2
:100BD0000622042100F0B8FEC0B22B7D03220021C2
:100BE00000F0B2FEC2B24221204600F04EFE0028C4
:100BF00000D0012070BDFFB585B000271C4615460A
:100C00000E460297062302AA12210397059800F0C8
:100C100035FE002825D1009768460197407A0102E9
:100C20006846007A081881B268460180C07A0202DC
:100C30006846807A101882B2684642800092407BF3
:100C400002026846007B101887B2684687800598C4
:100C5000C06E032808D005283CD0082872D00C2884
:100C60006FD0012009B0F0BD0846FFF7BFFC0D2290
:100C7000D243FFF791FCFFF7FFFC30600098FFF7CD
:100C8000B5FC0D22D243FFF787FCFFF7F5FC286087
:100C90003846FFF7ABFC0D22D243FFF77DFCFFF790
:100CA000EBFC206001273068BF07B84204DD8121DA
:100CB000C905FFF7D6FA30602868B84204DD812103
:100CC000C905FFF7CEFA28602068B84270DD81219F
:100CD000C905A3E00846FFF789FC0C22D243FFF7C1
:100CE0005BFCFFF7C9FC30600098FFF77FFC0C222B
:100CF000D243FFF751FCFFF7BFFC28603846FFF7EF
:100D000075FC0C22D243FFF747FCFFF7B5FC2060CF
:100D100081273068FF05B84204DD41210906FFF74D
:100D2000A0FA30602868B84204DD41210906FFF7C7
:100D300098FA28602068B84273DD412109066DE009
:100D400000E036E00846FFF751FC0B22D243FFF7E4
:100D500023FCFFF791FC30600098FFF747FC0B2263
:100D6000D243FFF719FCFFF787FC28603846FFF7EE
:100D70003DFC0B22D243FFF70FFCFFF77DFC206008
:100D8000412730683F06B84204DD8321C905FFF7DB
:100D900068FA30602868B84204DD8321C905FFF78E
:100DA00060FA28602068B8423BDD8321C90535E040
:100DB00037E00846FFF71AFC0A22D243FFF7ECFBA4
:100DC000FFF75AFC30600098FFF710FC0A22D2436C
:100DD000FFF7E2FBFFF750FC28603846FFF706FC00
:100DE0000A22D243FFF7D8FBFFF746FC2060832797
:100DF0003068FF05B84204DD21214906FFF731FACA
:100E000030602868B84204DD21214906FFF729FA3D
:100E100028602068B84204DD21214906FFF721FA45
:100E2000206000201EE710B50A460123002100F0D3
:100E300025FD002800D0012010BD0000FFB587B0BF
:100E400000271C4615460E460297062302AA0C21CF
:100E50000397079800F012FD002802D001200BB084
:100E6000F0BD009769460197487A097A0002401858
:100E700080B269460880C97A0A026946897A51189F
:100E80008AB269464A800092497B0A026946097B18
:100E900051188AB269468A8007990192896F0029A0
:100EA00009D0844F012938D0022967D003297DD089
:100EB00004297CD0FCE0FFF799FB7F4F7F4B3A463B
:100EC000FFF7F2FAFFF7D8FB30600098FFF78EFBD0
:100ED0003A467A4BFFF7E8FAFFF7CEFB2860019815
:100EE000FFF784FB3A46754BFFF7DEFAFFF7C4FBCA
:100EF0002060734F3068B84203DD7249FFF7B1F9E3
:100F000030602868B84203DD6E49FFF7AAF928600F
:100F10002068B842CEDD6B49C7E0FFF767FB3A4671
:100F2000694BFFF7C1FAFFF7A7FB30600098FFF7A6
:100F30005DFB3A46644BFFF7B7FAFFF79DFB28606D
:100F40000198FFF753FB3A465F4BFFF7ADFAFFF707
:100F500093FB20605D4F3068B84203DD5849FFF7CE
:100F600080F930602868B84203DD5549FFF779F908
:100F700028602068B8427DDD514996E0FFF736FBD6
:100F80003A46534BFFF790FAFFF776FB3060009834
:100F9000FFF72CFB3A464E4BFFF786FAFFF76CFB48
:100FA00028600198FFF722FB3A4601E01AE04AE088
:100FB000474BFFF779FAFFF75FFB2060454F30683A
:100FC000B84203DD4149FFF74CF930602868B84268
:100FD00003DD3E49FFF745F928602068B84267DD28
:100FE0003A4962E0FFF702FB3A463B4BFFF75CFAF7
:100FF000FFF742FB30600098FFF7F8FA3A46364BAD
:10100000FFF752FAFFF738FB28600198FFF7EEFA76
:101010003A46314BFFF748FAFFF72EFB20602F4F7F
:101020003068B84203DD2B49FFF71BF930602868B0
:10103000B84203DD2749FFF714F928602068B84259
:1010400036DD244931E0FFF7D1FA3A46244BFFF769
:101050002BFAFFF711FB30600098FFF7C7FA3A460A
:101060001F4BFFF721FAFFF707FB28600198FFF7F6
:10107000BDFA00E01CE03A46194BFFF715FAFFF7FE
:10108000FBFA2060174F3068B84203DD1349FFF7C1
:10109000E8F830602868B84203DD1049FFF7E1F84E
:1010A00028602068B84203DD0C49FFF7DAF82060B9
:1010B0000020D4E666666666CDCCCCCCCC4C304005
:1010C0000000FA4400007A456666404000007A4419
:1010D000666650400000FA436666604000007A434E
:1010E000666670400000FA42F0B585B000271C46E5
:1010F00015460E460297062302AA0421039700F024
:10110000BDFB002802D0012005B0F0BD0097684665
:101110000197407A01026846007A081881B2684651
:101120000180C07A02026846807A101882B268464E
:1011300042800092407B02026846007B101887B212
:10114000684687800846FFF751FA0322D243FFF72B
:1011500023FAFFF791FA30600098FFF747FA03226D
:10116000D243FFF719FAFFF787FA28603846FFF7EE
:101170003DFA0322D243FFF70FFAFFF77DFA206012
:10118000452730683F06B84204DD8B21C905FFF7CB
:1011900068F830602868B84204DD8B21C905FFF784
:1011A00060F828602068B842AEDD8B21C905FFF7E2
:1011B00058F82060A8E70000FEB50E4600276946F3
:1011C0001C4615460F71012301AA032100F056FBAE
:1011D000002801D00120FEBD68460179018005226A
:1011E000042100F059FB00280ED005220421684696
:1011F00000F052FB012809D005220421684600F0C6
:101200004BFB022802D002E0376000E0306003228E
:101210000221684600F040FB00280ED00322022184
:10122000684600F039FB012809D0032202216846F4
:1012300000F032FB032802D002E02F6000E02860BB
:1012400001220021684600F027FB00280ED0012271
:101250000021684600F020FB012809D0012200216E
:10126000684600F019FB022802D002E0276000E087
:1012700020600898012838D11DA002F01FF821A095
:1012800002F01CF83068002804D0012804D002289D
:1012900004D006E01FA002E021A000E023A002F09D
:1012A0000DF826A002F00AF82868002804D00128CA
:1012B00004D0032804D006E016A002E018A000E045
:1012C00022A001F0FBFF25A001F0F8FF2068002814
:1012D00004D0012804D0022804D006E00DA002E0CA
:1012E0000FA000E011A001F0E9FF0020FEBD00000A
:1012F000424D58313630B9A6C2CAB1A8B8E60D0A77
:101300000000000020202020BCD3CBD9B6C8A3BA4F
:1013100000000000D4DDCDA3C4A3CABD0D0A0000A7
:10132000C6D5CDA8C4A3CABD0D0A0000B5CDB9A6C7
:10133000BAC4C4A3CABD0D0A0000000020202020AA
:10134000CDD3C2DDD2C7A3BA00000000BFECCBD919
:10135000C6F4B6AFC4A3CABD0D0A000020202020E9
:10136000B4C5C1A6BCC6A3BA000000001CB50C469B
:1013700002236A46202100F081FA002801D00120D2
:101380001CBD684640780E220102684600780918A4
:1013900068468180002101A800F07EFAFFF712F96B
:1013A0000822D243FFF7F8F80022094BFEF762FF4C
:1013B000FFF762F920600F2101A800F0DBFA012895
:1013C00004D101212068C9074840206000201CBDCD
:1013D00000003740FFB57D2581B0ED00074604468B
:1013E00040370095387C1E464100012302AA201D8B
:1013F00000F0CAFC002809D10095387CB3B2410046
:10140000201D039A00F038FC002800D0012005B010
:10141000F0BD1CB5002301936B4619715A717D21F3
:10142000C90000915021095C0223490001AA001D56
:1014300000F0AAFC002800D001201CBDF0B593B03C
:1014400000F0E0F9002802D0012013B0F0BD002424
:101450006846047101A97548FFF7E5FC6846017903
:1014600073A001F02BFFB6217048FFF76CFB6420DE
:1014700000F098FA11216D48FFF765FB0A2000F093
:1014800091FA15216948FFF75EFB502000F08AFAB7
:1014900019216648FFF757FB0A2000F083FA012064
:1014A000009012AB11AA10A96048FFF785FE0FA9A2
:1014B0005E480F94FFF75AFF0F98FFF7C9F80246EE
:1014C0000B465CA001F0FAFE082200215748FFF706
:1014D0007FFA564D2846E96EFFF755FA082200219B
:1014E0002846FFF760FB2846A96FFFF735FB284623
:1014F0008030037902688038E96F00F0C3F828462D
:10150000FFF7ACFA04940994039404A80294059498
:1015100008940E90069407940A9407A802AD05AEAD
:1015200008AC0AAF0D902A1D02A940480E9BFFF798
:1015300062FB321D05A93D480D9BFFF77FFC3B4632
:10154000221D08A93948FFF7CFFD3BA001F0B6FEE8
:101550000298FFF77DF802460B463AA001F0AEFE76
:101560003AA001F0ABFE0398FFF772F802460B4673
:1015700037A001F0A3FE35A001F0A0FE0498FFF70C
:1015800067F802460B4634A001F098FE34A001F043
:1015900095FE34A001F092FE0598FFF759F8024637
:1015A0000B4628A001F08AFE28A001F087FE0698CD
:1015B000FFF74EF802460B4625A001F07FFE23A060
:1015C00001F07CFE0798FFF743F802460B4622A085
:1015D00001F074FE22A001F071FE25A001F06EFE64
:1015E0000898FFF735F802460B4616A001F066FE94
:1015F00016A001F063FE0998FFF72AF802460B4691
:1016000013A001F05BFE11A001F058FE0A98FFF74D
:101610001FF802460B4610A001F050FE17A001F083
:101620004DFEFF20F53000F0BDF97CE7F40000200E
:1016300025580A0025660A00BCD3CBD9B6C8A3BA80
:1016400000000000583A252E326600002C000000F1
:10165000593A252E326600005A3A252E326600008D
:101660000D0A0000CDD3C2DDD2C7A3BA000000002E
:10167000B4C5C1A6BCC6A3BA000000000D0A0D0A7D
:101680000D0A0000F8B51C4616460D00074605D0A9
:10169000012D03D0022D01D0032D00D1FD67384666
:1016A0008030002E05D0012E03D0022E01D0032E53
:1016B00000D10660012C13D0022C11D0032C0FD0C6
:1016C000042C0DD0052C0BD0062C09D0072C07D0EC
:1016D000082C05D0092C03D00A2C01D00B2C00D1EA
:1016E000047119213846FFF72EFA002833D1012260
:1016F0004F21384600F0C9F800282CD14B224E214A
:10170000384600F0C2F800287AD1002D06D0012D0D
:1017100006D0022D0CD0032D0CD014E0012200E0E5
:1017200004224F21384600F0B0F8002868D103E0C9
:101730000722F6E71722F4E751224E21384600F03F
:10174000A4F800285CD1002E06D0012E06D0022E6F
:101750000CD0032E0CD053E0022200E00E224F21C9
:10176000384600F092F800284AD103E01A22F6E742
:101770005222F4E752224E21384600F086F8002823
:101780003ED14C224E21384600F07FF8002837D158
:1017900042224D21384600F078F8002830D1012C43
:1017A00013D0022C11D0032C0FD0042C0DD0052CFB
:1017B0000BD0062C09D0072C07D0082C05D0092CFB
:1017C00003D00A2C01D00B2C0BD1A3B20322002191
:1017D00000F0BAF8C2B24421384600F056F80028AA
:1017E0000ED100224C21384600F04FF8002807D1D6
:1017F000354306D11A213846FFF7A5F9002800D055
:101800000120F8BD70B51B4C002020602A221A4927
:10181000201DFEF7B1FC184D688DE085E86A206355
:10182000286B6063294620460D2234313830FEF79C
:10183000A3FC294640314A782046403042718978DD
:101840008171696CA164A96CE1646921017403214F
:10185000E1660420E167A067204680300522016030
:1018600002710122826001734173827302614261DD
:10187000002070BDF40000201800002010B5FFF714
:10188000A9FD002800D0012010BD10B5FFF7C1FD53
:10189000002800D0012010BDF0B591B015460E46CD
:1018A0000746102901D2AE4206DD21A001F006FD57
:1018B0000020C04311B0F0BD40216846FEF775FC22
:1018C0000024AD1B6D1C07E03119384600F052F8BA
:1018D000A20069468850641CA542F5DC00273C46FE
:1018E00021E02046FEF76EFE0B4602460121002055
:1018F000890702F049FA06461091A100684640584F
:10190000FEF760FE3246109BFEF766FD064638463F
:101910001091FEF757FE3246109BFEF7ABFCFEF728
:1019200073FE0746641CA542DBDC3846C2E70000B4
:10193000E8BDACE68DA2E58F91E98081E99499E854
:10194000AFAF5C720A000000F0B50126074D0C46EF
:10195000521C03E03746A740BD43641C9442F9DBA8
:1019600028408B40034398B2F0BD0000FFFF000009
:1019700072B6FEE710B5102903D305A001F09EFC56
:10198000FEE7008801228A40104000D0012010BDEF
:10199000E68F90E58F96E58F91E7949FE99499E81B
:1019A000AFAF000070B5044600F0BCF80546601CFF
:1019B00002D004480078241800F0B4F8401BA0427C
:1019C000FAD370BD00000020FCB5002301259AE089
:1019D00022462C469C4022406FD04E68012E05D0F6
:1019E000022E03D0112E01D0122E16D186680327A5
:1019F000B4465E00B646B7406646BE43B446CF68BE
:101A00007646B7406646374387604668A6430C79FA
:101A1000E406E40F9C4034434460C6685F0003243E
:101A2000BC40A446A6438C68BC403443C4604C68A8
:101A3000022C01D0122C14D1DC08A400241801942B
:101A4000266A5C07B646E60E0F24B440009676463A
:101A5000A643B6460C69009EB44076462643019CD8
:101A6000266204686646B4430E79B607B60FBE40D8
:101A7000264306604C68E40044D59E08254CB60019
:101A80003419A446246E9E07F60E0F27B740BC43B8
:101A900005273F07B84201D1002710E01E4FB8428A
:101AA00001D101270BE01D4FB84201D1022706E00A
:101AB0001B4FB84202D1032701E023E00527B740BE
:101AC000274364462766134E803634684F68944334
:101AD000FF0300D51443346074684F689443BF0318
:101AE00000D5144374600B4C26684F689643FF0280
:101AF00000D51643266066684F689643BF0200D53E
:101B0000164366605B1C0A681446DA4000D05FE743
:101B1000FCBD000000180240000400500008005006
:101B2000000C005001488068704700000000002051
:101B300070B5024640325378202B1CD11378012B0C
:101B400019D00123137024245470046825689D4320
:101B50002560046825681E03B54325600468256870
:101B60000D43256000680168194301602020507012
:101B70000020107070BD022070BD70B5024640326A
:101B80005378202B1BD11378012B18D0012414700B
:101B90002423537003681D68A5431D6005682B68E6
:101BA0000F263602B3430902194329600068016811
:101BB00021430160202050700020107070BD022071
:101BC00070BD000070B5040006D025464035687829
:101BD0000026002802D005E0012070BD2E702046AE
:101BE00000F05AF92420687020680168490849000B
:101BF00001600F2160680906884321680861216837
:101C00008A680120C00382438A60E1680129A168D3
:101C100008D021229202114322689160E1680229D2
:101C200002D005E00143F7E701212268C9025160B3
:101C300021684A680F4B1A434A602168CA68824388
:101C4000CA60616920690843A169090208432168E3
:101C5000C860216AE069084321680860206801685B
:101C60000122114301606664202068702663AE7013
:101C7000002070BD00800002FFB5054604464035D7
:101C8000687881B0202878D12878012875D0012083
:101C90002870FFF747FF0746012200901923D10360
:101CA000204600F053FF00283CD12220687010200D
:101CB000A870002666640398606204986085666375
:101CC000618D2F48FF2903D9FF22228500903BE038
:101CD000618D218500903DE02046029900F022FFB1
:101CE00016E000F05BFF00281CD12068406A616AA2
:101CF0000870606A401C6062208D401E81B22185A0
:101D0000608D401E6085608D002801D000290CD0B8
:101D1000608D0A9900283A462046E2D100F07EFF05
:101D200000281CD0012005B0F0BD009700228021C2
:101D300020460A9B00F00AFF0028F3D1608DFF289F
:101D400005D9FF222285009601231B06C4E7608D7A
:101D500020850096208D0123C2B25B06BCE7216876
:101D60002020C86121684A68064B1A404A606870A2
:101D7000AE702E700020D6E7FFE70220D3E7000008
:101D80000024008000E800FEFFB50546044640350B
:101D9000687881B0202878D12878012875D0012072
:101DA0002870FFF7BFFE0746012200901923D103D8
:101DB000204600F0CBFE00283CD121206870102086
:101DC000A870002666640398606204986085666364
:101DD000618D2F48FF2903D9FF22228500903BE027
:101DE000618D218500903DE02046029900F09AFE29
:101DF00016E000F039FF00281CD1606A21680078E5
:101E00008862606A401C6062608D401E6085208D23
:101E1000401E80B22085618D002901D000280CD0A1
:101E2000608D0A9900283A462046E2D100F0F6FE7D
:101E300000281CD0012005B0F0BD009700228021B1
:101E400020460A9B00F082FE0028F3D1608DFF2817
:101E500005D9FF222285009601231B06C4E7608D69
:101E600020850096208D0123C2B25B06BCE7216865
:101E70002020C86121684A68064B1A404A60687091
:101E8000AE702E700020D6E7FFE70220D3E70000F7
:101E90000020008000E800FE10B586B00446142142
:101EA0006846FEF782F91249206888421ED1114C1B
:101EB000616B012001436163616B029001400591F8
:101EC0000321002049020390009106201221049072
:101ED0000191052069460007FFF776FDE16B0120BF
:101EE00040050143E163E16B0140059106B010BD7F
:101EF00000540040001002400248816802788918AE
:101F0000816070470000002010B508480024016877
:101F1000821511430160204600F00AF8002801D024
:101F2000012401E000F028F8204610BD0020024006
:101F300070B50F4E002431780546002915D07D205C
:101F4000C000FEF7D3F801460A480068FEF7CEF855
:101F500000F04EFC002808D1042D06D200222946AC
:101F6000401E00F023F8756000E00124204670BD9B
:101F7000000000200C00002008B50B480168012279
:101F80001143016000681040009007484038C26B60
:101F900001040A43C263C06B084000900320400262
:101FA00000F01CFC08BD00004010024010B501F01C
:101FB000C3F910BD10B50F4C2168032252029143A2
:101FC00001432160C11FFF39FA390ED10A480621A9
:101FD000006848430949FEF789F8401C02E00028E0
:101FE00005D0401E61694905F9D4002010BD0320C9
:101FF00010BD0000007000400C00002040420F00A7
:10200000FEB5044600680027704D714E800355D51B
:1020100000200090F06BC00007D4F16BA8050143CD
:10202000F163F16B0140012000906A48016882155C
:1020300011430160FFF776FD019005E0FFF772FDA7
:102040000199401A022825D862480068C005F5D5D4
:10205000E8690321090208400FD0216B81420CD0AE
:10206000E86903210902EA698843012109040A4356
:10207000EA61EA698A43EA61E861C0070FD0FFF7C5
:1020800051FD019008E0FFF74DFD0199411A5248BA
:10209000814201D9032709E0E8698007F3D5E8699F
:1020A000032109028843216B0843E8610098002856
:1020B00004D0F16B012000078143F1632078C00751
:1020C00005D06869616880088000084368612078ED
:1020D000800705D568690C218843A16808436861B9
:1020E0002078C00606D56869032189028843E16823
:1020F000084368612088800506D568690321890442
:102100008843A169084368612088400506D568694D
:10211000032109058843E169084368612078800646
:1021200006D568690321090388432169084368616A
:10213000208840040ED56869216A80008008084321
:1021400068610121206A8907884203D1F0688913F8
:102150000843F0602068000305D568694021884382
:10216000616A08436861206881021C480BD569696F
:102170008210A36A914319436961A16A914202D115
:10218000F1680143F160216849020AD56969E26A90
:10219000814311436961E16A814202D1F1680143DF
:1021A000F160208800050FD5686903218903884301
:1021B000616908436861012160698903884203D12C
:1021C000F06889000843F0603846FEBD40100240C8
:1021D0000010024000700040881300000000000161
:1021E000F8B50F46060043D04D4D28684007400F14
:1021F000B84213D22868C008C00038432860FFF7EF
:1022000091FC044605E0FFF78DFC011B4548814227
:1022100061D828684007400FB842F4D13068424C7A
:1022200081070DD5400704D5A0680721090308439D
:10223000A060A0680F2109028843B1680843A0602C
:102240003078C00732D0706801280AD002280BD03D
:1022500000280FD03449403103280ED0C9698907BE
:1022600004E02168890301E021688901002906DB77
:102270000120F8BD21684905F8E7096AEFE7A16880
:10228000C908C9000143A160FFF74CFC009006E0BB
:10229000FFF748FC0099411A224881421BD8A068E8
:1022A000382108407168C9008842F1D12868400788
:1022B000400FB84217D91A480168C908C900394304
:1022C0000160FFF72FFC054607E0FFF72BFC411BE1
:1022D0001448814201D90320F8BD11480068400725
:1022E000400FB842F1D13078400706D5A0680721E9
:1022F00009038843F1680843A06000F031F8A16841
:102300003C2289091140094A515CC906C90EC840DE
:102310000749086007480068FFF70AFEF8BD00009B
:10232000002002408813000000100240E44700082B
:102330000C00002004000020064807490068896856
:10234000064A4904490F8900515CC906C90EC840B4
:10235000704700000C0000200010024024480008D4
:1023600010B5204CA068204A8006400F16D0A06807
:102370008006410F501001290FD0A1688906490F2E
:10238000022912D0A0688006400F042823D0A0683C
:102390008006400F032821D0002010BD20680121B5
:1023A0008004400F8140104612E0E1688B07E1682D
:1023B0009B0F4906490F491C032B00D01046FDF71F
:1023C00095FEE1684904490E4843E168490F491CFC
:1023D000FDF78CFE10BD0120C00310BD7D20000262
:1023E00010BD0000001002400024F400F8B5040005
:1023F0007ED020783827C007EF4D002846D0A86847
:10240000E96838408907890F102802D008280BD0C6
:1024100001E0032908D001206268000482420AD149
:1024200029680143296015E0286880032ED560687B
:102430000028DDD02AE0052301211B0489049A42EB
:102440002A6802D10A432A60EAE782432A602868A0
:1024500088432860606800280CD0FFF763FB0646BD
:1024600004E0FFF75FFB801B642873D828688003B3
:10247000F7D50BE0FFF756FB064604E0FFF752FBEB
:10248000801B6428F1D828688003F7D4207880075F
:1024900069D5A868E96838408A070721920FC90200
:1024A000102802D0002813D001E0022A10D0E068E2
:1024B000002846D028688843216908432860286896
:1024C000FF21013108432860FFF72CFB06462CE072
:1024D0002A68520502D5E268002A89D06A687F23FB
:1024E0001B029A4363691B021A436A60002800E0DA
:1024F0008DE00ED128688843216908432860286848
:1025000001218004400F8140AC48FDF7EFFDAC494C
:102510000860AC480068FFF70BFD002877D122E087
:10252000FFF700FB801B02289FD828684005F7D5DD
:1025300068687F210902884361690902084368606D
:1025400011E02968FF20013081432960FFF7EAFA92
:10255000064605E098E0FFF7E5FA801B022884D8DC
:1025600028684005F7D42078974E00072ED5A86834
:102570008006400F03280AD0A0690028306A16D0D0
:10258000012108433062FFF7CDFA07460BE0306ABD
:1025900080071BD5A06900289FD017E0FFF7C2FA7B
:1025A000C01B022870D8306A8007F7D50EE04008BB
:1025B00040003062FFF7B6FA074604E0FFF7B2FAD0
:1025C000C01B022860D8306A8007F7D42078400703
:1025D0006CD5A86800278006400F042818D0E86B47
:1025E000C00008D4E96B012000070143E963E96BEF
:1025F00001400127009175480168C90519D4016897
:10260000821511430160FFF78DFA00900DE083E021
:10261000F06980074AD5A06800287DD046E0FFF722
:1026200081FA0099401A02282ED868480068C0052F
:10263000F5D5A168012910D004200529F16911D030
:1026400049084900F161F1698143F161A0680028FE
:1026500016D0FFF767FA00900EE0F06901210843F9
:10266000F061F3E70143F161F7E7FFF75BFA0099E7
:10267000411A574881426FD8F0698007F5D50EE0BE
:10268000FFF750FA009007E066E0FFF74BFA009979
:10269000411A4F4881425FD8F0698007F5D4002F76
:1026A00004D0E86B012109078843E863E06900284A
:1026B0007FD0A9688906490F022953D00126360622
:1026C000022828680DD0B0432860E86880088000A0
:1026D000E860E8683F490840E860FFF723FA0446ED
:1026E0003CE0B0432860FFF71DFA074604E0FFF71F
:1026F00019FAC01B02282FD828688001F7D4616A14
:10270000206AA26A0843E16A120211430843216B5E
:102710000843616B084300E049E0E9682E4A114034
:102720000843E860286830432860E8680121090709
:102730000843E860FFF7F6F9044604E0FFF7F2F912
:10274000001B022808D828688001F7D531E0FFF780
:10275000E9F9001B022801D90320F8BD286880018F
:10276000F5D426E00128F8D0E868226A8107890FAD
:1027700091421CD17021626A0140914217D17F21A0
:10278000A26A090201401202914210D11F2149049C
:10279000E26A014091420AD107214906226B0140B9
:1027A000914204D1400F616B4007884201D0012063
:1027B000F8BD0020F8BD0000001002400024F40025
:1027C0000C00002004000020401002400070004077
:1027D00088130000FFFFFEEE8C80C11103490A68D8
:1027E00003235B029A4302430A60704700000140E2
:1027F000094910B5401E884201D9012010BD074C7F
:1028000060610321081F00F097FD0020A0610720F0
:102810002061002010BD0000FFFFFF0000E000E08D
:1028200010B5014680310A78012A15D001220A70BC
:1028300024224A6002681368146864086400146003
:102840000122520793430022426600680360202061
:1028500048600A70104610BD022010BD70B50446D5
:1028600005468034207801281AD0012020702420C9
:102870006060286806680268520852000260286892
:10288000826807235B069A430A438260284600F069
:10289000E1FA28680660202060600020207070BD8A
:1028A000022070BD70B504460546803420780128AA
:1028B00019D0012020702420606028680668026812
:1028C00052085200026028688268D200D2080A4387
:1028D0008260284600F0BEFA28680660202060600A
:1028E0000020207070BD022070BD70B5040005D0BE
:1028F000254680356868002802D006E0012070BDBA
:1029000000202870204600F027F824206860206806
:102910000168490849000160204600F063FB012876
:10292000EDD0A06A002802D0204600F0C3FA20684B
:1029300041680922D20291434160206881682A22BD
:1029400091438160206801680122114301602046A3
:1029500000F016FB70BD000010B586B004461421CF
:102960006846FDF722FC1149206888421BD11048B7
:10297000C26B012149040A43C263C26B0A4005923B
:10298000426B08210A434263406B08400590602077
:10299000009002200190002002900390049069466C
:1029A0000448FFF711F806B010BD000000440040D5
:1029B00000100240000C0050FFB506460446803669
:1029C000706883B00D46202860D1002D0CD005988A
:1029D000002809D00120A1680003814207D12069A5
:1029E000002804D1E80702D0012007B0F0BD3078FC
:1029F00001284BD0012030700020F0602120706051
:102A0000FFF790F80190274640370598B88205985F
:102A1000F8820120A1680003814202D120690028C8
:102A200004D0029500250020307015E000200290AF
:102A3000F9E700228021204600F0F2FB002818D19F
:102A40000298002817D02168007888620298401CFC
:102A50000290F88A401EF882F88A019B00280698A6
:102A60000090E6D100224021204600F0D9FB00284A
:102A700008D00320B9E728882168C005C00D886206
:102A8000AD1CE6E7202070600020AEE70220ACE736
:102A9000FEE701688A69D243920701D400228A6264
:102AA00000688169C943C90703D0816901221143C4
:102AB00081617047F7B5044600680E468069C043DF
:102AC000C0062BD420272546403520688069C043A6
:102AD000800612D5701CF8D0FFF724F80299401A2E
:102AE000B04201D8002EF0D1606C384360646F7042
:102AF0000020A87028700120FEBD21681020C86148
:102B00002068C7612046FFF7C4FF20684168044A77
:102B100011404160606C04210843E7E70020FEBDDE
:102B200000E800FEF0B50668059C7568064F600D6C
:102B3000384385438805800D11040843184320431A
:102B400005437560F0BD0000FF63FF03F8B51D4647
:102B500017460E46044609E0681C07D0FEF7E2FF60
:102B60000699401AA8420BD8002D09D02068816927
:102B7000304688430FD00020B842EDD00020F8BD89
:102B8000616C202001436164403460700020A070BB
:102B900020700120F8BD0120EEE70000F7B5002706
:102BA000202605460446403528E02046029A019931
:102BB000FFF780FF002801D00120FEBD206880695A
:102BC000C043800611D420688169C943490702D4F3
:102BD000218D002917D1C661206841680E4A114035
:102BE000416067646E70AF7013E0FEF79BFF02995F
:102BF000411A0198814208D8002806D020688069CF
:102C0000C0434007D1D40020FEBD606C30436064F7
:102C10006E702F70D0E7000000E800FE70B5164619
:102C20000D4604460FE0324629462046FFF742FF94
:102C3000002801D0012070BDFEF774FF801BA84260
:102C400008D8002D06D020688069C0438006EAD4E9
:102C5000002070BD616C20200143616440346070CD
:102C60000020A0702070E5E770B516460D460446BA
:102C700011E0324629462046FFF71CFF002801D00C
:102C8000012070BD681C06D0FEF74CFF801BA842D7
:102C900008D8002D06D020688069C0438007E8D49A
:102CA000002070BD616C202001436164403460707D
:102CB0000020A0702070E3E708B50F48426B0421A4
:102CC0000A434263426B0A400092426B20210A434E
:102CD0004263426B0A400092416B012211434163FF
:102CE000416B11400091426B08210A434263406BE3
:102CF0000840009008BD00000010024010B51348C5
:102D00001149016012494160002181600161416106
:102D100081610122C161C2600162FEF753FF002898
:102D200001D0FEF725FE00210848FEF701FF00282C
:102D300001D0FEF71DFE00210448FEF71EFF00280B
:102D400001D0FEF715FE10BD005400401800002011
:102D50005B3D300010B5184816490160E121490279
:102D6000416000218160C16001618161C1610162D6
:102D70000C22416242618162FFF7B7FD002801D059
:102D8000FEF7F6FD00210C48FFF78CFD002801D06E
:102D9000FEF7EEFD00210848FFF760FD002801D096
:102DA000FEF7E6FD0448FFF73BFD002801D0FEF7E3
:102DB000DFFD10BD0044004064000020FEE77047C6
:102DC000704710B5FFF798F810BD10B5A0B03821C6
:102DD0006846FDF7EAF900241B941C941D943421E5
:102DE0000EA81E94FDF7E1F901204002FFF7E2F87A
:102DF00002200090C00103904020059004940794A5
:102E00006846FFF7F3FA002801D072B6FEE7072004
:102E10001B901C941D9400211E941BA8FFF7E0F941
:102E2000002801D072B6FEE722200E901094129472
:102E30000EA8FFF7E5F8002801D072B6FEE720B033
:102E400010BD000001200249C006886070470000E4
:102E500000ED00E0F0B513A106C985B00192009124
:102E600012A206CA039202910446416E4034002920
:102E700015D000688168806809014D0F400F02AECF
:102E8000315C6F46385CC000FDF730F96085785DD5
:102E9000715DC000FDF72AF9208505B0F0BD012065
:102EA0006085F9E70101010307010000080402043D
:102EB0000801010110B5018DC90707D001684A68F2
:102EC00001235B049A43C36A1A434A60018D890750
:102ED00007D501684A6801231B049A43036B1A4310
:102EE0004A60018D490707D501684A6801239B04A0
:102EF0009A43436B1A434A60018D090707D501685D
:102F00004A680123DB039A43836B1A434A60018DAD
:102F1000C90607D50268916801231B039943C36B57
:102F200019439160018D890607D501688A680123DC
:102F30005B039A43036C1A438A60018D490612D5DC
:102F400003685A6801210905446C8A4322435A6088
:102F5000426C8A4207D10268516803235B0599439A
:102F6000836C19435160018D090607D501684A68D1
:102F70000123DB04C06C9A4302434A6010BD000089
:102F8000FEB50546002680350446EE60FEF7CAFD14
:102F9000019020680068124F000709D501210097B1
:102FA000002249052046019B00F03AF900280DD186
:102FB0002068006840070BD5012100970022890591
:102FC0002046019B00F02CF9002801D00320FEBD13
:102FD00020206860A860E6662E700020FEBD00001C
:102FE000FFFFFF01F8B504462269A168E5691143B6
:102FF000626900262A431143626E00680A437C4BD3
:1030000001687C4D2940114301602068416803221A
:1030100012039143E268114341602168A06999421B
:1030200001D0226A10438A68734D2A4002438A60A5
:103030002068C16A626A090909011143C1626F49C6
:1030400022686F488A420AD140698007800F1AD0EF
:1030500001283DD0022839D0032827D124E069492E
:103060008A420AD140690C2108400CD004282FD094
:1030700008282BD00C2819D116E063498A4202D0C7
:1030800062498A4201D1002111E09A420ED1416980
:103090000320800201400AD001208002091A17D0C3
:1030A000091A13D0814201D1082100E0102101202A
:1030B000574D584FC0039A423BD100290AD00229EC
:1030C00011D0042909D008297ED10BE00221EEE7B6
:1030D0000421ECE7FFF730F901E0FFF741F90500C3
:1030E00001D17AE00546606A4000395A28460091CD
:1030F000FCF7FCFF676879007918814269D83903C9
:10310000814266D3002328461946009AFDF704F849
:10311000020E0902030278081143181800225141D7
:103120003A460023FCF7F8FF03210902411A3A4A04
:103130004DE0E269824228D1002906D0022907D059
:10314000042907D0082944D108E0FFF7F5F803E087
:10315000284603E0FFF704F900283ED0616A4900E1
:10316000795AFCF7C3FF616840004A088018FCF7F1
:10317000BDFF80B202462949103A8A4229D8491C2B
:1031800001400007400F084325E0002906D002292E
:1031900007D0042907D008291BD108E0FFF7CCF895
:1031A00003E0284603E0FFF7DBF8002815D0616A4A
:1031B0004900795AFCF79AFF61684A088018FCF7C1
:1031C00095FF80B2014600E003E0144A10399142B5
:1031D00001D9012601E02168C86020460121403064
:1031E000418501850020206760673046F8BD0000FA
:1031F00000800040F369FFCFFFF4FF110038014069
:10320000401002400044004000480040004C004094
:103210000024F400CC470008FFFC0F00EFFF000083
:10322000FFB581B005460F46044680350A9E38E05A
:10323000701C36D0FEF776FC0499401AB04221D8B3
:10324000002E1FD02068016849072AD5C069C043F5
:10325000000526D401202168C002086220680168A8
:10326000FF22A1329143016020688168490849002A
:10327000816020206860A860E8600020287003203A
:1032800005B0F0BD20680168FF22A13291430160C2
:103290002068816849084900816020206860A86032
:1032A000EBE72068C1693846884305D000210398C0
:1032B0008142BDD00020E3E70121F8E70FB410B54B
:1032C00003A9044B044A029800F0A8F910BC08BCFA
:1032D00004B01847553D0008100000202021020CC2
:1032E00001D010211046020A01D010460839020907
:1032F00001D01046091F820801D01046891E4208DD
:1033000001D0881E7047081A704700004900CA02A1
:103310000243100000D004204A0D01D001221043C6
:10332000044A490D914201D102210843012800D1EC
:1033300005207047FF0700008307FF22DB0E9A403D
:103340008907090E9940002808DB830809489B007B
:103350001B18186890430843186070470007000F57
:103360000838830804489B001B18D8699043084319
:10337000D861704700E400E000ED00E0F8B50446D5
:103380004F1EC8000838211815461E4608684968AF
:103390003A4606239A4310D02A463346FDF71CF8D6
:1033A0003A46D200083AA3181A687F1E5B68FCF7F9
:1033B00061FF06223B469343EED1022F23D0042F18
:1033C00011D0062F2FD12A463346FDF705F8E36AC0
:1033D000A26AFCF74FFF2A463346FCF7FDFF636AFB
:1033E000226AFCF747FF2A463346FCF7F5FFE369FC
:1033F000A269FCF73FFF2A463346FCF7EDFF6369FD
:103400002269FCF737FF2A463346FCF7E5FFE368FD
:10341000A268FCF72FFF2A463346FCF7DDFF6368FE
:103420002268FCF727FFF8BD002210B513461046AE
:103430000149FDF739F810BD0000F03F10B5FCF769
:1034400019FF10BD002210B5134610461146FDF7B6
:103450002BF810BD10B50721024A00200907FDF71F
:103460009BF810BD01030000034A10B500201107AE
:10347000FDF792F810BD000001FDFFFF02E008C853
:10348000121F08C1002AFAD170477047002001E0DE
:1034900001C1121F002AFBD17047000001490860DA
:1034A0007047000014000020F0B51FB486B00998E2
:1034B000089A030D0021024314D05148514A1818AC
:1034C000504305141198012810981AD0281A401C4E
:1034D00000264D4F4D49009601910490002812DAC4
:1034E000444211E01198012449A3012801D1109808
:1034F000C1430698119A84600360C26041600BB0BA
:10350000F0BD4042E4E70446210500203F4A001C8C
:1035100051410391029012E0E00707D032463B464A
:1035200001990098FCF758FF0191009032463B4604
:1035300010461946FCF750FF06460F466410002C53
:10354000EAD10498039B0028029A0999089806DAA0
:10355000FCF742FF019B009AFCF73EFF05E0FCF7F9
:10356000A3FF019B009AFCF79FFF04460E46002232
:10357000284BFDF791F903D80020C043014607E02E
:103580000022254B20463146FCF774FEFDF764F916
:10359000102409E0002C0ADB0A220023FCF7BCFD02
:1035A000079B30321A55641E02460A43F2D111229B
:1035B000641C079B121B1C19119B012B03D00123B8
:1035C00008430ED10AE0084304D0112010900020D7
:1035D000119077E71098151A6D1E0BE01098824233
:1035E00002DD00236D1C03E0824201DA00236D1E20
:1035F000002BEED0069811998260C16030C07EE742
:1036000001FCFFFF104D0000000014400000F03FDF
:10361000300000000000F0430000E03FFFB597B02D
:103620000646002518E2252877D100242746FD49C3
:10363000049400E00443761C32780120203A904044
:103640000842F7D130782A280ED00222307801467D
:103650003039092916D804990A23594330394018BA
:103660001443761C0490F1E7189802C8049118904E
:10367000002904DA01204003044348420490022058
:103680000443761C30782E2814D10420044370782B
:10369000761C2A2809D11898761C80C8189009E051
:1036A0000A214F43303FC719761C30780146303924
:1036B0000929F5D930786C2810D006DC4C281AD0AE
:1036C00068280ED06A2817D104E0742813D07A280D
:1036D00012D110E00120400504430CE0012109054E
:1036E00001E0032109050C437178814203D10120D7
:1036F00000052418761C761C3078119066280BD0B3
:1037000013DC58287DD009DC00287BD04528F6D072
:103710004628F4D047281AD1A5E118E0632835D00F
:10372000642870D0652812D19DE170286CD008DC27
:103730006728F1D069287BD06E280DD06F2806D17C
:10374000BAE073282ED0752871D0782859D01A9AEB
:10375000199990476D1C7EE16002400F022809D044
:1037600003280DD00428189801680DD00D60001DA5
:10377000189070E11898EA1701680D604A60F6E742
:10378000189801680D80F2E70D70F0E718986A4606
:1037900001781172001D18900020507202A800904C
:1037A000012005E0189802C8189000200091C0433D
:1037B00061070DD5002101E00199491C0191B94231
:1037C00012DA8142F8DB009A515C0029F4D10BE057
:1037D000002101E00199491C01918142FADB019A23
:1037E0000099895C0029F5D1019904981A9B471A20
:1037F00021463846199A00F097FA01994019451860
:103800000BE04FE02CE113E04EE0009800990078C7
:10381000491C00911A9A199990470198401E0190ED
:10382000401CF2D1214638461A9B199A10E137E024
:103830000A200021009001916002410F022907D067
:10384000189A01CA1892C2179446032908D00AE0B0
:103850001898C01DC108C90005C91891944607E011
:1038600000B2C2179446042902D140B2C1178C4657
:1038700000226146944506DA0A4600214042914101
:103880008C462D2102E0210504D52B216A461173B7
:10389000012103E0E10701D02021F7E7029155E083
:1038A0000A200AE0102008E01020009000210420E7
:1038B00004430191082703E00820002101910090B2
:1038C0006002410F022907D0189A01CA18920022FB
:1038D0009446032908D008E01898C01DC108C90003
:1038E00005C91891944603E080B2042900D1C0B202
:1038F00000210291210729D51199702906D0009A3B
:103900001021019B4A401A4305D00EE040216A462F
:103910001173012108E06146014306D030216A4657
:1039200011731199517302210291009A0821019B90
:103930004A401A430AD16146014301D1610705D5C6
:1039400030216A46117301217F1E02911199582975
:1039500004D035A10E910DA90D910DE037A1F9E725
:103960006146019B009AFCF7D7FB0E9B8C469B5C43
:103970000D9A521E0D92137061460143F0D10D98BD
:1039800005A9081A20300190600703D50120000422
:10399000844300E001270198874201DD381A00E0E6
:1039A0000020019900904118029809180498401AC3
:1039B0000490E00306D421461A9B199A049800F05B
:1039C000B3F94519002706E003A81A9AC05D1999B2
:1039D00090476D1C7F1C02988742F5DBE0030CD5F5
:1039E00021461A9B199A049800F09EF9451904E0A3
:1039F0001A9A3020199990476D1C0099481E009022
:103A00000029F5DC08E00D980D990078491C0D910E
:103A10001A9A199990476D1C0199481E0190002926
:103A2000F1DC63E1092801003031323334353637B7
:103A300038396162636465660000000030313233FA
:103A4000343536373839414243444546000000009A
:103A500000F05AF94519761C3078002800D0E2E5CC
:103A600028461BB0F0BD600700D406271898C01D7B
:103A7000C108C90048680A680831C30FDB071891FC
:103A8000190001D09CA108E0210501D59BA104E00B
:103A9000E10701D09AA100E09AA1430011985B08C8
:103AA000109165280CD006DC452809D046281DD089
:103AB000472841D141E0662818D067283CD13CE036
:103AC0000021112F01DB112000E0781C01910090F2
:103AD00008A911A8FFF7E8FC139905910021119A94
:103AE00015927F1C12980197009150E00120C007A9
:103AF00003900120019008A9009711A8FFF7D4FCBA
:103B0000139A149905920022119B00921298159312
:103B1000059A0192002901D0104602E0791C401854
:103B20000190381A01D5019804E04042401E0090EF
:103B3000781C0190C01B029043E0012F00DA01279E
:103B40000021112F01DD112000E038460191009085
:103B500008A911A8FFF7A8FC13990591119A002153
:103B6000129815920091019721070CD40599B9423A
:103B700001DB019900E00191012904DD159A491E3C
:103B8000515C302906D0B84201DA011D05DA012165
:103B9000029115E00199491EEDE7002805DC009926
:103BA000411800910199091A03E0019A411C9142C0
:103BB00000DD01910099401A401C02900120C007CD
:103BC0000390200706D402990198814202DB00206D
:103BD000C043029000206946C87707AF01210398CF
:103BE0000337C907884224D0022011902B2012905D
:103BF000039800280CDA404203902D20129007E031
:103C00000A210398FCF772FA30317F1E0390397055
:103C10001199481E11900029F2DC03980028EFD179
:103C2000791E129808703078202108404530BF1E58
:103C3000387006A8C01BC01D03901098007800289B
:103C400000D00120019941180298C0170918039863
:103C500009180498401A401E0490E00306D4214637
:103C60001A9B199A049800F05FF84519109800788B
:103C7000002803D01A9A199990476D1CE00324D5A7
:103C800021461A9B199A049800F04EF845191CE039
:103C90000098002807DB00990598884203DD1598F5
:103CA000405C199901E0199930201A9A90470098C0
:103CB0006D1C401C00900298401E0290002804D108
:103CC0001A9A2E20199990476D1C0199481E01904F
:103CD0000029DDDC05E038781A9A7F1C1999904795
:103CE0006D1C0399481E03900029F4DC21461A9BA1
:103CF000199A0498ACE600002D0000002B0000008B
:103D00002000000000000000F8B5044600251E4613
:103D10001746880404D405E039462020B0476D1CBE
:103D2000641EF9D52846F8BDFFB50446002581B0CC
:103D30001E46C80301D5302700E02027880404D59B
:103D400005E038460399B0476D1C641EF9D5284636
:103D500005B0F0BD13B57D23DB00012269460248A2
:103D6000FEF72AFE00981CBD64000020FEF7CCF888
:103D7000FFF72BF8FEF7A0FFFEF7C0FFFEF7EAFF04
:103D8000FDF75CFBFEE70000F0B51FB496B084467B
:103D90000C460246199D189803904900680063007C
:103DA000490840080193002A01D0012600E00026BE
:103DB0009E19FE4BF6185B109E422BD36E00039F9C
:103DC0000296002F00D00127F719F84EF84BBE19C4
:103DD0009E421FD3039E0346F64F334309D03B4612
:103DE0009C4201D1002A04D0019B002A05D0012663
:103DF00004E0002039461BB0F0BD00269E19EE4BB2
:103E00009E4207D8039F029E002F00D00127F6197B
:103E10009E4207D92B4660462146189AFFF70EFBB3
:103E20001BB0F0BD0023002C29DAE44EB04226DAA4
:103E3000E34EB04201DB022321E0DE4EB0421EDB46
:103E4000E04E070DBE19142E09DD3427BF1B039E5B
:103E5000FE400196BE40039FBE420BD00FE0039F81
:103E6000002F0CD11427BF1B0646FE400196BE4012
:103E7000864204D1019BDE07F60F02239B1B0E46F0
:103E8000164318D1002D16DA002C03D0022B01D0D6
:103E9000012B06D00220FFF701FBFFF7C5FA1BB08C
:103EA000F0BD0220FFF7FAFAFFF7BEFA0122D207AF
:103EB00051401BB0F0BD039E002E61D1BF4EB042F9
:103EC00020D1C148844201D1002A08D0B94881429A
:103ED00009DB002D10DB189829461BB0F0BD00202F
:103EE000B4491BB0F0BD002D06DA01222946D207E5
:103EF000189851401BB0F0BDB4497944086849682E
:103F00001BB0F0BDAB4FB84225D1002D1FDA002900
:103F100004D0B14212D1002A09D018E0002A72D18F
:103F2000A649E20F0020D20711431BB0F0BD0020CC
:103F3000E20F0146D20711431BB0F0BDB14206DAD1
:103F4000234600203946FCF7AFFA1BB0F0BD1046FF
:103F500021461BB0F0BDB14212DA0126B607B542C8
:103F600003D1234610461946FEE3994EB54207D1C8
:103F7000261E05DB1046314600F004FC1BB0F0BDE8
:103F800067007F081646002A40D100290AD08B4AD4
:103F9000914229D1002C0EDD002D1CDB00201146A2
:103FA0001BB0F0BD022B16D0002C14D0012B12D167
:103FB000002C14DB0FE0002C28DA002D09DB012B8C
:103FC00003D000207D491BB0F0BD002081491BB00B
:103FD000F0BD012B03D0002001461BB0F0BD002036
:103FE0000121C9071BB0F0BD724A91420ED1002CCD
:103FF00001DA002B17D0022B06D00020C043FCF7BB
:10400000E1FA1BB0F0BD90E20120F8E7E217521C84
:1040100094461A4307D000220892664C62465B1E03
:104020001A4307D009E00120FFF738FAFFF70AFA30
:104030001BB0F0BD0022644C0892674A90427DDDBF
:10404000664B674A98421FDD914202DC002D05DB7A
:104050004DE05848814217DB002D48DD0220FFF774
:104060001DFAFFF7F7F905460E460022534B21468D
:104070000898FCF7B1F9084671004908C00FC0075D
:10408000014328461BB0F0BD914215DA002D2EDA0F
:104090000220FFF703FAFFF7DDF905460E4600227E
:1040A000464B21460898FCF797F972005208C80F52
:1040B000C0070243114617E03E4B994223DD002D15
:1040C00015DD0220FFF7EAF9FFF7C4F905460E46B1
:1040D00000223A4B21460898FCF77EF90846710009
:1040E0004908C00FC007014328461BB0F0BD02209D
:1040F000FFF7D4F9FFF7B8F949004908E20FD207F2
:1041000011431BB0F0BD002230463946FCF756F98A
:10411000012205460E46D243FCF73EFA314A324BA5
:10412000FCF752F92A463346FCF756F90022284B91
:10413000FCF74AF907462A46334600E064E003915B
:1041400010461946FCF748F93A46039BFCF744F938
:104150000746032209915207244B28463146FCF7B3
:104160003BF907910C90224A204B38460999FCF7FD
:1041700033F9074601911F4A1F4B28463146FCF789
:104180002BF93A46019BFCF719F907460B46024604
:10419000099107990C98FCF76DF800250E46284602
:1041A000079B0C9AFCF70AF93A4627E0FFFF1F002D
:1041B000FFFF0F000000F03F0000E0FF0000F07F75
:1041C0000000404301FCFFFF0000F0BFD2090000E7
:1041D0000000E03F0000F0FF0000E0410000F0437D
:1041E000FFFFEF3F555555555555D53F4715F73FFF
:1041F000FE822B6544DF5DF80BAE543E099BFCF755
:10420000E3F802460B4652E1012500202D05A942A4
:1042100007DA352230463946FCF7BEF90646342027
:10422000C0430A151218FE48101803900803FD49F0
:10423000000B01430F46FC49884201DC002003E0EB
:10424000FA49884202DA0120119005E0002011901D
:104250000398401C7F1B039011980597C200F448F7
:104260000F927844801843680268394630460D93AF
:104270000292FCF7A3F807910C9030460D9B029A2E
:104280000599FBF7F7FF02460B460020E549FCF7CE
:104290000BF909910490079B0C9AFCF79DF812907A
:1042A00000201090E3480D46784400680E900121EC
:1042B00078104907084311990D9B89044018012182
:1042C000C90447183946029A0E98FCF777F8324627
:1042D000059BFCF779F802460B4629461098FCF737
:1042E0007BF8064602913B4629460E9A1098FCF749
:1042F00073F8079B0C9AFCF767F83246029BFCF7B1
:104300005DF8099B049AFCF767F80591129A0A90E8
:104310002B4610461946FCF75FF806460246C6488B
:104320000F460B4606217844FFF728F832463B46F5
:104330000091049010461946FCF74EF8009B049A31
:10434000FCF74AF806460F462B461946129A109873
:10435000FBF790FF059B0A9AFCF73EF832463B4676
:10436000FBF788FF109A079104902B4610461946D8
:10437000FCF732F8B14E0022334609910290FBF768
:1043800079FF079B049AFBF775FF0020074602465A
:1043900033460091FCF712F8099B029AFCF70EF8DD
:1043A000079B049AFCF710F806460D913A462946F9
:1043B000009B1098FCF710F807910C902B463046A4
:1043C000129A0D99FCF708F805460E463A46009BEE
:1043D00005990A98FCF700F833462A46FBF74AFF8E
:1043E00002460B460746099107990C98FBF742FFD6
:1043F00000250E462846079B0C9AFBF7DFFF3A463E
:10440000099BFBF7E1FF07460722099152078C4BF6
:1044100031462846FBF7E0FF07910090894A884B18
:1044200038460999FBF7D8FF07460191864A874B22
:1044300031462846FBF7D0FF3A46019BFBF71AFFAF
:10444000834B7B440F9A9B181A685B68FBF712FF3B
:10445000029009910398FCF7B5F805910490099B27
:10446000029A07990098FBF705FF7A4B7B440F9A55
:104470009B181A685B6817460393FBF7FBFE059BC6
:10448000049AFBF7F7FE0E462846059B049AFBF7B5
:1044900095FF3A46039BFBF791FF079B009AFBF7BA
:1044A0008DFF099B029AFBF78FFF02460B46199975
:1044B00000200C900F461898FBF78EFF0291049095
:1044C0003B460C9A19991898FBF778FF2A46334611
:1044D000FBF782FF029B049AFBF7CCFE09910E903A
:1044E0002A46334639460C98FBF776FF06460F46B8
:1044F000099B0E9AFBF7BEFE574A0D46914220DB00
:104500005242AA18024310D132463B46FBF756FFEF
:1045100004900391514A524B09990E98FBF7AAFE59
:10452000039B049AFCF7B8F91ED20220FEF7B6FFEF
:10453000FEF790FF49004908E20FD20711431BB074
:10454000F0BD6A00474B52089A420DD3464AAA185A
:10455000024300D0CBE532463B46FBF72FFF099BD9
:104560000E9AFCF799F9F5D96800002340082C4908
:104570000393020D3D4B5218984223DD01200005A4
:10458000521CD04042195000400D4018384979441F
:10459000096813468C463749C1408B4312030121F9
:1045A000120B090551181422101AC1400391002D55
:1045B00001DA48420390624630463946FBF7FEFE78
:1045C00006460F4632463B4609990E98FBF752FEC7
:1045D00000252A46284B28460591FBF7FDFE07914A
:1045E0000C90264A264B28460599FBF7F5FE0091CC
:1045F000029032463B4628460599FBF7DFFE099BB1
:104600000E9AFBF7E1FE1F4A1F4BFBF7E5FE009BEE
:10461000029AFBF72FFE07460B460246099135E04A
:1046200001FCFFFF0000F03F8E9803007AB60B00FC
:10463000E2050000240600004E05000000000840CE
:1046400009C7EE3FFD033ADCF5015B14E02F3EBEE7
:1046500022040000E803000000009040FE822B6569
:104660004715973C00CC904000346F3F0000E03F7E
:104670003E030000FFFF0F00432EE63F396CA80CFD
:10468000615C20BEEF39FAFE422EE63F07990C9896
:10469000FBF7F0FD05460E46079B0C9AFBF78EFED6
:1046A0003A46099BFBF790FE09912A4633460E9045
:1046B00010461946FBF790FE074602462F480B4668
:1046C000059105217844FEF759FE3A46059BFBF714
:1046D00083FE2A463346FBF777FE074601912846BC
:1046E0003146099B0E9AFBF777FE099B0E9AFBF762
:1046F000C1FD012304910C9000229B0738460199CB
:10470000FBF75CFE05910E903A4628463146019B28
:10471000FBF762FE059B0E9AFBF7C6FE049B0C9A04
:10472000FBF74CFE2A463346FBF748FE0022144BAB
:10473000FBF74AFE064603980D4600054119091588
:10474000002912DC30462946039AFBF725FFFEF7C5
:10475000DDFD042801D1FEF787FE30462946039A85
:10476000FBF71AFF064601E004E029180B46324623
:1047700021460898FBF730FE1BB0F0BDE0010000B9
:104780000000F03FF8B506460C46FCF7ABF8051EF6
:104790000F4600D00120014349000B484908411A47
:1047A000C90F0DD0002E01D0012100E000210C43E3
:1047B00061004908401AC00F02D10120FEF76EFEC9
:1047C00028463946F8BD00000000F07F01000200D5
:1047D0000400060008000A000C0010002000400041
:1047E0008000000100000000000000000000000048
:1047F00000000000000000000000000000000000B9
:1048000000000000010000000200000003000000A2
:10481000040000000600000007000000080000007F
:10482000090000000000000000000000000000007F
:104830000000000001000000020000000300000072
:104840000400000000000000000000000000F03F35
:10485000000000000000F83F000000000000000021
:104860000000004003B8E23F00000000000000002C
:1048700006D0CF43EBFD4C3E033333333333E33FBA
:10488000FFAB6FDBB66DDB3F4D268F515555D53FE6
:1048900001411DA96074D13F65DBC9934A86CD3FB4
:1048A000EF4E454A287ECA3F3E5555555555C53FA2
:1048B00093BDBE166CC166BF2CDE25AF6A56113F94
:1048C000F16BD2C541BDBBBED0A4BE726937663E96
:1048D0000000000000000000F84800080000002070
:1048E000180000007C34000810490008180000205F
:1048F000800500008C340008010000000400000066
:10490000000000000024F40000000000000000008F
:04000005080000BD32
:00000001FF
