:020000040800F2
:10000000C0050020D10000088D25000861220008ED
:1000100000000000000000000000000000000000E0
:100020000000000000000000000000009125000812
:1000300000000000000000008F2500089325000844
:10004000E3000008E3000008E3000008E300000804
:10005000E3000008E3000008E3000008E3000008F4
:10006000E3000008E3000008E3000008E3000008E4
:10007000E3000008E3000008E3000008E3000008D4
:10008000E3000008E3000008E3000008E3000008C4
:10009000E3000008E3000008E3000008E3000008B4
:1000A000E3000008E3000008E3000008E3000008A4
:1000B000E3000008E3000008E30000080348854669
:1000C00000F09EFB0048004719340008C0050020DE
:1000D0000448804704480047FEE7FEE7FEE7FEE7E6
:1000E000FEE7FEE729260008BD00000830B50B46F4
:1000F000014600202022012409E00D46D5409D4202
:1001000005D31D469540491B254695404019154687
:10011000521E002DF1DC30BDF0B51FB406460020A4
:1001200082B005464024019100901BE001992246CF
:100130000F46304600F080FA049A059B801A9941D8
:1001400010D310461946224600F066FA361A8F413F
:100150000197224601200021009F00F05DFA381827
:100160004D4100902046641E0028DFDC019B009872
:100170002946324607B0F0BD03460B439B0703D028
:1001800009E008C9121F08C0042AFAD203E00B785C
:100190000370401C491C521EF9D27047D2B201E0D4
:1001A0000270401C491EFBD270470022F6E710B5D2
:1001B00013460A4604461946FFF7F0FF204610BDD5
:1001C000F0B507460846584087B0C00F0490480075
:1001D0000E46590040084908BC1A884105D23846E5
:1001E00031461E4617460B4602465800400810434B
:1001F0004CD0300D039040055900400D490D05903D
:10020000401A0290402872DA18030121000B0905F8
:100210000843019004980092002805D001995242A9
:100220000020884100920190029840210A1A019909
:10023000009800F0F1F905460C466B4607CB00F03C
:100240000CFAC0197141039A0E0D0023D7175640BE
:100250001A467A40164344D0049A002A2DD0029AB6
:10026000012A039A15DC1205C01A914101263605B0
:10027000001C7141D20F059ED20700930192029695
:100280002A46234600F04AFA07B0F0BD3846314608
:10029000FAE71605224A0F46B218C01AB7410121E3
:1002A0000905001C4F4100187F411146181879417B
:1002B000E20F10436D19644113E0E2076D08154326
:1002C0006408C2071443039A01261205C01A91411B
:1002D0003605001C7141CE07400830434908C0185C
:1002E00051412A46234600F00CFACDE7FFE7049877
:1002F00001224000C117121A00238B410498314695
:10030000C417381AA141EEE730B40124E407634072
:1003100030BC55E730B40124E407614030BC4FE7FE
:100320000000E0FFF0B51FB488B00B9909980024D5
:1003300048400999C00F490049080991C0070B9925
:100340000090490049080B9109990898A64608436E
:100350001CD00B990A98084318D009980124400032
:10036000420D4800410D099824050003000B20436D
:1003700009900B980003000B20430B9050181C4968
:100380004018002201901446104605E00020014666
:100390000DB0F0BD032801DA034600E003239C46BC
:1003A000C11A0AAE0AE05F0008ADED5B4F00F75BD3
:1003B0007D430027AA187C41491C5B1E6145F2DD84
:1003C000410004AB5A522104120C0A43240C401C75
:1003D0000828DFDB01980290009970460191009097
:1003E000059B049A0799069800F098F9D0E7000059
:1003F0000DFCFFFFF0B50C465C4085B0E40FE40750
:1004000003944C00002664085900944649080246AB
:100410000296224321D062460A431ED06200570D45
:100420004A000E032303550D012402462C492405DE
:10043000781B1B0B360B4018234326436146009064
:100440001C46501AB44103D30098401C009002E0AF
:10045000921800985B41002803DA0020014605B09D
:10046000F0BD0020012109050746864611E06446DB
:100470001D46141BB54106D36546521BB341744655
:1004800007430C43A646CD07400849082843921865
:100490005B4105460D43EAD11046184313D0604630
:1004A000194650407140084306D06046101AB341C7
:1004B00006D20122002306E000220123DB0702E02E
:1004C0000122D2435310009874460105381C614143
:1004D000029C039D0019694100F013F9BFE7000079
:1004E000FD03000070B54B005B0803430BD04B00CD
:1004F0005C0D002633466542B341D417AD1AA341C3
:1005000002DB0020014670BD12053018514170BD5C
:100510000EB505490291002100910A460B46019152
:1005200000F0FCF803B000BD330400004A000903EA
:100530000123090B1B051943094B10B5520D9A42B3
:1005400001DA002010BD064B34339A4203DC9A1ABC
:1005500000F072F810BD03495118884010BD00002A
:10056000FF030000CDFBFFFFC20FD2074000400891
:100570000BD0C10D0723DB01C91840020905400A51
:100580001143C208400711437047002001467047DD
:1005900010B5002904DB0124E40740428C412146C8
:1005A000002B04DB1C460123DB075242A3418B4294
:1005B00000D1824210BD000010B5002904DB0124E7
:1005C000E40740428C412146002B04DB1C460123FA
:1005D000DB075242A341994200D1904210BD000076
:1005E000CB0FDB07490010B5490802460A4307D084
:1005F0000A0D07240903E401090B121B002A01DC80
:10060000002010BDC900440F0C43C100E018D20502
:10061000801800F035F810BD10B5202A04DB014623
:10062000203A9140002010BD914020239C1A03469F
:10063000E3401943904010BD10B5202A04DB084662
:10064000203AD040002110BD0B46D340D04020249A
:10065000A21A91400843194610BD10B5202A06DBA6
:10066000CB170846203A1041C1170B4306E00B4652
:100670001341D0402024A21A91400843194610BDCE
:10068000002904DA401C490001D1400840007047AD
:1006900070B40024050C05D11024000402D10029F7
:1006A00021D01124050E01D100020834050F01D11B
:1006B0000001241D850F01D18000A41C002801DB4E
:1006C0004000641C002908D020252E1B0D46F54053
:1006D000A14000D001212943084301061B1B000A49
:1006E000DB1D02D5002070BC7047DB051818801890
:1006F0000029F8DA401C4900F5D170BC40084000E0
:10070000704710B5002B08DA0024401C6141921894
:100710005B411A4301D14008400010BDF0B51FB441
:1007200082B005460C0003D0084602F0C9F902E089
:1007300002F0C6F920300246009021462846FFF715
:100740006BFF049B059A04460F4618431143084368
:1007500014D0184610431BD0009840210A1A18469E
:100760000599FFF769FF05460E46009A059904981A
:10077000FFF752FF084305D0012004E02046394628
:1007800007B0F0BD0020C11705430E432C4337438B
:1007900000990E986305401A7905E40A00220C437B
:1007A000FD0A0A3002D500200146E9E701051019CB
:1007B00069410C9C0D9D00196941FFF7A2FFDFE71D
:1007C0004A0009030123090B1B0519430A4B10B505
:1007D000520D9A4202DA0020014610BD064B343316
:1007E0009A4203DC9A1AFFF727FF10BD034BD21879
:1007F000FFF712FF10BD0000FF030000CDFBFFFF5D
:10080000064C0125064E05E0E36807CC2B430C3C63
:1008100098471034B442F7D3FFF754FCAC340008C7
:10082000CC340008F8B504460027806D3D463E46AE
:1008300000280DD001280BD0022809D0032807D0AA
:10084000042805D0052803D0062801D007281DD18B
:1008500083B207220521384600F076FCC7B2E06D6E
:10086000002807D0012805D0022803D0032801D092
:10087000042806D183B204220221384600F064FC29
:10088000C7B2606E012802D000280DD06DE0A06EC6
:10089000012807D0022805D0032803D0042801D05E
:1008A000052862D183B200E00023022200212846FD
:1008B00000F04AFCC5B2206F012802D000281AD0EF
:1008C00053E0606F012807D0022805D0032803D029
:1008D000042801D0052848D183B2072205213046DB
:1008E00000F032FCC6B22046E16F8030012904D00E
:1008F00000291CD039E0606FEEE70068012807D0BE
:10090000022805D0032803D0042801D005282CD1C3
:1009100083B204220221304600F016FCC6B2606D9C
:10092000002806D0012804D0032802D01DE000884A
:10093000EEE783B201220021304600F005FCC6B28A
:100940003A46F521204600F0F7FB00280DD12A4653
:10095000F221204600F0F0FB002806D13246F421B7
:10096000204600F0E9FB002800D00120F8BD70B55A
:100970008AB0002605460296062302AA882103961D
:1009800000F0B2FB00286CD16846407A2C46010288
:100990006846007A80340818A0606846C07A010270
:1009A0006846807A0818E0606846407B0102684625
:1009B000007B08182061142104A8FFF7F6FB12231E
:1009C00004AA8E21284600F08FFB002849D16946F1
:1009D000487C097C0002401869466061C87C897CBB
:1009E000000240186946A061487D097D0002401858
:1009F0006946E061C87D897D000240186946206231
:100A0000487E097E0002401869466062C87E897E81
:100A1000000240186946A062487F097F0002401822
:100A20006946E062C87F897F0002401808A92063F8
:100A30004878097800024018606308A90E71009692
:100A4000012309AAA1212846019600F04DFB0028A8
:100A500007D107236A46E121284600F045FB00281C
:100A600002D001200AB070BD08A80079A0636846D2
:100A700040780102684600780818E063684680788C
:100A800020646846C0780101684600790007000FBD
:100A900008186064684600790109684640790001D9
:100AA0000818A06468468079E064DBE7FFB59FB072
:100AB000044600200090019008236A46F721204652
:100AC00000F012FB00287DD16846007801036846DB
:100AD00040780001091868468078000908180A90D3
:100AE0006846C07801036846007900010918684625
:100AF000407900090E186846807901026846C0797D
:100B0000081818902046803087680269C1681992D9
:100B1000826B1792C26B1692026C1592426C149201
:100B2000826C1392C26C12924269109282690F9287
:100B3000C2690E92026A0D92426A0C92826A119206
:100B4000C26A0992026B0892406B0B900846FFF74D
:100B5000DFFC054638460691FFF7DAFC0922074616
:100B6000D2430591FFF7BEFC1C9007913046FFF77A
:100B7000CFFC0D220646D2430391FFF7B3FC079B3F
:100B80001C9AFFF7C1FB2A46069BFFF7CBFB0546E5
:100B900007911998FFF7BCFC19911A900C2238465E
:100BA000D2430599FFF79EFC074605911022304677
:100BB000D2430399FFF796FC3A46059BFFF7A4FB47
:100BC000024600E02FE10B46FFF7ACFB199B1A9A97
:100BD000FFF7A8FB06460F4602460B462846079934
:100BE000FFF7EEFAFFF7A2FC206632463B462846A6
:100BF0000799FFF7E5FA0022BA4BFFF7FBFBFFF777
:100C0000EFFC20990860206EFFF782FC0022B64BB3
:100C1000FFF77AFB05460E461598FFF779FC192277
:100C2000D243FFF75FFC2A463346FFF77BFB0022E7
:100C3000AE4BFFF7C5FA074605911298FFF768FC1F
:100C40001922D243FFF74EFC2A463346FFF76AFBD0
:100C50003A46059BFFF766FB0022A44BFFF7B0FA6C
:100C6000074605911698FFF753FC0F22D243FFF772
:100C700039FC3A46059BFFF755FB0746049113984C
:100C8000FFF746FC0D22D243FFF72CFC2A463346E1
:100C9000FFF748FB05460E461498FFF739FC06227D
:100CA000FFF720FC2A463346FFF78AFA05460E4630
:100CB0001898FFF72DFC2A463346FFF725FB3A46E6
:100CC000049BFFF72FFB05460E461798FFF720FC05
:100CD0002A463346FFF726FB1222D243FFF702FCD7
:100CE0000022824BFFF716FB2A463346FFF71AFB1A
:100CF00005460E4600227E4BFFF75EFC02D2002521
:100D00007B4E08E00022134628463146FFF740FCA0
:100D100001D200252E4628463146FFF761FC219975
:100D20000860206EFFF7F4FB0022D243FFF7DAFBE6
:100D30000022704BFFF7E8FA04460D461198FFF7C2
:100D4000E7FB06460F4622462B4610461946FFF79C
:100D5000E9FA32463B46FFF7E5FA0E22D243FFF7A7
:100D6000C1FB06460F460C98FFF7D2FB22462B46E6
:100D7000FFF7D8FA0122FFF7B5FB32463B46FFF7F3
:100D80001FFA129006910D98FFF7C2FB1022FFF791
:100D9000A9FB06460F460122D24306991298FFF797
:100DA000A1FB32463B46FFF70BFA129006910F98D3
:100DB000FFF7AEFB22462B46FFF7B4FA06460F4676
:100DC0000E98FFF7A5FB22462B46FFF7ABFA22460B
:100DD0002B46FFF7A7FA1224E4432246FFF782FBD3
:100DE00032463B46FFF7ECF92246FFF77BFB06460F
:100DF0000F461098FFF78CFB0D4604460E22D24397
:100E000030463946FFF76EFB0022384BFFF7D8F922
:100E100022462B46FFF786FA002204460D4613466B
:100E2000FFF7B6FB02D1012023B0F0BD0A98FFF70F
:100E30006FFB0022304BFFF76DFA06460F460B2280
:100E4000D24306991298FFF74DFB32463B46FFF717
:100E500061FA0022294BFFF765FA22462B46FFF77D
:100E6000C9FA04460D460B98FFF752FB22462B4663
:100E7000FFF758FA22462B46FFF754FA1E22D243B8
:100E8000FFF730FB039102900898FFF741FB2246E1
:100E90002B46FFF747FA0E22D243FFF723FB1290AF
:100EA00006910998FFF734FB06460F46069B129AF7
:100EB00003990298FFF784F93B463246FFF780F921
:100EC0000322D243FFF70EFB22462B46FFF778F9A9
:100ED0000022074BFFF78EFAFFF782FB229908608A
:100EE0000020A1E70000B44000C0F2400000F03F45
:100EF000000059400040EF4000003041006AB84017
:100F000010B50A460123D02100F0EEF8002800D0E9
:100F1000012010BDFFB57D2581B0ED0007460446D8
:100F200040370095387C1E464100012302AA201D4F
:100F300000F012FB002809D10095387CB3B24100C3
:100F4000201D039A00F080FA002800D0012005B08F
:100F5000F0BD1CB5002301936B4619715A717D21B8
:100F6000C90000915021095C0223490001AA001D1B
:100F700000F0F2FA002800D001201CBD7FB5474CDC
:100F80002A224549201DFFF7F7F8434D688DE0857B
:100F9000E86A2063286B6063294620460D223431BD
:100FA0003830FFF7E9F8294640314A78204640308A
:100FB000427189788171696CA164A96CE1647721BF
:100FC00001740320606500250420A565E06501200B
:100FD0000521206761676066A166E0672046803072
:100FE0000160803800F087F800282AD16846057330
:100FF00003A92046FFF784FF6846007B60280BD0DA
:1010000027A001F04DFD2548FFF7B1FC2348FFF76D
:1010100009FC002815D101E025A0F2E7642000F0CA
:10102000A9F80095019502956C4602AD1B4800F0A9
:1010300077F82B46221D69461848FFF737FD002830
:1010400002D0012004B070BD1DA001F029FD009860
:10105000FFF78AFA02460B461BA001F021FD1CA0F7
:1010600001F01EFD0198FFF77FFA02460B4616A01D
:1010700001F016FD18A001F013FD0298FFF774FAB5
:1010800002460B4616A001F00BFD044800F03CF8A8
:10109000322000F06FF8C9E714000020F0000020B3
:1010A000CEB4B1F0B5BD424D453238300D0A000026
:1010B000CAB6B1F0B5BD424D453238300D0A000018
:1010C00054656D703D00000025302E33662C000005
:1010D00048756D3D0000000050726573733D00005F
:1010E00025302E33660D0A0010B5FFF713FF0028D8
:1010F00000D0012010BD10B5B622E02100F01CF890
:10110000002800D0012010BD10B500214165034822
:10111000FFF788FB002800D0012010BDF000002060
:1011200010B5032141650348FFF77CFB002800D080
:10113000012010BDF000002010B5FFF70AFF0028C5
:1011400000D0012010BD0000F0B50126074D0C466F
:10115000521C03E03746A740BD43641C9442F9DBB0
:1011600028408B40034398B2F0BD0000FFFF000011
:1011700072B6FEE770B5044600F0BCF80546601C88
:1011800002D004480078241800F0B4F8401BA042B4
:10119000FAD370BD00000020FCB5002301259AE0C1
:1011A00022462C469C4022406FD04E68012E05D02E
:1011B000022E03D0112E01D0122E16D186680327DD
:1011C000B4465E00B646B7406646BE43B446CF68F6
:1011D0007646B7406646374387604668A6430C7933
:1011E000E406E40F9C4034434460C6685F00032477
:1011F000BC40A446A6438C68BC403443C4604C68E1
:10120000022C01D0122C14D1DC08A4002418019463
:10121000266A5C07B646E60E0F24B4400096764672
:10122000A643B6460C69009EB44076462643019C10
:10123000266204686646B4430E79B607B60FBE4010
:10124000264306604C68E40044D59E08254CB60051
:101250003419A446246E9E07F60E0F27B740BC43F0
:1012600005273F07B84201D1002710E01E4FB842C2
:1012700001D101270BE01D4FB84201D1022706E042
:101280001B4FB84202D1032701E023E00527B740F6
:10129000274364462766134E803634684F6894436C
:1012A000FF0300D51443346074684F689443BF0350
:1012B00000D5144374600B4C26684F689643FF02B8
:1012C00000D51643266066684F689643BF0200D576
:1012D000164366605B1C0A681446DA4000D05FE77C
:1012E000FCBD00000018024000040050000800503F
:1012F000000C00500148806870470000000000208A
:1013000070B5024640325378202B1CD11378012B44
:1013100019D00123137024245470046825689D4358
:101320002560046825681E03B543256004682568A8
:101330000D4325600068016819430160202050704A
:101340000020107070BD022070BD70B502464032A2
:101350005378202B1BD11378012B18D00124147043
:101360002423537003681D68A5431D6005682B681E
:101370000F263602B3430902194329600068016849
:1013800021430160202050700020107070BD0220A9
:1013900070BD000070B5040006D025464035687861
:1013A0000026002802D005E0012070BD2E702046E6
:1013B00000F05AF924206870206801684908490043
:1013C00001600F216068090688432168086121686F
:1013D0008A680120C00382438A60E1680129A1680C
:1013E00008D021229202114322689160E16802290B
:1013F00002D005E00143F7E701212268C9025160EC
:1014000021684A680F4B1A434A602168CA688243C0
:10141000CA60616920690843A1690902084321681B
:10142000C860216AE0690843216808602068016893
:101430000122114301606664202068702663AE704B
:10144000002070BD00800002FFB50546044640350F
:10145000687881B0202878D12878012875D00120BB
:101460002870FFF747FF0746012200901923D10398
:10147000204600F053FF00283CD122206870102045
:10148000A8700026666403986062049860856663AD
:10149000618D2F48FF2903D9FF22228500903BE070
:1014A000618D218500903DE02046029900F022FFE9
:1014B00016E000F05BFF00281CD12068406A616ADA
:1014C0000870606A401C6062208D401E81B22185D8
:1014D000608D401E6085608D002801D000290CD0F1
:1014E000608D0A9900283A462046E2D100F07EFF3E
:1014F00000281CD0012005B0F0BD009700228021FB
:1015000020460A9B00F00AFF0028F3D1608DFF28D7
:1015100005D9FF222285009601231B06C4E7608DB2
:1015200020850096208D0123C2B25B06BCE72168AE
:101530002020C86121684A68064B1A404A606870DA
:10154000AE702E700020D6E7FFE70220D3E7000040
:101550000024008000E800FEFFB505460446403543
:10156000687881B0202878D12878012875D00120AA
:101570002870FFF7BFFE0746012200901923D10310
:10158000204600F0CBFE00283CD1212068701020BE
:10159000A87000266664039860620498608566639C
:1015A000618D2F48FF2903D9FF22228500903BE05F
:1015B000618D218500903DE02046029900F09AFE61
:1015C00016E000F039FF00281CD1606A216800781D
:1015D0008862606A401C6062608D401E6085208D5C
:1015E000401E80B22085618D002901D000280CD0DA
:1015F000608D0A9900283A462046E2D100F0F6FEB6
:1016000000281CD0012005B0F0BD009700228021E9
:1016100020460A9B00F082FE0028F3D1608DFF284F
:1016200005D9FF222285009601231B06C4E7608DA1
:1016300020850096208D0123C2B25B06BCE721689D
:101640002020C86121684A68064B1A404A606870C9
:10165000AE702E700020D6E7FFE70220D3E700002F
:101660000020008000E800FE10B586B0044614217A
:101670006846FEF79AFD1249206888421ED1114C37
:10168000616B012001436163616B02900140059130
:1016900003210020490203900091062012210490AA
:1016A0000191052069460007FFF776FDE16B0120F7
:1016B00040050143E163E16B0140059106B010BDB7
:1016C00000540040001002400248816802788918E6
:1016D000816070470000002010B5084800240168B0
:1016E000821511430160204600F00AF8002801D05D
:1016F000012401E000F028F8204610BD002002403F
:1017000070B50F4E002431780546002915D07D2094
:10171000C000FEF7EBFC01460A480068FEF7E6FC55
:1017200000F04EFC002808D1042D06D200222946E4
:10173000401E00F023F8756000E00124204670BDD3
:10174000000000200C00002008B50B4801680122B1
:101750001143016000681040009007484038C26B98
:1017600001040A43C263C06B08400090032040029A
:1017700000F01CFC08BD00004010024010B501F054
:10178000B7F910BD10B50F4C2168032252029143E6
:1017900001432160C11FFF39FA390ED10A480621E1
:1017A000006848430949FEF7A1FC401C02E00028FC
:1017B00005D0401E61694905F9D4002010BD032001
:1017C00010BD0000007000400C00002040420F00DF
:1017D000FEB5044600680027704D714E800355D554
:1017E00000200090F06BC00007D4F16BA805014306
:1017F000F163F16B0140012000906A480168821595
:1018000011430160FFF776FD019005E0FFF772FDDF
:101810000199401A022825D862480068C005F5D50C
:10182000E8690321090208400FD0216B81420CD0E6
:10183000E86903210902EA698843012109040A438E
:10184000EA61EA698A43EA61E861C0070FD0FFF7FD
:1018500051FD019008E0FFF74DFD0199411A5248F2
:10186000814201D9032709E0E8698007F3D5E869D7
:10187000032109028843216B0843E861009800288E
:1018800004D0F16B012000078143F1632078C00789
:1018900005D0686961688008800008436861207825
:1018A000800705D568690C218843A16808436861F1
:1018B0002078C00606D56869032189028843E1685B
:1018C000084368612088800506D56869032189047A
:1018D0008843A169084368612088400506D5686986
:1018E000032109058843E16908436861207880067F
:1018F00006D56869032109038843216908436861A3
:10190000208840040ED56869216A80008008084359
:1019100068610121206A8907884203D1F068891330
:101920000843F0602068000305D5686940218843BA
:10193000616A08436861206881021C480BD56969A7
:101940008210A36A914319436961A16A914202D14D
:10195000F1680143F160216849020AD56969E26AC8
:10196000814311436961E16A814202D1F168014317
:10197000F160208800050FD5686903218903884339
:10198000616908436861012160698903884203D164
:10199000F06889000843F0603846FEBD4010024000
:1019A0000010024000700040881300000000000199
:1019B000F8B50F46060043D04D4D28684007400F4C
:1019C000B84213D22868C008C00038432860FFF727
:1019D00091FC044605E0FFF78DFC011B4548814260
:1019E00061D828684007400FB842F4D13068424CB3
:1019F00081070DD5400704D5A068072109030843D6
:101A0000A060A0680F2109028843B1680843A06064
:101A10003078C00732D0706801280AD002280BD075
:101A200000280FD03449403103280ED0C9698907F6
:101A300004E02168890301E021688901002906DBAF
:101A40000120F8BD21684905F8E7096AEFE7A168B8
:101A5000C908C9000143A160FFF74CFC009006E0F3
:101A6000FFF748FC0099411A224881421BD8A06820
:101A7000382108407168C9008842F1D128684007C0
:101A8000400FB84217D91A480168C908C90039433C
:101A90000160FFF72FFC054607E0FFF72BFC411B19
:101AA0001448814201D90320F8BD1148006840075D
:101AB000400FB842F1D13078400706D5A068072121
:101AC00009038843F1680843A06000F031F8A16879
:101AD0003C2289091140094A515CC906C90EC84017
:101AE0000749086007480068FFF70AFEF8BD0000D4
:101AF0000020024088130000001002404C3400080F
:101B00000C0000200400002006480749006889688E
:101B1000064A4904490F8900515CC906C90EC840EC
:101B2000704700000C000020001002408C340008B8
:101B300010B5204CA068204A8006400F16D0A0683F
:101B40008006410F501001290FD0A1688906490F66
:101B5000022912D0A0688006400F042823D0A06874
:101B60008006400F032821D0002010BD20680121ED
:101B70008004400F8140104612E0E1688B07E16865
:101B80009B0F4906490F491C032B00D01046FEF756
:101B9000ADFAE1684904490E4843E168490F491C20
:101BA000FEF7A4FA10BD0120C00310BD7D20000285
:101BB00010BD0000001002400024F400F8B504003D
:101BC0007ED020783827C007EF4D002846D0A8687F
:101BD000E96838408907890F102802D008280BD0FF
:101BE00001E0032908D001206268000482420AD182
:101BF00029680143296015E0286880032ED56068B4
:101C00000028DDD02AE0052301211B0489049A4223
:101C10002A6802D10A432A60EAE782432A602868D8
:101C200088432860606800280CD0FFF763FB0646F5
:101C300004E0FFF75FFB801B642873D828688003EB
:101C4000F7D50BE0FFF756FB064604E0FFF752FB23
:101C5000801B6428F1D828688003F7D42078800797
:101C600069D5A868E96838408A070721920FC90238
:101C7000102802D0002813D001E0022A10D0E0681A
:101C8000002846D0286888432169084328602868CE
:101C9000FF21013108432860FFF72CFB06462CE0AA
:101CA0002A68520502D5E268002A89D06A687F2333
:101CB0001B029A4363691B021A436A60002800E012
:101CC0008DE00ED128688843216908432860286880
:101CD00001218004400F8140AC48FEF707FAAC496F
:101CE0000860AC480068FFF70BFD002877D122E0C0
:101CF000FFF700FB801B02289FD828684005F7D516
:101D000068687F21090288436169090208436860A5
:101D100011E02968FF20013081432960FFF7EAFACA
:101D2000064605E098E0FFF7E5FA801B022884D814
:101D300028684005F7D42078974E00072ED5A8686C
:101D40008006400F03280AD0A0690028306A16D008
:101D5000012108433062FFF7CDFA07460BE0306AF5
:101D600080071BD5A06900289FD017E0FFF7C2FAB3
:101D7000C01B022870D8306A8007F7D50EE04008F3
:101D800040003062FFF7B6FA074604E0FFF7B2FA08
:101D9000C01B022860D8306A8007F7D4207840073B
:101DA0006CD5A86800278006400F042818D0E86B7F
:101DB000C00008D4E96B012000070143E963E96B27
:101DC00001400127009175480168C90519D40168CF
:101DD000821511430160FFF78DFA00900DE083E05A
:101DE000F06980074AD5A06800287DD046E0FFF75B
:101DF00081FA0099401A02282ED868480068C00568
:101E0000F5D5A168012910D004200529F16911D068
:101E100049084900F161F1698143F161A068002836
:101E200016D0FFF767FA00900EE0F0690121084331
:101E3000F061F3E70143F161F7E7FFF75BFA00991F
:101E4000411A574881426FD8F0698007F5D50EE0F6
:101E5000FFF750FA009007E066E0FFF74BFA0099B1
:101E6000411A4F4881425FD8F0698007F5D4002FAE
:101E700004D0E86B012109078843E863E069002882
:101E80007FD0A9688906490F022953D0012636065A
:101E9000022828680DD0B0432860E86880088000D8
:101EA000E860E8683F490840E860FFF723FA044625
:101EB0003CE0B0432860FFF71DFA074604E0FFF757
:101EC00019FAC01B02282FD828688001F7D4616A4C
:101ED000206AA26A0843E16A120211430843216B97
:101EE0000843616B084300E049E0E9682E4A11406D
:101EF0000843E860286830432860E8680121090742
:101F00000843E860FFF7F6F9044604E0FFF7F2F94A
:101F1000001B022808D828688001F7D531E0FFF7B8
:101F2000E9F9001B022801D90320F8BD28688001C7
:101F3000F5D426E00128F8D0E868226A8107890FE5
:101F400091421CD17021626A0140914217D17F21D8
:101F5000A26A090201401202914210D11F214904D4
:101F6000E26A014091420AD107214906226B0140F1
:101F7000914204D1400F616B4007884201D001209B
:101F8000F8BD0020F8BD0000001002400024F4005D
:101F90000C000020040000204010024000700040AF
:101FA00088130000FFFFFEEE8C80C11103490A6810
:101FB00003235B029A4302430A607047000001401A
:101FC000094910B5401E884201D9012010BD074CB7
:101FD00060610321081F00F08BFD0020A061072035
:101FE0002061002010BD0000FFFFFF0000E000E0C6
:101FF00010B5014680310A78012A15D001220A70F5
:1020000024224A600268136814686408640014603B
:102010000122520793430022426600680360202099
:1020200048600A70104610BD022010BD70B504460D
:1020300005468034207801281AD001202070242001
:1020400060602868066802685208520002602868CA
:10205000826807235B069A430A438260284600F0A1
:10206000EBFA28680660202060600020207070BDB8
:10207000022070BD70B504460546803420780128E2
:1020800019D001202070242060602868066802684A
:1020900052085200026028688268D200D2080A43BF
:1020A0008260284600F0C8FA286806602020606038
:1020B0000020207070BD022070BD70B5040005D0F6
:1020C000254680356868002802D006E0012070BDF2
:1020D00000202870204600F027F82420686020683F
:1020E0000168490849000160204600F06DFB0128A5
:1020F000EDD0A06A002802D0204600F0CDFA20687A
:1021000041680922D20291434160206881682A22F5
:1021100091438160206801680122114301602046DB
:1021200000F020FB70BD000010B586B004461421FD
:102130006846FEF73AF81149206888421BD11048DA
:10214000C26B012149040A43C263C26B0A40059273
:10215000426B08210A434263406B084005906020AF
:1021600000900220019000200290039004906946A4
:102170000448FFF711F806B010BD0000004400400D
:1021800000100240000C0050FFB5064604468036A1
:10219000706883B00D46202860D1002D0CD00598C2
:1021A000002809D00120A1680003814207D12069DD
:1021B000002804D1E80702D0012007B0F0BD307834
:1021C00001284BD0012030700020F0602120706089
:1021D000FFF790F80190274640370598B882059898
:1021E000F8820120A1680003814202D12069002801
:1021F00004D0029500250020307015E000200290E8
:10220000F9E700228021204600F0FCFB002818D1CD
:102210000298002817D02168007888620298401C34
:102220000290F88A401EF882F88A019B00280698DE
:102230000090E6D100224021204600F0E3FB002878
:1022400008D00320B9E728882168C005C00D88623E
:10225000AD1CE6E7202070600020AEE70220ACE76E
:10226000FEE701688A69D243920701D400228A629C
:1022700000688169C943C90703D0816901221143FC
:1022800081617047F7B5044600680E468069C04317
:10229000C0062BD420272546403520688069C043DE
:1022A000800612D5701CF8D0FFF724F80299401A66
:1022B000B04201D8002EF0D1606C384360646F707A
:1022C0000020A87028700120FEBD21681020C86180
:1022D0002068C7612046FFF7C4FF20684168044AB0
:1022E00011404160606C04210843E7E70020FEBD17
:1022F00000E800FEF0B50668059C7568064F600DA5
:10230000384385438805800D110408431843204352
:1023100005437560F0BD0000FF63FF03F8B51D467F
:1023200017460E46044609E0681C07D0FEF7E2FF98
:102330000699401AA8420BD8002D09D0206881695F
:10234000304688430FD00020B842EDD00020F8BDC1
:10235000616C202001436164403460700020A070F3
:1023600020700120F8BD0120EEE70000F7B500273E
:10237000202605460446403528E02046029A019969
:10238000FFF780FF002801D00120FEBD2068806992
:10239000C043800611D420688169C943490702D42B
:1023A000218D002917D1C661206841680E4A11406D
:1023B000416067646E70AF7013E0FEF79BFF029997
:1023C000411A0198814208D8002806D02068806907
:1023D000C0434007D1D40020FEBD606C3043606430
:1023E0006E702F70D0E7000000E800FE70B5164652
:1023F0000D4604460FE0324629462046FFF742FFCD
:10240000002801D0012070BDFEF774FF801BA84298
:1024100008D8002D06D020688069C0438006EAD421
:10242000002070BD616C2020014361644034607005
:102430000020A0702070E5E770B516460D460446F2
:1024400011E0324629462046FFF71CFF002801D044
:10245000012070BD681C06D0FEF74CFF801BA8420F
:1024600008D8002D06D020688069C0438007E8D4D2
:10247000002070BD616C20200143616440346070B5
:102480000020A0702070E3E708B50F48426B0421DC
:102490000A434263426B0A400092426B20210A4386
:1024A0004263426B0A400092416B01221143416337
:1024B000416B11400091426B08210A434263406B1B
:1024C0000840009008BD00000010024010B51348FD
:1024D000114901601249416000218160016141613F
:1024E00081610122C161C2600162FEF753FF0028D1
:1024F00001D0FEF73DFE00210848FEF701FF00284D
:1025000001D0FEF735FE00210448FEF71EFF00282B
:1025100001D0FEF72DFE10BD005400401400002035
:10252000BC7D701010B5184816490160E1214902C0
:10253000416000218160C16001618161C16101620E
:102540000C22416242618162FFF7B7FD002801D091
:10255000FEF70EFE00210C48FFF78CFD002801D08D
:10256000FEF706FE00210848FFF760FD002801D0B5
:10257000FEF7FEFD0448FFF73BFD002801D0FEF703
:10258000F7FD10BD0044004060000020FEE77047EA
:10259000704710B5FFF798F810BD30B59FB03821DF
:1025A0006846FDF702FE00241B941C941D94342100
:1025B0000EA81E94FDF7F9FD01204002FFF7E2F896
:1025C0000225E801039000954020059008200A901C
:1025D00080030B90079500020C900895000104946D
:1025E0000D9009946846FFF7E9FA002801D072B609
:1025F000FEE707201B901D9402211C951E941BA82A
:10260000FFF7D6F9002801D072B6FEE722200E901F
:10261000109412940EA8FFF7DBF8002801D072B6D0
:10262000FEE71FB030BD000001200249C0068860EF
:102630007047000000ED00E0F0B513A106C985B0B9
:102640000192009112A206CA039202910446416EC1
:102650004034002915D000688168806809014D0F59
:10266000400F02AE315C6F46385CC000FDF73EFDA6
:102670006085785D715DC000FDF738FD208505B08F
:10268000F0BD01206085F9E70101010307010000A9
:10269000080402040801010110B5018DC90707D023
:1026A00001684A6801235B049A43C36A1A434A607B
:1026B000018D890707D501684A6801231B049A43E5
:1026C000036B1A434A60018D490707D501684A68C0
:1026D00001239B049A43436B1A434A60018D090707
:1026E00007D501684A680123DB039A43836B1A43C9
:1026F0004A60018DC90607D50268916801231B0352
:102700009943C36B19439160018D890607D5016810
:102710008A6801235B039A43036C1A438A60018D24
:10272000490612D503685A6801210905446C8A4399
:1027300022435A60426C8A4207D1026851680323DF
:102740005B059943836C19435160018D090607D5D8
:1027500001684A680123DB04C06C9A4302434A6063
:1027600010BD0000FEB50546002680350446EE602B
:10277000FEF7C0FD019020680068124F000709D5E0
:1027800001210097002249052046019B00F03AF9FB
:1027900000280DD12068006840070BD50121009763
:1027A000002289052046019B00F02CF9002801D069
:1027B0000320FEBD20206860A860E6662E70002021
:1027C000FEBD0000FFFFFF01F8B504462269A168C5
:1027D000E5691143626900262A431143626E00686D
:1027E0000A437C4B01687C4D2940114301602068FD
:1027F0004168032212039143E2681143416021685A
:10280000A069994201D0226A10438A68734D2A4018
:1028100002438A602068C16A626A0909090111439A
:10282000C1626F4922686F488A420AD140698007B5
:10283000800F1AD001283DD0022839D0032827D193
:1028400024E069498A420AD140690C2108400CD031
:1028500004282FD008282BD00C2819D116E0634962
:102860008A4202D062498A4201D1002111E09A4293
:102870000ED141690320800201400AD0012080026C
:10288000091A17D0091A13D0814201D1082100E09A
:1028900010210120574D584FC0039A423BD10029C7
:1028A0000AD0022911D0042909D008297ED10BE0D1
:1028B0000221EEE70421ECE7FFF726F901E0FFF73C
:1028C00037F9050001D17AE00546606A4000395ABF
:1028D00028460091FDF70AFC676879007918814263
:1028E00069D83903814266D3002328461946009AE5
:1028F000FDF712FC020E09020302780811431818B2
:10290000002251413A460023FDF706FC032109024B
:10291000411A3A4A4DE0E269824228D1002906D0A4
:10292000022907D0042907D0082944D108E0FFF77D
:10293000EBF803E0284603E0FFF7FAF800283ED062
:10294000616A4900795AFDF7D1FB616840004A0885
:102950008018FDF7CBFB80B202462949103A8A4223
:1029600029D8491C01400007400F084325E00029F1
:1029700006D0022907D0042907D008291BD108E076
:10298000FFF7C2F803E0284603E0FFF7D1F800287C
:1029900015D0616A4900795AFDF7A8FB61684A08B9
:1029A0008018FDF7A3FB80B2014600E003E0144A63
:1029B0001039914201D9012601E02168C860204602
:1029C0000121403041850185002020676067304645
:1029D000F8BD000000800040F369FFCFFFF4FF1155
:1029E00000380140401002400044004000480040D0
:1029F000004C00400024F40032340008FFFC0F00BB
:102A0000EFFF0000FFB581B005460F460446803554
:102A10000A9E38E0701C36D0FEF76CFC0499401A10
:102A2000B04221D8002E1FD02068016849072AD55E
:102A3000C069C043000526D401202168C002086295
:102A400020680168FF22A1329143016020688168FB
:102A500049084900816020206860A860E860002083
:102A60002870032005B0F0BD20680168FF22A13264
:102A700091430160206881684908490081602020F5
:102A80006860A860EBE72068C1693846884305D0D4
:102A9000002103988142BDD00020E3E70121F8E73F
:102AA0000FB410B503A9044B044A029800F00CF9C6
:102AB00010BC08BC04B01847013400081000002006
:102AC0002021020C01D010211046020A01D010462C
:102AD0000839020901D01046091F820801D01046AA
:102AE000891E420801D0881E7047081A70470000EE
:102AF0008307FF22DB0E9A408907090E99400028C0
:102B000008DB830809489B001B181868904308439A
:102B1000186070470007000F0838830804489B00BE
:102B20001B18D86990430843D861704700E400E05F
:102B300000ED00E002E008C8121F08C1002AFAD127
:102B400070477047002001E001C1121F002AFBD12D
:102B500070470000F0B51FB486B00998089A030DBD
:102B60000021024314D05148514A1818504305140B
:102B70001198012810981AD0281A401C00264D4F91
:102B80004D49009601910490002812DA444211E068
:102B90001198012449A3012801D11098C143069836
:102BA000119A84600360C26041600BB0F0BD404286
:102BB000E4E70446210500203F4A001C51410391EF
:102BC000029012E0E00707D032463B460199009898
:102BD000FDF7A8FB0191009032463B46104619468E
:102BE000FDF7A0FB06460F466410002CEAD10498BE
:102BF000039B0028029A0999089806DAFDF792FBD0
:102C0000019B009AFDF78EFB05E0FDF7F3FB019BAE
:102C1000009AFDF7EFFB04460E460022284BFDF715
:102C2000CBFC03D80020C043014607E00022254B1F
:102C300020463146FDF7C4FAFDF7C2FD102409E035
:102C4000002C0ADB0A220023FDF766FA079B3032CC
:102C50001A55641E02460A43F2D11122641C079BD6
:102C6000121B1C19119B012B03D0012308430ED109
:102C70000AE0084304D0112010900020119077E75B
:102C80001098151A6D1E0BE01098824202DD002389
:102C90006D1C03E0824201DA00236D1E002BEED092
:102CA000069811998260C16030C07EE701FCFFFF89
:102CB000104D0000000014400000F03F3000000004
:102CC0000000F0430000E03FFFB597B00646002546
:102CD00018E2252877D100242746FD49049400E016
:102CE0000443761C32780120203A90400842F7D104
:102CF00030782A280ED0022230780146303909294E
:102D000016D804990A235943303940181443761CC5
:102D10000490F1E7189802C804911890002904DA89
:102D20000120400304434842049002200443761CDF
:102D300030782E2814D1042004437078761C2A2879
:102D400009D11898761C80C8189009E00A214F43D1
:102D5000303FC719761C3078014630390929F5D93A
:102D600030786C2810D006DC4C281AD068280ED099
:102D70006A2817D104E0742813D07A2812D110E001
:102D80000120400504430CE00121090501E0032175
:102D900009050C437178814203D1012000052418F4
:102DA000761C761C3078119066280BD013DC5828DE
:102DB0007DD009DC00287BD04528F6D04628F4D009
:102DC00047281AD1A5E118E0632835D0642870D0CF
:102DD000652812D19DE170286CD008DC6728F1D0FD
:102DE00069287BD06E280DD06F2806D1BAE07328F1
:102DF0002ED0752871D0782859D01A9A19999047F1
:102E00006D1C7EE16002400F022809D003280DD01E
:102E10000428189801680DD00D60001D189070E10D
:102E20001898EA1701680D604A60F6E7189801687B
:102E30000D80F2E70D70F0E718986A46017811727C
:102E4000001D18900020507202A80090012005E09B
:102E5000189802C8189000200091C04361070DD552
:102E6000002101E00199491C0191B94212DA814225
:102E7000F8DB009A515C0029F4D10BE0002101E05D
:102E80000199491C01918142FADB019A0099895C00
:102E90000029F5D1019904981A9B471A2146384612
:102EA000199A00F097FA0199401945180BE04FE084
:102EB0002CE113E04EE0009800990078491C009145
:102EC0001A9A199990470198401E0190401CF2D11E
:102ED000214638461A9B199A10E137E00A20002152
:102EE000009001916002410F022907D0189A01CA8F
:102EF0001892C2179446032908D00AE01898C01DFA
:102F0000C108C90005C91891944607E000B2C2176C
:102F10009446042902D140B2C1178C460022614672
:102F2000944506DA0A460021404291418C462D2103
:102F300002E0210504D52B216A461173012103E02B
:102F4000E10701D02021F7E7029155E00A200AE0CD
:102F5000102008E01020009000210420044301917B
:102F6000082703E008200021019100906002410F32
:102F7000022907D0189A01CA189200229446032900
:102F800008D008E01898C01DC108C90005C91891EB
:102F9000944603E080B2042900D1C0B2002102911E
:102FA000210729D51199702906D0009A1021019B7B
:102FB0004A401A4305D00EE040216A4611730121B0
:102FC00008E06146014306D030216A461173119929
:102FD000517302210291009A0821019B4A401A4331
:102FE0000AD16146014301D1610705D530216A4606
:102FF000117301217F1E02911199582904D035A126
:103000000E910DA90D910DE037A1F9E76146019BE5
:10301000009AFDF781F80E9B8C469B5C0D9A521E20
:103020000D92137061460143F0D10D9805A9081A5D
:1030300020300190600703D501200004844300E0A4
:1030400001270198874201DD381A00E0002001992C
:1030500000904118029809180498401A0490E0035F
:1030600006D421461A9B199A049800F0B3F9451921
:10307000002706E003A81A9AC05D199990476D1CB5
:103080007F1C02988742F5DBE0030CD521461A9B92
:10309000199A049800F09EF9451904E01A9A302014
:1030A000199990476D1C0099481E00900029F5DC85
:1030B00008E00D980D990078491C0D911A9A1999FC
:1030C00090476D1C0199481E01900029F1DC63E1D5
:1030D00009280100303132333435363738396162EE
:1030E00063646566000000003031323334353637B2
:1030F00038394142434445460000000000F05AF987
:103100004519761C3078002800D0E2E528461BB02F
:10311000F0BD600700D406271898C01DC108C9007B
:1031200048680A680831C30FDB071891190001D0FD
:103130009CA108E0210501D59BA104E0E10701D095
:103140009AA100E09AA1430011985B0810916528AC
:103150000CD006DC452809D046281DD0472841D18F
:1031600041E0662818D067283CD13CE00021112FAF
:1031700001DB112000E0781C0191009008A911A842
:10318000FFF7E8FC139905910021119A15927F1C15
:1031900012980197009150E00120C0070390012090
:1031A000019008A9009711A8FFF7D4FC139A14996D
:1031B00005920022119B009212981593059A019294
:1031C000002901D0104602E0791C40180190381AFD
:1031D00001D5019804E04042401E0090781C019007
:1031E000C01B029043E0012F00DA01270021112FBC
:1031F00001DD112000E038460191009008A911A8D6
:10320000FFF7A8FC13990591119A002112981592C5
:103210000091019721070CD40599B94201DB01996E
:1032200000E00191012904DD159A491E515C302905
:1032300006D0B84201DA011D05DA0121029115E03C
:103240000199491EEDE7002805DC0099411800911D
:103250000199091A03E0019A411C914200DD019194
:103260000099401A401C02900120C00703902007DB
:1032700006D402990198814202DB0020C0430290EB
:1032800000206946C87707AF012103980337C907B3
:10329000884224D0022011902B20129003980028FD
:1032A0000CDA404203902D20129007E00A21039887
:1032B000FCF71CFF30317F1E039039701199481EB6
:1032C00011900029F2DC03980028EFD1791E1298A2
:1032D00008703078202108404530BF1E387006A89D
:1032E000C01BC01D039010980078002800D001205A
:1032F000019941180298C0170918039809180498F1
:10330000401A401E0490E00306D421461A9B199AE5
:10331000049800F05FF8451910980078002803D051
:103320001A9A199990476D1CE00324D521461A9BDF
:10333000199A049800F04EF845191CE000980028EE
:1033400007DB00990598884203DD1598405C1999C0
:1033500001E0199930201A9A904700986D1C401C82
:1033600000900298401E0290002804D11A9A2E2044
:10337000199990476D1C0199481E01900029DDDCC8
:1033800005E038781A9A7F1C199990476D1C0399AB
:10339000481E03900029F4DC21461A9B199A0498D0
:1033A000ACE600002D0000002B0000002000000013
:1033B00000000000F8B5044600251E4617468804A4
:1033C00004D405E039462020B0476D1C641EF9D5B1
:1033D0002846F8BDFFB50446002581B01E46C80347
:1033E00001D5302700E02027880404D505E03846C1
:1033F0000399B0476D1C641EF9D5284605B0F0BD91
:1034000013B57D23DB00012269460248FEF7BCFEAE
:1034100000981CBD60000020FEF75EF9FFF7BDF8C4
:10342000FFF732F8FFF752F8FFF77CF8FDF7A6FD3B
:10343000FEE7010002000400060008000A000C007C
:10344000100020004000800000010000000000008B
:10345000000000000000000000000000000000006C
:10346000000000000000000000000000010000005B
:10347000020000000300000004000000060000003D
:103480000700000008000000090000000000000024
:10349000000000000000000000000000010000002B
:1034A000020000000300000004000000CC3400080B
:1034B0000000002014000000342B0008E034000855
:1034C00014000020AC050000442B0008010000009F
:1034D00004000000000000000024F40000000000D0
:04000005080000BD32
:00000001FF
