:020000040800F2
:1000000088050020D100000849170008E9130008FE
:1000100000000000000000000000000000000000E0
:10002000000000000000000000000000531B00085A
:100030000000000000000000511B0008551B0008D4
:10004000E3000008E3000008E3000008E300000804
:10005000E300000851020008E3000008E300000884
:10006000E3000008E3000008E3000008E3000008E4
:10007000E3000008E3000008E3000008E3000008D4
:10008000E3000008E3000008E3000008E3000008C4
:10009000E3000008E3000008E3000008E3000008B4
:1000A000E3000008E3000008E3000008E3000008A4
:1000B000E3000008E3000008E30000080348854669
:1000C00000F0A0F800480047D92300088805002068
:1000D0000448804704480047FEE7FEE7FEE7FEE7E6
:1000E000FEE7FEE7E91B0008BD00000830B50B463F
:1000F000014600202022012409E00D46D5409D4202
:1001000005D31D469540491B254695404019154687
:10011000521E002DF1DC30BDF0B51FB406460020A4
:1001200082B005464024019100901BE001992246CF
:100130000F46304600F054F8049A059B801A994106
:1001400010D310461946224600F03AF8361A8F416D
:100150000197224601200021009F00F031F8381855
:100160004D4100902046641E0028DFDC019B009872
:100170002946324607B0F0BD03460B439B0703D028
:1001800009E008C9121F08C0042AFAD203E00B785C
:100190000370401C491C521EF9D27047D2B201E0D4
:1001A0000270401C491EFBD270470022F6E710B5D2
:1001B00013460A4604461946FFF7F0FF204610BDD5
:1001C00010B5202A04DB0146203A9140002010BDE2
:1001D000914020239C1A0346E3401943904010BDF0
:1001E00010B5202A04DB0846203AD040002110BD7B
:1001F0000B46D340D0402024A21A91400843194610
:1002000010BD0000064C0125064E05E0E36807CC52
:100210002B430C3C98471034B442F7D3FFF752FFFE
:100220006C2400088C240008F0B50126074D0C460C
:10023000521C03E03746A740BD43641C9442F9DBDF
:1002400028408B40034398B2F0BD0000FFFF000040
:1002500010B5022000F03CF805200221000700F054
:10026000FBF8002802D1024801F0AEFA10BD0000F0
:100270001400002072B6FEE710B5102903D305A0C4
:1002800001F0EEFEFEE7008801228A40104000D017
:10029000012010BDE68F90E58F96E58F91E7949F42
:1002A000E99499E8AFAF000070B5044600F0DAF8C1
:1002B0000546601C02D004480078241800F0D2F8EB
:1002C000401BA042FAD370BD000000207047000020
:1002D00070B5084D0446E868204203D0EC60204623
:1002E00000F00AF82869204203D02C612046FFF76D
:1002F000EDFF70BD0018024070470000FCB5002300
:1003000001259AE022462C469C4022406FD04E6840
:10031000012E05D0022E03D0112E01D0122E16D19F
:1003200086680327B4465E00B646B7406646BE43BD
:10033000B446CF687646B74066463743876046681E
:10034000A6430C79E406E40F9C4034434460C6683D
:100350005F000324BC40A446A6438C68BC403443E1
:10036000C4604C68022C01D0122C14D1DC08A4000B
:1003700024180194266A5C07B646E60E0F24B440A2
:1003800000967646A643B6460C69009EB440764673
:100390002643019C266204686646B4430E79B6077C
:1003A000B60FBE40264306604C68E40044D59E0864
:1003B000254CB6003419A446246E9E07F60E0F276E
:1003C000B740BC4305273F07B84201D1002710E0E2
:1003D0001E4FB84201D101270BE01D4FB84201D199
:1003E000022706E01B4FB84202D1032701E023E0B9
:1003F0000527B740274364462766134E8036346886
:100400004F689443FF0300D51443346074684F6809
:100410009443BF0300D5144374600B4C26684F68A7
:100420009643FF0200D51643266066684F689643E0
:10043000BF0200D5164366605B1C0A681446DA40AA
:1004400000D05FE7FCBD000000180240000400502F
:1004500000080050000C00500069084000D0012046
:1004600070470000014880687047000000000020CD
:1004700070B5024640325378202B1CD11378012BE3
:1004800019D00123137024245470046825689D43F7
:100490002560046825681E03B54325600468256847
:1004A0000D432560006801681943016020205070E9
:1004B0000020107070BD022070BD70B50246403241
:1004C0005378202B1BD11378012B18D001241470E2
:1004D0002423537003681D68A5431D6005682B68BD
:1004E0000F263602B34309021943296000680168E8
:1004F00021430160202050700020107070BD022048
:1005000070BD000070B5040006D0254640356878FF
:100510000026002802D005E0012070BD2E70204684
:1005200000F05AF9242068702068016849084900E1
:1005300001600F216068090688432168086121680D
:100540008A680120C00382438A60E1680129A168AA
:1005500008D021229202114322689160E1680229A9
:1005600002D005E00143F7E701212268C90251608A
:1005700021684A680F4B1A434A602168CA6882435F
:10058000CA60616920690843A169090208432168BA
:10059000C860216AE0690843216808602068016832
:1005A0000122114301606664202068702663AE70EA
:1005B000002070BD00800002FFB5054604464035AE
:1005C000687881B0202878D12878012875D001205A
:1005D0002870FFF747FF0746012200901923D10337
:1005E000204600F05FFF00283CD1222068701020D8
:1005F000A87000266664039860620498608566634C
:10060000618D2F48FF2903D9FF22228500903BE00E
:10061000618D218500903DE02046029900F02EFF7B
:1006200016E000F067FF00281CD12068406A616A6C
:100630000870606A401C6062208D401E81B2218576
:10064000608D401E6085608D002801D000290CD08F
:10065000608D0A9900283A462046E2D100F08AFFD0
:1006600000281CD0012005B0F0BD00970022802199
:1006700020460A9B00F016FF0028F3D1608DFF286A
:1006800005D9FF222285009601231B06C4E7608D51
:1006900020850096208D0123C2B25B06BCE721684D
:1006A0002020C86121684A68064B1A404A60687079
:1006B000AE702E700020D6E7FFE70220D3E70000DF
:1006C0000024008000E800FEFFB5054604464035E2
:1006D000687881B0202878D12878012875D0012049
:1006E0002870FFF7BFFE0746012200901923D103AF
:1006F000204600F0D7FE00283CD121206870102051
:10070000A87000266664039860620498608566633A
:10071000618D2F48FF2903D9FF22228500903BE0FD
:10072000618D218500903DE02046029900F0A6FEF3
:1007300016E000F045FF00281CD1606A21680078AF
:100740008862606A401C6062608D401E6085208DFA
:10075000401E80B22085618D002901D000280CD078
:10076000608D0A9900283A462046E2D100F002FF47
:1007700000281CD0012005B0F0BD00970022802188
:1007800020460A9B00F08EFE0028F3D1608DFF28E2
:1007900005D9FF222285009601231B06C4E7608D40
:1007A00020850096208D0123C2B25B06BCE721683C
:1007B0002020C86121684A68064B1A404A60687068
:1007C000AE702E700020D6E7FFE70220D3E70000CE
:1007D0000020008000E800FE10B586B00446142119
:1007E0006846FFF7E2FC1249206888421ED1114C8E
:1007F000616B012001436163616B029001400591CF
:100800000321032049020390009106201221049045
:100810000191052069460007FFF770FDE16B01209B
:1008200040050143E163E16B0140059106B010BD55
:100830000054004000100240024881680278891884
:10084000816070470000002010B50848002401684E
:10085000821511430160204600F00AF8002801D0FB
:10086000012401E000F028F8204610BD00200240DD
:1008700070B50F4E002431780546002915D07D2033
:10088000C000FFF733FC01460A480068FFF72EFC62
:1008900000F05AFC002808D1042D06D20022294677
:1008A000401E00F02FF8756000E00124204670BD66
:1008B000000000200C00002008B50B480168012250
:1008C0001143016000681040009007484038C26B37
:1008D00001040A43C263C06B084000900320400239
:1008E00000F028FC08BD000040100240002805DB95
:1008F000C106C90E01208840014908607047000008
:1009000000E100E010B501F0BBFB10BD10B50F4CCD
:10091000216803225202914301432160C11FFF3924
:10092000FA390ED10A480621006848430949FFF701
:10093000DDFB401C02E0002805D0401E616949052E
:10094000F9D4002010BD032010BD0000007000404D
:100950000C00002040420F00FEB50446006800274E
:10096000704D714E800355D500200090F06BC00093
:1009700007D4F16BA8050143F163F16B014001203D
:1009800000906A480168821511430160FFF76AFD13
:10099000019005E0FFF766FD0199401A022825D86D
:1009A00062480068C005F5D5E869032109020840DE
:1009B0000FD0216B81420CD0E86903210902EA695A
:1009C0008843012109040A43EA61EA698A43EA612A
:1009D000E861C0070FD0FFF745FD019008E0FFF781
:1009E00041FD0199411A5248814201D9032709E08A
:1009F000E8698007F3D5E869032109028843216B80
:100A00000843E8610098002804D0F16B012000073A
:100A10008143F1632078C00705D068696168800868
:100A20008000084368612078800705D568690C213B
:100A30008843A168084368612078C00606D56869C4
:100A4000032189028843E1680843686120888005A2
:100A500006D56869032189048843A1690843686150
:100A60002088400506D56869032109058843E169A6
:100A7000084368612078800606D568690321090368
:100A80008843216908436861208840040ED568695D
:100A9000216A80008008084368610121206A890773
:100AA000884203D1F06889130843F060206800038E
:100AB00005D5686940218843616A084368612068F8
:100AC00081021C480BD569698210A36A91431943BE
:100AD0006961A16A914202D1F1680143F160216824
:100AE00049020AD56969E26A814311436961E16A91
:100AF000814202D1F1680143F160208800050FD5E1
:100B00006869032189038843616908436861012199
:100B100060698903884203D1F06889000843F06066
:100B20003846FEBD401002400010024000700040F8
:100B30008813000000000001F8B50F46060043D0FE
:100B40004D4D28684007400FB84213D22868C008AE
:100B5000C00038432860FFF785FC044605E0FFF736
:100B600081FC011B4548814261D828684007400F3D
:100B7000B842F4D13068424C81070DD5400704D506
:100B8000A068072109030843A060A0680F2109029B
:100B90008843B1680843A0603078C00732D07068DD
:100BA00001280AD002280BD000280FD03449403148
:100BB00003280ED0C969890704E02168890301E090
:100BC00021688901002906DB0120F8BD216849055B
:100BD000F8E7096AEFE7A168C908C9000143A16005
:100BE000FFF740FC009006E0FFF73CFC0099411A3B
:100BF000224881421BD8A068382108407168C9008A
:100C00008842F1D128684007400FB84217D91A48E6
:100C10000168C908C90039430160FFF723FC054694
:100C200007E0FFF71FFC411B1448814201D9032054
:100C3000F8BD114800684007400FB842F1D1307844
:100C4000400706D5A068072109038843F1680843D7
:100C5000A06000F031F8A1683C2289091140094ADE
:100C6000515CC906C90EC8400749086007480068BA
:100C7000FFF7FEFDF8BD00000020024088130000D1
:100C8000001002400C2400080C000020040000208A
:100C90000648074900688968064A4904490F8900DF
:100CA000515CC906C90EC840704700000C00002006
:100CB000001002404C24000810B5204CA068204AC7
:100CC0008006400F16D0A0688006410F5010012901
:100CD0000FD0A1688906490F022912D0A0688006AA
:100CE000400F042823D0A0688006400F032821D09D
:100CF000002010BD206801218004400F8140104673
:100D000012E0E1688B07E1689B0F4906490F491C17
:100D1000032B00D01046FFF7E9F9E1684904490EBA
:100D20004843E168490F491CFFF7E0F910BD012075
:100D3000C00310BD7D20000210BD00000010024065
:100D40000024F400F8B504007ED020783827C007CE
:100D5000EF4D002846D0A868E96838408907890F18
:100D6000102802D008280BD001E0032908D0012068
:100D70006268000482420AD129680143296015E0B3
:100D8000286880032ED560680028DDD02AE005237E
:100D900001211B0489049A422A6802D10A432A606D
:100DA000EAE782432A602868884328606068002850
:100DB0000CD0FFF757FB064604E0FFF753FB801B00
:100DC000642873D828688003F7D50BE0FFF74AFB47
:100DD000064604E0FFF746FB801B6428F1D828682C
:100DE0008003F7D42078800769D5A868E96838407F
:100DF0008A070721920FC902102802D0002813D0B9
:100E000001E0022A10D0E068002846D02868884314
:100E10002169084328602868FF21013108432860C0
:100E2000FFF720FB06462CE02A68520502D5E2684F
:100E3000002A89D06A687F231B029A4363691B02D8
:100E40001A436A60002800E08DE00ED128688843CC
:100E5000216908432860286801218004400F8140EF
:100E6000AC48FFF743F9AC490860AC480068FFF7AD
:100E7000FFFC002877D122E0FFF7F4FA801B02285C
:100E80009FD828684005F7D568687F210902884304
:100E9000616909020843686011E02968FF20013098
:100EA00081432960FFF7DEFA064605E098E0FFF788
:100EB000D9FA801B022884D828684005F7D4207806
:100EC000974E00072ED5A8688006400F03280AD049
:100ED000A0690028306A16D0012108433062FFF76C
:100EE000C1FA07460BE0306A80071BD5A0690028CD
:100EF0009FD017E0FFF7B6FAC01B022870D8306AFF
:100F00008007F7D50EE0400840003062FFF7AAFAEC
:100F1000074604E0FFF7A6FAC01B022860D8306A33
:100F20008007F7D4207840076CD5A8680027800692
:100F3000400F042818D0E86BC00008D4E96B0120EA
:100F400000070143E963E96B0140012700917548FF
:100F50000168C90519D40168821511430160FFF7C2
:100F600081FA00900DE083E0F06980074AD5A0681F
:100F700000287DD046E0FFF775FA0099401A022854
:100F80002ED868480068C005F5D5A168012910D0A1
:100F900004200529F16911D049084900F161F1697E
:100FA0008143F161A068002816D0FFF75BFA00903A
:100FB0000EE0F06901210843F061F3E70143F161BC
:100FC000F7E7FFF74FFA0099411A574881426FD867
:100FD000F0698007F5D50EE0FFF744FA009007E0CE
:100FE00066E0FFF73FFA0099411A4F4881425FD807
:100FF000F0698007F5D4002F04D0E86B01210907C0
:101000008843E863E06900287FD0A9688906490F12
:10101000022953D001263606022828680DD0B04395
:101020002860E86880088000E860E8683F49084078
:10103000E860FFF717FA04463CE0B0432860FFF78A
:1010400011FA074604E0FFF70DFAC01B02282FD85B
:1010500028688001F7D4616A206AA26A0843E16ABD
:10106000120211430843216B0843616B084300E0FF
:1010700049E0E9682E4A11400843E8602868304397
:101080002860E868012109070843E860FFF7EAF9EA
:10109000044604E0FFF7E6F9001B022808D8286898
:1010A0008001F7D531E0FFF7DDF9001B022801D9F7
:1010B0000320F8BD28688001F5D426E00128F8D087
:1010C000E868226A8107890F91421CD17021626A07
:1010D0000140914217D17F21A26A09020140120208
:1010E000914210D11F214904E26A014091420AD184
:1010F00007214906226B0140914204D1400F616BE8
:101100004007884201D00120F8BD0020F8BD000052
:10111000001002400024F4000C0000200400002015
:10112000401002400070004088130000FFFFFEEEF8
:101130008C80C11103490A6803235B029A4302436E
:101140000A60704700000140094910B5401E8842FE
:1011500001D9012010BD074C60610321081F00F078
:101160008FFF0020A06107202061002010BD00003B
:10117000FFFFFF0000E000E010B5014680310A7873
:10118000012A15D001220A7024224A6002681368DD
:10119000146864086400146001225207934300221B
:1011A000426600680360202048600A70104610BD47
:1011B000022010BD70B50446054680342078012811
:1011C0001AD0012020702420606028680668026818
:1011D0005208520002602868826807235B069A431F
:1011E0000A438260284600F007FD28680660202038
:1011F00060600020207070BD022070BD70B5044694
:10120000054680342078012819D001202070242040
:101210006060286806680268520852000260286808
:101220008268D200D2080A438260284600F0E4FCBB
:1012300028680660202060600020207070BD0220B9
:1012400070BD70B5040005D025468035686800285B
:1012500002D006E0012070BD00202870204600F07A
:1012600027F8242068602068016849084900016067
:10127000204600F089FD0128EDD0A06A002802D0A8
:10128000204600F0E9FC206841680922D20291431F
:101290004160206881682A2291438160206801684A
:1012A000012211430160204600F03CFD70BD0000AA
:1012B00010B586B0044614216846FEF776FF114942
:1012C000206888421CD11048C26B012149040A439E
:1012D000C263C26B0A400592426B08210A43426313
:1012E000406B084005906020009002200021019092
:1012F000032002910491039069460448FEF7FEFF23
:1013000006B010BD0044004000100240000C005028
:10131000FFB5064604468036706883B00D46202827
:1013200060D1002D0CD00598002809D00120A168BB
:101330000003814207D12069002804D1E80702D0C8
:10134000012007B0F0BD307801284BD0012030706B
:101350000020F06021207060FFF784F8019027469C
:1013600040370598B8820598F8820120A1680003EB
:10137000814202D12069002804D002950025002076
:10138000307015E000200290F9E70022802120460D
:1013900000F018FE002818D10298002817D0216804
:1013A000007888620298401C0290F88A401EF882F9
:1013B000F88A019B002806980090E6D1002240217F
:1013C000204600F0FFFD002808D00320B9E7288858
:1013D0002168C005C00D8862AD1CE6E72020706062
:1013E0000020AEE70220ACE7FEE701688A69D2433D
:1013F000920701D400228A6200688169C943C90743
:1014000003D081690122114381617047F7B5044619
:1014100000680E468069C043C0062BD420272546AD
:10142000403520688069C043800612D5701CF8D012
:10143000FFF718F80299401AB04201D8002EF0D1F7
:10144000606C384360646F700020A87028700120C1
:10145000FEBD21681020C8612068C7612046FFF7E3
:10146000C4FF20684168044A11404160606C042157
:101470000843E7E70020FEBD00E800FEF0B506687F
:10148000059C7568064F600D384385438805800DBF
:10149000110408431843204305437560F0BD000064
:1014A000FF63FF03F8B51D4617460E46044609E0E4
:1014B000681C07D0FEF7D6FF0699401AA8420BD841
:1014C000002D09D020688169304688430FD0002064
:1014D000B842EDD00020F8BD616C2020014361646A
:1014E000403460700020A07020700120F8BD012001
:1014F000EEE70000F7B500272026054604464035F4
:1015000028E02046029A0199FFF780FF002801D0C9
:101510000120FEBD20688069C043800611D4206888
:101520008169C943490702D4218D002917D1C661B9
:10153000206841680E4A1140416067646E70AF7068
:1015400013E0FEF78FFF0299411A0198814208D8F3
:10155000002806D020688069C0434007D1D400200D
:10156000FEBD606C304360646E702F70D0E7000089
:1015700000E800FE70B516460D4604460FE0324600
:1015800029462046FFF742FF002801D0012070BD08
:10159000FEF768FF801BA84208D8002D06D02068FF
:1015A0008069C0438006EAD4002070BD616C2020B1
:1015B00001436164403460700020A0702070E5E752
:1015C00070B516460D46044611E0324629462046BF
:1015D000FFF71CFF002801D0012070BD681C06D059
:1015E000FEF740FF801BA84208D8002D06D02068D7
:1015F0008069C0438007E8D4002070BD616C202062
:1016000001436164403460700020A0702070E3E703
:1016100000B587B014216846FEF7C7FD1848426B35
:1016200004210A434263426B0A400592426B202127
:101630000A434263426B0A400592426B01210A430E
:101640004263426B0A400592436B08221343436393
:10165000406B0291104005900220009009480190D3
:10166000052069460007FEF749FE002211460520C5
:10167000FFF748F90520FFF739F907B000BD000072
:10168000001002400000111010B51348114901600C
:101690001249416000218160016141618161012243
:1016A000C161C2600162FEF72DFF002801D0FEF784
:1016B000E1FD00210848FEF7DBFE002801D0FEF71F
:1016C000D9FD00210448FEF7F8FE002801D0FEF7FE
:1016D000D1FD10BD00540040AC000020732160001B
:1016E00010B5184816490160E12149024160002106
:1016F0008160C16001618161C16101620C2241624E
:1017000042618162FFF79DFD002801D0FEF7B2FD26
:1017100000210C48FFF772FD002801D0FEF7AAFD5A
:1017200000210848FFF746FD002801D0FEF7A2FD82
:101730000448FFF721FD002801D0FEF79BFD10BDF6
:1017400000440040F8000020FEE7F7B582B07D2598
:1017500004460021ED00403400950191217D16469C
:1017600008304900012303AA0746FEF7ADFF002811
:1017700009D10095207D0223410001AA3846FEF7D9
:101780001BFF002802D0012005B0F0BD684680880C
:1017900040BA30800020F7E71CB5002301936B4668
:1017A0001971110A59719A717D21C9000091542152
:1017B000095C0323490001AA0830FEF785FF0028D1
:1017C00000D001201CBD000070B5044600F0A6F852
:1017D0002046803001680025012903D1056005A05D
:1017E00000F03EFCE06F012803D106A0E56700F0A1
:1017F00037FC70BDE4BD8EE4B8ADE696AD200D0AB1
:1018000000000000E9AB98E4B8ADE696AD200D0A03
:101810000000000070B5314C02260520268000072C
:10182000606020462A222E490830FEF7A5FC2C4D88
:10183000688D6086E86A6063286BA063294620464D
:101840000D2234313C30FEF797FC294640314A786E
:1018500020464030427289788172696CE164A96CDB
:10186000216545210175C821E1651E4921660C21CC
:10187000A1660121E1660686254600208035A86024
:1018800028826960E860A882E882204600F09AF821
:10189000204600F081F8204600F068F80120FEF7AD
:1018A00003FDA88A1049884212D1E88A0F4988426C
:1018B0000ED10FA000F0D4FB204600F094F8204693
:1018C000216E00F011F92046E16D00F027F970BD9E
:1018D0000CA000F0C5FB012070BD0000140000202A
:1018E000AC00002060EA0000495400000130000014
:1018F000E8AF86E588ABE588B04F505433303031DF
:101900000D0A0000E69CAAE8AF86E588ABE588B042
:101910004F5054333030310D0A00000038B50446C2
:101920006A460121FFF711FF00281CD16846018893
:101930006420015306216846FEF79EFC032812D05E
:1019400006216846FEF798FCE06705216846FEF729
:1019500093FC032807D005216846FEF78DFC8034F0
:101960002060002038BD012038BD000038B5044695
:101970000020694608806A467F210648FFF7E5FE99
:10198000002801D0012038BD684600888034E082FC
:10199000002038BD1400002038B5044600206946F8
:1019A00008806A467E210648FFF7CFFE002801D056
:1019B000012038BD684600888034A082002038BDF0
:1019C000140000201CB506216A4611717D21C90052
:1019D0000091012301AA00210830FEF775FE0028BE
:1019E00000D001201CBDF8B5044600264034054651
:1019F000A684806E002817D0012815D0022813D0A5
:101A0000032811D004280FD005280DD006280BD0AC
:101A1000072809D0082807D0092805D00A2803D0AC
:101A20000B2801D00C285DD183B20F220C21304647
:101A3000FEF7FAFBA0840646E86E002801D00128D4
:101A400050D183B20B2211463046FEF7EDFBA08445
:101A5000238E002B03D0012B01D0022B42D10A226E
:101A60000921FEF7E1FB2E46A08407468036706808
:101A7000002801D0012835D183B20422114638460E
:101A8000FEF7D2FBA0840746B068002801D00128E9
:101A900028D183B2032211463846FEF7C5FBA08445
:101AA0000746F068002801D001281BD183B202222A
:101AB00011463846FEF7B8FBA084338A002B05D0C8
:101AC000012B03D0022B01D0032B0BD101220021CB
:101AD000FEF7AAFBA084024601212846FFF75CFE20
:101AE000002800D00120F8BD70B5054664204143B0
:101AF000C817400D40180B21C0120903084384B2D7
:101B0000214604A000F0ACFA224603212846FFF744
:101B100043FE70BD25580D0A0000000070B5054653
:101B200064204143C817400D40180B21C01209031F
:101B3000084384B2214604A000F092FA2246022112
:101B40002846FFF729FE70BD25580D0A0000000049
:101B50007047704710B5FEF76FFE10BD30B59FB0EF
:101B600038216846FEF721FB00241B941C941D9429
:101B700034210EA81E94FEF718FB01204002FEF748
:101B8000C5FE0225E801039000954020059008203D
:101B90000A9080030B90079500020C9008950001B5
:101BA00004940D9009946846FFF7CCF8002801D002
:101BB00072B6FEE707201B901D9402211C951E940F
:101BC0001BA8FEF7B9FF002801D072B6FEE722205D
:101BD0000E90109412940EA8FEF7BEFE002801D0BD
:101BE00072B6FEE71FB030BD01200249C006886012
:101BF0007047000000ED00E0F0B513A106C985B004
:101C00000192009112A206CA039202910446416E0B
:101C10004034002915D000688168806809014D0FA3
:101C2000400F02AE315C6F46385CC000FEF75EFAD2
:101C30006085785D715DC000FEF758FA208505B0BB
:101C4000F0BD01206085F9E70101010307010000F3
:101C5000080402040801010110B5018DC90707D06D
:101C600001684A6801235B049A43C36A1A434A60C5
:101C7000018D890707D501684A6801231B049A432F
:101C8000036B1A434A60018D490707D501684A680A
:101C900001239B049A43436B1A434A60018D090751
:101CA00007D501684A680123DB039A43836B1A4313
:101CB0004A60018DC90607D50268916801231B039C
:101CC0009943C36B19439160018D890607D501685B
:101CD0008A6801235B039A43036C1A438A60018D6F
:101CE000490612D503685A6801210905446C8A43E4
:101CF00022435A60426C8A4207D10268516803232A
:101D00005B059943836C19435160018D090607D522
:101D100001684A680123DB04C06C9A4302434A60AD
:101D200010BD0000FEB50546002680350446EE6075
:101D3000FEF798FB019020680068124F000709D554
:101D400001210097002249052046019B00F03AF945
:101D500000280DD12068006840070BD501210097AD
:101D6000002289052046019B00F02CF9002801D0B3
:101D70000320FEBD20206860A860E6662E7000206B
:101D8000FEBD0000FFFFFF01F8B504462269A1680F
:101D9000E5691143626900262A431143626E0068B7
:101DA0000A437C4B01687C4D294011430160206847
:101DB0004168032212039143E268114341602168A4
:101DC000A069994201D0226A10438A68734D2A4063
:101DD00002438A602068C16A626A090909011143E5
:101DE000C1626F4922686F488A420AD14069800700
:101DF000800F1AD001283DD0022839D0032827D1DE
:101E000024E069498A420AD140690C2108400CD07B
:101E100004282FD008282BD00C2819D116E06349AC
:101E20008A4202D062498A4201D1002111E09A42DD
:101E30000ED141690320800201400AD001208002B6
:101E4000091A17D0091A13D0814201D1082100E0E4
:101E500010210120574D584FC0039A423BD1002911
:101E60000AD0022911D0042909D008297ED10BE01B
:101E70000221EEE70421ECE7FEF70AFF01E0FEF79E
:101E80001BFF050001D17AE00546606A4000395A1F
:101E900028460091FEF72AF967687900791881428F
:101EA00069D83903814266D3002328461946009A2F
:101EB000FEF732F9020E09020302780811431818DE
:101EC000002251413A460023FEF726F90321090278
:101ED000411A3A4A4DE0E269824228D1002906D0EF
:101EE000022907D0042907D0082944D108E0FEF7C9
:101EF000CFFE03E0284603E0FEF7DEFE00283ED0DA
:101F0000616A4900795AFEF7F1F8616840004A08B1
:101F10008018FEF7EBF880B202462949103A8A424F
:101F200029D8491C01400007400F084325E000293B
:101F300006D0022907D0042907D008291BD108E0C0
:101F4000FEF7A6FE03E0284603E0FEF7B5FE0028F4
:101F500015D0616A4900795AFEF7C8F861684A08E5
:101F60008018FEF7C3F880B2014600E003E0144A8F
:101F70001039914201D9012601E02168C86020464C
:101F8000012140304185018500202067606730468F
:101F9000F8BD000000800040F369FFCFFFF4FF119F
:101FA000003801404010024000440040004800401A
:101FB000004C00400024F400F2230008FFFC0F0056
:101FC000EFFF0000FFB581B005460F46044680359F
:101FD0000A9E38E0701C36D0FEF744FA0499401A85
:101FE000B04221D8002E1FD02068016849072AD5A9
:101FF000C069C043000526D401202168C0020862E0
:1020000020680168FF22A132914301602068816845
:1020100049084900816020206860A860E8600020CD
:102020002870032005B0F0BD20680168FF22A132AE
:10203000914301602068816849084900816020203F
:102040006860A860EBE72068C1693846884305D01E
:10205000002103988142BDD00020E3E70121F8E789
:102060000FB410B503A9044B044A029800F03AF8E3
:1020700010BC08BC04B01847C123000810000020A1
:102080008307FF22DB0E9A408907090E994000283A
:1020900008DB830809489B001B1818689043084315
:1020A000186070470007000F0838830804489B0039
:1020B0001B18D86990430843D861704700E400E0DA
:1020C00000ED00E002E008C8121F08C1002AFAD1A2
:1020D00070477047002001E001C1121F002AFBD1A8
:1020E00070470000FFB58FB00F460446002606E09B
:1020F00025280AD0129A11999047641C761C2078E2
:102100000028F5D1304613B0F0BD00250121A14AC9
:10211000009500E00543641C23780846203B984066
:102120001042F7D120782E2815D10420054360787D
:10213000641C2A280AD101CF641C00900BE000998E
:102140000A22514330394018641C0090207801461F
:1021500030390929F3D920786C280ED004DC4C28BA
:1021600013D06A2812D104E074280ED07A280DD139
:102170000BE001204005054307E0012109056278D5
:102180000D43824201D16D18641C641C2078864680
:1021900069284AD008DC0028B4D058286DD06328BC
:1021A00010D0642808D140E070286BD0732812D07A
:1021B000752860D0782860D0129A7046119990479F
:1021C000761CE5E03878694608720020487202A85B
:1021D0000190012003E0386801900020C0433F1DBA
:1021E00069070CD5002500E06D1C00998D420FDABF
:1021F0008542F9DB0199495D0029F5D108E0002508
:1022000000E06D1C8542FCDB0199495D0029F8D195
:10221000761907E0019801990078491C0191129AFA
:10222000119990476D1EF5D2B2E00A20029000216C
:102230006802400F039102280CD001CFC1178446D9
:1022400000290DDA62460846524200218141944637
:102250002D2008E0FF1DFF08FF0003CF8446EFE7B5
:10226000280504D52B206A46107401203CE0E807BD
:102270003AD02020F7E70A2000E010200021039147
:10228000029007E01020029000210420054308205E
:10229000039100906802400F022810D001CF002166
:1022A000844600200D9028071FD5704670280CD05A
:1022B000029A1020039B42401A430CD015E0FF1DE8
:1022C000FF08FF0003CF8446EBE740206A46107406
:1022D00001200D900CE06046084306D030206A468D
:1022E00010747046507402200D907046582804D027
:1022F00029A001900DA80E900DE02CA0F9E76046F2
:10230000039B029AFDF708FF019B84469B5C0E9A93
:10231000521E0E92137060460843F0D10E9805A924
:10232000081A20300190680701D5009801E00120CB
:1023300000900199884203DD01460198081A00E0E7
:1023400000200025009006E004A8129A405D119933
:1023500090476D1C761C0D988542F5DB04E0129ABF
:10236000302011999047761C0099481E0090002952
:10237000F5DC08E00E980E990078491C0E91129A2F
:1023800011999047761C0199481E01900029F1DCB3
:10239000641CB4E609280100303132333435363755
:1023A00038396162636465660000000030313233A1
:1023B0003435363738394142434445460000000041
:1023C00013B57D23DB00012269460248FEF7A0FF1A
:1023D00000981CBDF8000020FEF736FAFFF7BEFBA0
:1023E000FFF716F9FFF750F9FFF77AF9FFF712FA3E
:1023F000FEE7010002000400060008000A000C00CD
:1024000010002000400080000001000000000000DB
:1024100000000000000000000000000000000000BC
:1024200000000000000000000000000001000000AB
:10243000020000000300000004000000060000008D
:102440000700000008000000090000000000000074
:10245000000000000000000000000000010000007B
:102460000200000003000000040000008C240008AB
:102470000000002014000000C4200008A024000870
:102480001400002074050000D420000801000000A2
:1024900004000000000000000024F4000000000020
:04000005080000BD32
:00000001FF
