:020000040800F2
:1000000090050020D10000087D1E00081D1B00087F
:1000100000000000000000000000000000000000E0
:10002000000000000000000000000000C3220008E3
:100030000000000000000000C1220008C5220008E6
:10004000E3000008E3000008E3000008E300000804
:10005000E300000889090008E3000008E300000845
:10006000E3000008E3000008E3000008E3000008E4
:10007000E3000008E3000008E3000008E3000008D4
:10008000E3000008E3000008E3000008E3000008C4
:10009000E3000008E3000008E3000008E3000008B4
:1000A000E3000008E3000008E3000008E3000008A4
:1000B000E3000008E3000008E30000080348854669
:1000C00000F096FB004800478132000890050020B0
:1000D0000448804704480047FEE7FEE7FEE7FEE7E6
:1000E000FEE7FEE759230008BD00000830B50B46C7
:1000F000014600202022012409E00D46D5409D4202
:1001000005D31D469540491B254695404019154687
:10011000521E002DF1DC30BDF0B51FB406460020A4
:1001200082B005464024019100901BE001992246CF
:100130000F46304600F0D6F9049A059B801A994183
:1001400010D310461946224600F0BCF9361A8F41EA
:100150000197224601200021009F00F0B3F93818D2
:100160004D4100902046641E0028DFDC019B009872
:100170002946324607B0F0BD03460B439B0703D028
:1001800009E008C9121F08C0042AFAD203E00B785C
:100190000370401C491C521EF9D27047D2B201E0D4
:1001A0000270401C491EFBD270470022F6E710B5D2
:1001B00013460A4604461946FFF7F0FF204610BDD5
:1001C000F0B507460846584087B0C00F0490480075
:1001D0000E46590040084908BC1A884105D23846E5
:1001E00031461E4617460B4602465800400810434B
:1001F0004CD0300D039040055900400D490D05903D
:10020000401A0290402872DA18030121000B0905F8
:100210000843019004980092002805D001995242A9
:100220000020884100920190029840210A1A019909
:10023000009800F047F905460C466B4607CB00F0E6
:1002400062F9C0197141039A0E0D0023D717564069
:100250001A467A40164344D0049A002A2DD0029AB6
:10026000012A039A15DC1205C01A914101263605B0
:10027000001C7141D20F059ED20700930192029695
:100280002A46234600F0A0F907B0F0BD38463146B3
:10029000FAE71605224A0F46B218C01AB7410121E3
:1002A0000905001C4F4100187F411146181879417B
:1002B000E20F10436D19644113E0E2076D08154326
:1002C0006408C2071443039A01261205C01A91411B
:1002D0003605001C7141CE07400830434908C0185C
:1002E00051412A46234600F062F9CDE7FFE7049822
:1002F00001224000C117121A00238B410498314695
:10030000C417381AA141EEE730B40124E407634072
:1003100030BC55E730B40124E407614030BC4FE7FE
:100320000000E0FFF0B51FB488B00B9909980024D5
:1003300048400999C00F490049080991C0070B9925
:100340000090490049080B9109990898A64608436E
:100350001CD00B990A98084318D009980124400032
:10036000420D4800410D099824050003000B20436D
:1003700009900B980003000B20430B9050181C4968
:100380004018002201901446104605E00020014666
:100390000DB0F0BD032801DA034600E003239C46BC
:1003A000C11A0AAE0AE05F0008ADED5B4F00F75BD3
:1003B0007D430027AA187C41491C5B1E6145F2DD84
:1003C000410004AB5A522104120C0A43240C401C75
:1003D0000828DFDB01980290009970460191009097
:1003E000059B049A0799069800F0EEF8D0E7000004
:1003F0000DFCFFFF0EB5C217C10F5040CA074018D1
:100400000021054B0293019200910A460B4600F031
:10041000DBF803B000BD00003304000070B5CD0F61
:100420004A0009030123090B1B0519430B4BED0778
:100430000024520D9A4201DA002070BD074B34337C
:100440009A4203DC9A1A00F04DF802E00449511870
:1004500088402C43F1D0404270BD0000FF030000F3
:10046000CDFBFFFFC20FD207400040080BD0C10DEB
:100470000723DB01C91840020905400A1143C208DD
:10048000400711437047002001467047CB0FDB0740
:10049000490010B5490802460A4307D00A0D07244F
:1004A0000903E401090B121B002A01DC002010BD26
:1004B000C900440F0C43C100E018D205801800F0B9
:1004C00035F810BD10B5202A04DB0146203A9140D2
:1004D000002010BD914020239C1A0346E34019439D
:1004E000904010BD10B5202A04DB0846203AD040C9
:1004F000002110BD0B46D340D0402024A21A9140C9
:100500000843194610BD10B5202A06DBCB17084654
:10051000203A1041C1170B4306E00B461341D0406F
:100520002024A21A91400843194610BD002904DA7C
:10053000401C490001D140084000704770B40024BD
:10054000050C05D11024000402D1002921D011246A
:10055000050E01D100020834050F01D10001241D50
:10056000850F01D18000A41C002801DB4000641C21
:10057000002908D020252E1B0D46F540A14000D0B3
:1005800001212943084301061B1B000ADB1D02D57C
:10059000002070BC7047DB05181880180029F8DAB5
:1005A000401C4900F5D170BC40084000704710B5B0
:1005B000002B08DA0024401C614192185B411A4369
:1005C00001D14008400010BDF0B51FB482B005460F
:1005D0000C0003D0084602F00BF902E002F008F923
:1005E00020300246009021462846FFF76BFF049B0F
:1005F000059A04460F4618431143084314D0184681
:1006000010431BD0009840210A1A18460599FFF79D
:1006100069FF05460E46009A05990498FFF752FFB8
:10062000084305D0012004E02046394607B0F0BD5C
:100630000020C11705430E432C43374300990E9801
:100640006305401A7905E40A00220C43FD0A0A30CA
:1006500002D500200146E9E70105101969410C9C0B
:100660000D9D00196941FFF7A2FFDFE7F0B50C46C9
:100670005C4085B0E40FE40703944C000026640856
:1006800059009446490802460296224321D0624608
:100690000A431ED06200570D4A000E032303550D76
:1006A000012402462C492405781B1B0B360B4018ED
:1006B00023432643614600901C46501AB44103D39D
:1006C0000098401C009002E0921800985B410028BE
:1006D00003DA0020014605B0F0BD00200121090524
:1006E0000746864611E064461D46141BB54106D3F5
:1006F0006546521BB341744607430C43A646CD07DB
:1007000040084908284392185B4105460D43EAD149
:100710001046184313D060461946504071400843B4
:1007200006D06046101AB34106D20122002306E02B
:1007300000220123DB0702E00122D243531000987C
:1007400074460105381C6141029C039D00196941F2
:10075000FFF72DFFBFE70000FD03000070B54B0061
:100760005B0803430BD04B005C0D0026334665420B
:10077000B341D417AD1AA34102DB0020014670BD7E
:1007800012053018514170BD4A0009030123090BBD
:100790001B0519430A4B10B5520D9A4202DA00208C
:1007A000014610BD064B34339A4203DC9A1AFFF718
:1007B00099FE10BD034BD218FFF784FE10BD000058
:1007C000FF030000CDFBFFFF10B5002904DB01246F
:1007D000E40740428C412146002B04DB1C460123E8
:1007E000DB075242A341994200D1904210BD000064
:1007F000064C0125064E05E0E36807CC2B430C3C74
:1008000098471034B442F7D3FFF75CFC203E000851
:10081000403E0008FEB500231A461B1A8A4103DB3E
:100820000020014603B0F0BD4A000D0301212D0B4D
:100830000905520D0D43D10702D100186D41521E1A
:100840005110FF31FF310131002704463E46384642
:10085000009701910246012100200905FFF742FEA1
:10086000C3197141F818324684468E464A416146A2
:100870002846611A904104D36046241A9541764671
:100880001F46241900986D41401C00903428E1DD7A
:10089000F91930467041091BA84103D20022D24306
:1008A000134601E00022134601980105381C7141EE
:1008B000FFF77DFEB6E70000F0B591B015460E4695
:1008C0000746102901D2AE4206DD21A001F080FFCB
:1008D0000020C04311B0F0BD40216846FFF765FC21
:1008E0000024AD1B6D1C07E03119384600F060F89C
:1008F000A20069468850641CA542F5DC00273C46EE
:1009000021E02046FFF776FD0B460246012100203C
:10091000890702F0DFFC06461091A10068464058A6
:10092000FFF768FD3246109BFFF7FCFC0646384691
:100930001091FFF75FFD3246109BFFF741FCFFF778
:100940006DFD0746641CA542DBDC3846C2E70000AB
:10095000D7AABBBBB7A2CBCDB4EDCEF30D0A000036
:10096000F0B50126074D0C46521C03E03746A74060
:10097000BD43641C9442F9DB28408B40034398B28A
:10098000F0BD0000FFFF000010B5022000F03AF8B3
:1009900005200221000700F0F9F8002802D10248E2
:1009A00001F0ACFA10BD00001800002072B6FEE79E
:1009B00010B5102903D305A001F00AFFFEE7008857
:1009C00001228A40104000D0012010BDCCE1C8A116
:1009D000B7A2C9FAB4EDCEF30000000070B504462A
:1009E00000F0DAF80546601C02D0044800782418AC
:1009F00000F0D2F8401BA042FAD370BD00000020E6
:100A00007047000070B5084D0446E868204203D0E6
:100A1000EC60204600F00AF82869204203D02C61DF
:100A20002046FFF7EDFF70BD001802407047000040
:100A3000FCB5002301259AE022462C469C4022402A
:100A40006FD04E68012E05D0022E03D0112E01D09A
:100A5000122E16D186680327B4465E00B646B7400C
:100A60006646BE43B446CF687646B74066463743CF
:100A700087604668A6430C79E406E40F9C40344343
:100A80004460C6685F000324BC40A446A6438C684B
:100A9000BC403443C4604C68022C01D0122C14D1E9
:100AA000DC08A40024180194266A5C07B646E60E0A
:100AB0000F24B44000967646A643B6460C69009EC5
:100AC000B44076462643019C266204686646B443D9
:100AD0000E79B607B60FBE40264306604C68E400A8
:100AE00044D59E08254CB6003419A446246E9E07B2
:100AF000F60E0F27B740BC4305273F07B84201D188
:100B0000002710E01E4FB84201D101270BE01D4F16
:100B1000B84201D1022706E01B4FB84202D1032799
:100B200001E023E00527B740274364462766134EBC
:100B3000803634684F689443FF0300D51443346013
:100B400074684F689443BF0300D5144374600B4C22
:100B500026684F689643FF0200D5164326606668F4
:100B60004F689643BF0200D5164366605B1C0A6857
:100B70001446DA4000D05FE7FCBD000000180240D8
:100B80000004005000080050000C005000690840AC
:100B900000D00120704700000148806870470000C5
:100BA0000000002070B5024640325378202B1CD143
:100BB0001378012B19D00123137024245470046876
:100BC00025689D432560046825681E03B54325609C
:100BD000046825680D4325600068016819430160B9
:100BE000202050700020107070BD022070BD70B5C4
:100BF000024640325378202B1BD11378012B18D09A
:100C0000012414702423537003681D68A5431D60DC
:100C100005682B680F263602B34309021943296081
:100C2000006801682143016020205070002010708E
:100C300070BD022070BD000070B5040006D02546CE
:100C4000403568780026002802D005E0012070BDFC
:100C50002E70204600F05AF9242068702068016840
:100C60004908490001600F2160680906884321682E
:100C7000086121688A680120C00382438A60E168B4
:100C80000129A16808D021229202114322689160B3
:100C9000E168022902D005E00143F7E7012122685B
:100CA000C902516021684A680F4B1A434A602168A3
:100CB000CA688243CA60616920690843A169090260
:100CC00008432168C860216AE06908432168086018
:100CD0002068016801221143016066642020687069
:100CE0002663AE70002070BD00800002FFB505468F
:100CF00004464035687881B0202878D128780128CA
:100D000075D001202870FFF747FF074601220090A9
:100D10001923D103204600F05FFF00283CD1222098
:100D200068701020A87000266664039860620498BA
:100D300060856663618D2F48FF2903D9FF222285D4
:100D400000903BE0618D218500903DE020460299B6
:100D500000F02EFF16E000F067FF00281CD120688D
:100D6000406A616A0870606A401C6062208D401EA3
:100D700081B22185608D401E6085608D002801D084
:100D800000290CD0608D0A9900283A462046E2D10D
:100D900000F08AFF00281CD0012005B0F0BD0097AC
:100DA0000022802120460A9B00F016FF0028F3D184
:100DB000608DFF2805D9FF222285009601231B069E
:100DC000C4E7608D20850096208D0123C2B25B06AA
:100DD000BCE721682020C86121684A68064B1A4098
:100DE0004A606870AE702E700020D6E7FFE70220E0
:100DF000D3E700000024008000E800FEFFB50546B0
:100E000004464035687881B0202878D128780128B8
:100E100075D001202870FFF7BFFE07460122009021
:100E20001923D103204600F0D7FE00283CD1212011
:100E300068701020A87000266664039860620498A9
:100E400060856663618D2F48FF2903D9FF222285C3
:100E500000903BE0618D218500903DE020460299A5
:100E600000F0A6FE16E000F045FF00281CD1606AE5
:100E7000216800788862606A401C6062608D401E54
:100E80006085208D401E80B22085618D002901D0B3
:100E900000280CD0608D0A9900283A462046E2D1FD
:100EA00000F002FF00281CD0012005B0F0BD009723
:100EB0000022802120460A9B00F08EFE0028F3D1FC
:100EC000608DFF2805D9FF222285009601231B068D
:100ED000C4E7608D20850096208D0123C2B25B0699
:100EE000BCE721682020C86121684A68064B1A4087
:100EF0004A606870AE702E700020D6E7FFE70220CF
:100F0000D3E700000020008000E800FE10B586B0A6
:100F1000044614216846FFF748F9124920688842C0
:100F20001ED1114C616B012001436163616B029022
:100F300001400591032103204902039000910620FE
:100F4000122104900191052069460007FFF770FD0A
:100F5000E16B012040050143E163E16B0140059134
:100F600006B010BD005400400010024002488168E5
:100F700002788918816070470000002010B5084889
:100F800000240168821511430160204600F00AF830
:100F9000002801D0012401E000F028F8204610BD0F
:100FA0000020024070B50F4E00243178054600291C
:100FB00015D07D20C000FFF799F801460A48006867
:100FC000FFF794F800F05AFC002808D1042D06D24F
:100FD00000222946401E00F02FF8756000E0012431
:100FE000204670BD000000200C00002008B50B4812
:100FF0000168012211430160006810400090074819
:101000004038C26B01040A43C263C06B08400090C1
:101010000320400200F028FC08BD00004010024000
:10102000002805DBC106C90E01208840014908607F
:101030007047000000E100E010B501F007FC10BDB2
:1010400010B50F4C216803225202914301432160E5
:10105000C11FFF39FA390ED10A48062100684843FA
:101060000949FFF743F8401C02E0002805D0401E64
:1010700061694905F9D4002010BD032010BD0000AE
:10108000007000400C00002040420F00FEB50446F6
:1010900000680027704D714E800355D500200090E8
:1010A000F06BC00007D4F16BA8050143F163F16B4D
:1010B0000140012000906A480168821511430160D7
:1010C000FFF76AFD019005E0FFF766FD0199401A00
:1010D000022825D862480068C005F5D5E8690321D3
:1010E000090208400FD0216B81420CD0E86903212E
:1010F0000902EA698843012109040A43EA61EA69AD
:101100008A43EA61E861C0070FD0FFF745FD01900F
:1011100008E0FFF741FD0199411A5248814201D987
:10112000032709E0E8698007F3D5E869032109028C
:101130008843216B0843E8610098002804D0F16BD4
:10114000012000078143F1632078C00705D068695A
:10115000616880088000084368612078800705D5B1
:1011600068690C218843A168084368612078C0063B
:1011700006D56869032189028843E16808436861EC
:101180002088800506D56869032189048843A16900
:10119000084368612088400506D568690321090570
:1011A0008843E169084368612078800606D568694C
:1011B00003210903884321690843686120884004AA
:1011C0000ED56869216A80008008084368610121A2
:1011D000206A8907884203D1F06889130843F060C8
:1011E0002068000305D5686940218843616A084387
:1011F0006861206881021C480BD569698210A36A66
:10120000914319436961A16A914202D1F168014396
:10121000F160216849020AD56969E26A8143114394
:101220006961E16A814202D1F1680143F16020887D
:1012300000050FD568690321890388436169084364
:101240006861012160698903884203D1F0688900DF
:101250000843F0603846FEBD4010024000100240D6
:10126000007000408813000000000001F8B50F4630
:10127000060043D04D4D28684007400FB84213D2B6
:101280002868C008C00038432860FFF785FC044682
:1012900005E0FFF781FC011B4548814261D82868C1
:1012A0004007400FB842F4D13068424C81070DD559
:1012B000400704D5A068072109030843A060A0687F
:1012C0000F2109028843B1680843A0603078C00745
:1012D00032D0706801280AD002280BD000280FD025
:1012E0003449403103280ED0C969890704E02168D8
:1012F000890301E021688901002906DB0120F8BD8E
:1013000021684905F8E7096AEFE7A168C908C9003B
:101310000143A160FFF740FC009006E0FFF73CFCB2
:101320000099411A224881421BD8A0683821084000
:101330007168C9008842F1D128684007400FB8425F
:1013400017D91A480168C908C90039430160FFF775
:1013500023FC054607E0FFF71FFC411B14488142B0
:1013600001D90320F8BD114800684007400FB8427A
:10137000F1D13078400706D5A068072109038843DA
:10138000F1680843A06000F031F8A1683C228909A7
:101390001140094A515CC906C90EC8400749086096
:1013A00007480068FFF7FEFDF8BD0000002002407E
:1013B0008813000000100240303D00080C0000209F
:1013C000040000200648074900688968064A490465
:1013D000490F8900515CC906C90EC840704700001A
:1013E0000C00002000100240703D000810B5204C99
:1013F000A068204A8006400F16D0A0688006410FE2
:10140000501001290FD0A1688906490F022912D076
:10141000A0688006400F042823D0A0688006400FF3
:10142000032821D0002010BD206801218004400F36
:101430008140104612E0E1688B07E1689B0F490686
:10144000490F491C032B00D01046FEF74FFEE16800
:101450004904490E4843E168490F491CFEF746FE1E
:1014600010BD0120C00310BD7D20000210BD000092
:10147000001002400024F400F8B504007ED020786B
:101480003827C007EF4D002846D0A868E9683840E3
:101490008907890F102802D008280BD001E0032902
:1014A00008D001206268000482420AD12968014301
:1014B000296015E0286880032ED560680028DDD0FB
:1014C0002AE0052301211B0489049A422A6802D1DB
:1014D0000A432A60EAE782432A6028688843286032
:1014E000606800280CD0FFF757FB064604E0FFF7C2
:1014F00053FB801B642873D828688003F7D50BE062
:10150000FFF74AFB064604E0FFF746FB801B642812
:10151000F1D828688003F7D42078800769D5A868B7
:10152000E96838408A070721920FC902102802D0C3
:10153000002813D001E0022A10D0E068002846D02D
:10154000286888432169084328602868FF21013101
:1015500008432860FFF720FB06462CE02A68520566
:1015600002D5E268002A89D06A687F231B029A4369
:1015700063691B021A436A60002800E08DE00ED107
:10158000286888432169084328602868012180046D
:10159000400F8140AC48FEF7A9FDAC490860AC485B
:1015A0000068FFF7FFFC002877D122E0FFF7F4FA8C
:1015B000801B02289FD828684005F7D568687F21DE
:1015C00009028843616909020843686011E02968DB
:1015D000FF20013081432960FFF7DEFA064605E06F
:1015E00098E0FFF7D9FA801B022884D828684005C4
:1015F000F7D42078974E00072ED5A8688006400FB4
:1016000003280AD0A0690028306A16D001210843B7
:101610003062FFF7C1FA07460BE0306A80071BD53E
:10162000A06900289FD017E0FFF7B6FAC01B022878
:1016300070D8306A8007F7D50EE04008400030626D
:10164000FFF7AAFA074604E0FFF7A6FAC01B022834
:1016500060D8306A8007F7D4207840076CD5A86836
:1016600000278006400F042818D0E86BC00008D47B
:10167000E96B012000070143E963E96B01400127A1
:10168000009175480168C90519D401688215114394
:101690000160FFF781FA00900DE083E0F0698007B8
:1016A0004AD5A06800287DD046E0FFF775FA00997A
:1016B000401A02282ED868480068C005F5D5A168F0
:1016C000012910D004200529F16911D049084900E9
:1016D000F161F1698143F161A068002816D0FFF73C
:1016E0005BFA00900EE0F06901210843F061F3E736
:1016F0000143F161F7E7FFF74FFA0099411A5748A4
:1017000081426FD8F0698007F5D50EE0FFF744FA03
:10171000009007E066E0FFF73FFA0099411A4F4852
:1017200081425FD8F0698007F5D4002F04D0E86BC0
:10173000012109078843E863E06900287FD0A96890
:101740008906490F022953D0012636060228286847
:101750000DD0B0432860E86880088000E860E86841
:101760003F490840E860FFF717FA04463CE0B04301
:101770002860FFF711FA074604E0FFF70DFAC01BD7
:1017800002282FD828688001F7D4616A206AA26AEB
:101790000843E16A120211430843216B0843616B5D
:1017A000084300E049E0E9682E4A11400843E86038
:1017B000286830432860E868012109070843E86089
:1017C000FFF7EAF9044604E0FFF7E6F9001B0228F8
:1017D00008D828688001F7D531E0FFF7DDF9001B54
:1017E000022801D90320F8BD28688001F5D426E03D
:1017F0000128F8D0E868226A8107890F91421CD13C
:101800007021626A0140914217D17F21A26A0902C8
:1018100001401202914210D11F214904E26A0140A5
:1018200091420AD107214906226B0140914204D11D
:10183000400F616B4007884201D00120F8BD0020B5
:10184000F8BD0000001002400024F4000C0000204D
:101850000400002040100240007000408813000087
:10186000FFFFFEEE8C80C11103490A6803235B026F
:101870009A4302430A60704700000140094910B5CD
:10188000401E884201D9012010BD074C6061032130
:10189000081F00F0DBFF0020A0610720206100206E
:1018A00010BD0000FFFFFF0000E000E010B50146A2
:1018B00080310A78012A15D001220A7024224A6058
:1018C00002681368146864086400146001225207F7
:1018D00093430022426600680360202048600A703B
:1018E000104610BD022010BD70B504460546803478
:1018F000207801281AD001202070242060602868F8
:10190000066802685208520002602868826807234D
:101910005B069A430A438260284600F025FD28684A
:101920000660202060600020207070BD022070BD25
:1019300070B50446054680342078012819D001206E
:1019400020702420606028680668026852085200EF
:10195000026028688268D200D2080A438260284662
:1019600000F002FD286806602020606000202070E2
:1019700070BD022070BD70B5040005D025468035CD
:101980006868002802D006E0012070BD00202870A1
:10199000204600F027F82420686020680168490884
:1019A00049000160204600F0A7FD0128EDD0A06AA3
:1019B000002802D0204600F007FD20684168092277
:1019C000D20291434160206881682A22914381605C
:1019D00020680168012211430160204600F05AFD91
:1019E00070BD000010B586B0044614216846FEF7AD
:1019F000DCFB1149206888421CD11048C26B0121D0
:101A000049040A43C263C26B0A400592426B082133
:101A10000A434263406B084005906020009002201A
:101A2000002101900320029104910390694604482B
:101A3000FEF7FEFF06B010BD00440040001002405B
:101A4000000C0050FFB5064604468036706883B02F
:101A50000D46202860D1002D0CD00598002809D013
:101A60000120A1680003814207D12069002804D128
:101A7000E80702D0012007B0F0BD307801284BD034
:101A8000012030700020F06021207060FFF784F8A2
:101A90000190274640370598B8820598F8820120C2
:101AA000A1680003814202D12069002804D0029578
:101AB00000250020307015E000200290F9E7002298
:101AC0008021204600F036FE002818D10298002818
:101AD00017D02168007888620298401C0290F88A2A
:101AE000401EF882F88A019B002806980090E6D1F3
:101AF00000224021204600F01DFE002808D00320CF
:101B0000B9E728882168C005C00D8862AD1CE6E7EA
:101B1000202070600020AEE70220ACE7FEE70168FD
:101B20008A69D243920701D400228A6200688169DF
:101B3000C943C90703D081690122114381617047FC
:101B4000F7B5044600680E468069C043C0062BD432
:101B500020272546403520688069C043800612D57D
:101B6000701CF8D0FFF718F80299401AB04201D85B
:101B7000002EF0D1606C384360646F700020A87054
:101B800028700120FEBD21681020C8612068C7614F
:101B90002046FFF7C4FF20684168044A11404160B5
:101BA000606C04210843E7E70020FEBD00E800FE6A
:101BB000F0B50668059C7568064F600D384385438F
:101BC0008805800D110408431843204305437560C0
:101BD000F0BD0000FF63FF03F8B51D4617460E4633
:101BE000044609E0681C07D0FEF7D6FF0699401AA4
:101BF000A8420BD8002D09D020688169304688435F
:101C00000FD00020B842EDD00020F8BD616C20203C
:101C100001436164403460700020A0702070012096
:101C2000F8BD0120EEE70000F7B5002720260546A5
:101C30000446403528E02046029A0199FFF780FFCC
:101C4000002801D00120FEBD20688069C0438006C5
:101C500011D420688169C943490702D4218D002924
:101C600017D1C661206841680E4A1140416067641F
:101C70006E70AF7013E0FEF78FFF0299411A019862
:101C8000814208D8002806D020688069C0434007F8
:101C9000D1D40020FEBD606C304360646E702F7044
:101CA000D0E7000000E800FE70B516460D46044679
:101CB0000FE0324629462046FFF742FF002801D0B8
:101CC000012070BDFEF768FF801BA84208D8002DD8
:101CD00006D020688069C0438006EAD4002070BD29
:101CE000616C202001436164403460700020A0706A
:101CF0002070E5E770B516460D46044611E0324601
:101D000029462046FFF71CFF002801D0012070BDA6
:101D1000681C06D0FEF740FF801BA84208D8002DA3
:101D200006D020688069C0438007E8D4002070BDD9
:101D3000616C202001436164403460700020A07019
:101D40002070E3E700B587B014216846FEF72DFA4E
:101D50001848426B04210A434263426B0A400592D1
:101D6000426B20210A434263426B0A400592426B58
:101D700001210A434263426B0A400592436B0822E9
:101D800013434363406B0291104005900220009082
:101D900009480190052069460007FEF749FE002228
:101DA00011460520FFF748F90520FFF739F907B07C
:101DB00000BD0000001002400000211010B51348C3
:101DC0001149016012494160002181600161416156
:101DD00081610122C161C2600162FEF72DFF00280E
:101DE00001D0FEF7E3FD00210848FEF7DBFE0028E6
:101DF00001D0FEF7DBFD00210448FEF7F8FE0028C5
:101E000001D0FEF7D3FD10BD00540040B00000200B
:101E10007321600010B5184816490160E12149029C
:101E2000416000218160C16001618161C161016225
:101E30000C22416242618162FFF79DFD002801D0C2
:101E4000FEF7B4FD00210C48FFF772FD002801D019
:101E5000FEF7ACFD00210848FFF746FD002801D041
:101E6000FEF7A4FD0448FFF721FD002801D0FEF78E
:101E70009DFD10BD00440040FC000020FEE7F7B5CA
:101E800082B07D2504460021ED004034009501918B
:101E9000217D164608304900012303AA0746FEF7B4
:101EA000ADFF002809D10095207D0223410001AA41
:101EB0003846FEF71BFF002802D0012005B0F0BD18
:101EC0006846808840BA30800020F7E71CB50023C0
:101ED00001936B461971110A59719A717D21C900DC
:101EE00000915421095C0323490001AA0830FEF740
:101EF00085FF002800D001201CBD000070B50446FD
:101F000000F0DAF82046803001680025012903D16D
:101F1000056005A000F05CFCE06F012803D105A07E
:101F2000E56700F055FC70BDB5CDD6D0B6CF200D1D
:101F30000A000000B8DFD6D0B6CF200D0A0000009E
:101F400070B5344C022605202680000760602046CC
:101F50002A2231490830FEF70FF92F4D688D60862F
:101F6000E86A6063286BA063294620460D2234315D
:101F70003C30FEF701F9294640314A78204640308E
:101F8000427289788172696CE164A96C216545218E
:101F90000175C821E165214921660C21A166012155
:101FA000E1660686254600208035A86028826960A3
:101FB000E860A882E882204600F0D2F8204600F0CF
:101FC000B9F8204600F0A0F80120FEF707FDA88A26
:101FD0001349884215D1E88A1249884211D112A0CA
:101FE00000F0F6FB13A000F0F3FB204600F0C9F868
:101FF0002046216E00F046F92046E16D00F051F9CF
:1020000070BD0FA000F0E4FB0AA000F0E1FB01208E
:1020100070BD000018000020B000002060EA000041
:102020004954000001300000D2D1CAB6B1F0B5BDAC
:10203000000000004F5054333030310D0A000000D2
:10204000CEB4CAB6B1F0B5BD00000000F8B50E467A
:102050007021095A022905D16A460021FFF70FFFB6
:10206000002801D00120F8BD0B2200216846FEF7B0
:1020700023FCFEF7BFF904460D460F220C216846EB
:10208000FEF71AFCFEF7B6F90B46024601210020C6
:10209000890701F01FF9064A064BFEF743F922466D
:1020A0002B46FEF73FF9FEF7F1F930600020F8BD4E
:1020B0007B14AE47E17A843F38B504466A46012175
:1020C000FFF7DDFE00281CD168460188642001531B
:1020D00006216846FEF76CFC032812D006216846EC
:1020E000FEF766FCE06705216846FEF761FC032801
:1020F00007D005216846FEF75BFC80342060002095
:1021000038BD012038BD000038B5044600206946BE
:1021100008806A467F210648FFF7B1FE002801D0FB
:10212000012038BD684600888034E082002038BD38
:102130001800002038B504460020694608806A4629
:102140007E210648FFF79BFE002801D0012038BD04
:10215000684600888034A082002038BD1800002026
:102160001CB506216A4611717D21C9000091012329
:1021700001AA00210830FEF741FE002800D001200E
:102180001CBDF8B50446002640340546A684806E82
:10219000002817D0012815D0022813D0032811D009
:1021A00004280FD005280DD006280BD0072809D009
:1021B000082807D0092805D00A2803D00B2801D009
:1021C0000C285DD183B20F220C213046FEF7C8FBEC
:1021D000A0840646E86E002801D0012850D183B2C1
:1021E0000B2211463046FEF7BBFBA084238E002B4A
:1021F00003D0012B01D0022B42D10A220921FEF784
:10220000AFFB2E46A084074680367068002801D0B8
:10221000012835D183B2042211463846FEF7A0FBCF
:10222000A0840746B068002801D0012828D183B2D5
:10223000032211463846FEF793FBA0840746F06858
:10224000002801D001281BD183B202221146384652
:10225000FEF786FBA084338A002B05D0012B03D028
:10226000022B01D0032B0BD101220021FEF778FBBA
:10227000A084024601212846FFF728FE002800D04E
:102280000120F8BD64225143CA17520D51180B2288
:10229000C9121203114310B58AB20321FFF716FECB
:1022A00010BD64225143CA17520D51180B22C91296
:1022B0001203114310B58AB20221FFF707FE10BDC9
:1022C0007047704710B5FEF751FE10BD30B59FB096
:1022D00038216846FDF769FF00241B941C941D9467
:1022E00034210EA81E94FDF760FF01204002FEF786
:1022F000A7FE0225E80103900095402005900820E4
:102300000A9080030B90079500020C90089500013D
:1023100004940D9009946846FFF7AEF8002801D0A8
:1023200072B6FEE707201B901D9402211C951E9497
:102330001BA8FEF79BFF002801D072B6FEE7222003
:102340000E90109412940EA8FEF7A0FE002801D063
:1023500072B6FEE71FB030BD01200249C00688609A
:102360007047000000ED00E0F0B513A106C985B08C
:102370000192009112A206CA039202910446416E94
:102380004034002915D000688168806809014D0F2C
:10239000400F02AE315C6F46385CC000FDF7A6FE10
:1023A0006085785D715DC000FDF7A0FE208505B0F9
:1023B000F0BD01206085F9E701010103070100007C
:1023C000080402040801010110B5018DC90707D0F6
:1023D00001684A6801235B049A43C36A1A434A604E
:1023E000018D890707D501684A6801231B049A43B8
:1023F000036B1A434A60018D490707D501684A6893
:1024000001239B049A43436B1A434A60018D0907D9
:1024100007D501684A680123DB039A43836B1A439B
:102420004A60018DC90607D50268916801231B0324
:102430009943C36B19439160018D890607D50168E3
:102440008A6801235B039A43036C1A438A60018DF7
:10245000490612D503685A6801210905446C8A436C
:1024600022435A60426C8A4207D1026851680323B2
:102470005B059943836C19435160018D090607D5AB
:1024800001684A680123DB04C06C9A4302434A6036
:1024900010BD0000FEB50546002680350446EE60FE
:1024A000FEF77AFB019020680068124F000709D5FB
:1024B00001210097002249052046019B00F03AF9CE
:1024C00000280DD12068006840070BD50121009736
:1024D000002289052046019B00F02CF9002801D03C
:1024E0000320FEBD20206860A860E6662E700020F4
:1024F000FEBD0000FFFFFF01F8B504462269A16898
:10250000E5691143626900262A431143626E00683F
:102510000A437C4B01687C4D2940114301602068CF
:102520004168032212039143E2681143416021682C
:10253000A069994201D0226A10438A68734D2A40EB
:1025400002438A602068C16A626A0909090111436D
:10255000C1626F4922686F488A420AD14069800788
:10256000800F1AD001283DD0022839D0032827D166
:1025700024E069498A420AD140690C2108400CD004
:1025800004282FD008282BD00C2819D116E0634935
:102590008A4202D062498A4201D1002111E09A4266
:1025A0000ED141690320800201400AD0012080023F
:1025B000091A17D0091A13D0814201D1082100E06D
:1025C00010210120574D584FC0039A423BD100299A
:1025D0000AD0022911D0042909D008297ED10BE0A4
:1025E0000221EEE70421ECE7FEF7ECFE01E0FEF746
:1025F000FDFE050001D17AE00546606A4000395AC7
:1026000028460091FDF772FD6768790079188142CC
:1026100069D83903814266D3002328461946009AB7
:10262000FDF77AFD020E090203027808114318181B
:10263000002251413A460023FDF76EFD03210902B5
:10264000411A3A4A4DE0E269824228D1002906D077
:10265000022907D0042907D0082944D108E0FEF751
:10266000B1FE03E0284603E0FEF7C0FE00283ED09E
:10267000616A4900795AFDF739FD616840004A08EE
:102680008018FDF733FD80B202462949103A8A428C
:1026900029D8491C01400007400F084325E00029C4
:1026A00006D0022907D0042907D008291BD108E049
:1026B000FEF788FE03E0284603E0FEF797FE0028B9
:1026C00015D0616A4900795AFDF710FD61684A0822
:1026D0008018FDF70BFD80B2014600E003E0144ACC
:1026E0001039914201D9012601E02168C8602046D5
:1026F0000121403041850185002020676067304618
:10270000F8BD000000800040F369FFCFFFF4FF1127
:1027100000380140401002400044004000480040A2
:10272000004C00400024F400183D0008FFFC0F009E
:10273000EFFF0000FFB581B005460F460446803527
:102740000A9E38E0701C36D0FEF726FA0499401A2B
:10275000B04221D8002E1FD02068016849072AD531
:10276000C069C043000526D401202168C002086268
:1027700020680168FF22A1329143016020688168CE
:1027800049084900816020206860A860E860002056
:102790002870032005B0F0BD20680168FF22A13237
:1027A00091430160206881684908490081602020C8
:1027B0006860A860EBE72068C1693846884305D0A7
:1027C000002103988142BDD00020E3E70121F8E712
:1027D0000FB410B503A9044B044A029800F0A8F9FD
:1027E00010BC08BC04B01847693200081000002073
:1027F0002021020C01D010211046020A01D01046FF
:102800000839020901D01046091F820801D010467C
:10281000891E420801D0881E7047081A70470000C0
:102820004900CA020243100000D004204A0D01D022
:1028300001221043044A490D914201D1022108436B
:10284000012800D105207047FF0700008307FF2201
:10285000DB0E9A408907090E9940002808DB83089F
:1028600009489B001B18186890430843186070477C
:102870000007000F0838830804489B001B18D8691C
:1028800090430843D861704700E400E000ED00E0A9
:10289000F8B504464F1EC8000838211815461E46D4
:1028A000086849683A4606239A4310D02A463346B8
:1028B000FDF738FD3A46D200083AA3181A687F1E81
:1028C0005B68FDF77DFC06223B469343EED1022F69
:1028D00023D0042F11D0062F2FD12A463346FDF7DF
:1028E00021FDE36AA26AFDF76BFC2A463346FDF739
:1028F00019FD636A226AFDF763FC2A463346FDF739
:1029000011FDE369A269FDF75BFC2A463346FDF73A
:1029100009FD63692269FDF753FC2A463346FDF73A
:1029200001FDE368A268FDF74BFC2A463346FDF73C
:10293000F9FC63682268FDF743FCF8BD002210B57E
:10294000134610460149FDF791FE10BD0000F03F0F
:1029500010B5FDF735FC10BD002210B5134610462A
:102960001146FDF783FE10BD10B50721024A002075
:102970000907FDF7F3FE10BD01030000034A10B57F
:1029800000201107FDF7EAFE10BD000001FDFFFF6A
:1029900002E008C8121F08C1002AFAD17047704728
:1029A000002001E001C1121F002AFBD17047000086
:1029B000014908607047000014000020F0B51FB402
:1029C00086B00998089A030D0021024314D051489B
:1029D000514A1818504305141198012810981AD01C
:1029E000281A401C00264D4F4D4900960191049035
:1029F000002812DA444211E01198012449A3012869
:102A000001D11098C1430698119A84600360C26096
:102A100041600BB0F0BD4042E4E7044621050020D0
:102A20003F4A001C51410391029012E0E00707D099
:102A300032463B4601990098FDF774FC01910090E5
:102A400032463B4610461946FDF76CFC06460F46DB
:102A50006410002CEAD10498039B0028029A09997B
:102A6000089806DAFDF75EFC019B009AFDF75AFC18
:102A700005E0FDF7FBFD019B009AFDF7F7FD04461D
:102A80000E460022284BFDF79FFE03D80020C043CE
:102A9000014607E00022254B20463146FDF790FB1A
:102AA000FDF772FE102409E0002C0ADB0A22002345
:102AB000FDF732FB079B30321A55641E02460A436B
:102AC000F2D11122641C079B121B1C19119B012BB4
:102AD00003D0012308430ED10AE0084304D011209B
:102AE00010900020119077E71098151A6D1E0BE0DA
:102AF0001098824202DD00236D1C03E0824201DA5D
:102B000000236D1E002BEED0069811998260C160E3
:102B100030C07EE701FCFFFF104D000000001440B4
:102B20000000F03F300000000000F0430000E03FF4
:102B3000FFB597B00646002518E2252877D1002476
:102B40002746FD49049400E00443761C32780120B6
:102B5000203A90400842F7D130782A280ED002223D
:102B6000307801463039092916D804990A23594387
:102B7000303940181443761C0490F1E7189802C8C5
:102B800004911890002904DA0120400304434842CC
:102B9000049002200443761C30782E2814D104209F
:102BA00004437078761C2A2809D11898761C80C8AE
:102BB000189009E00A214F43303FC719761C30783E
:102BC000014630390929F5D930786C2810D006DC57
:102BD0004C281AD068280ED06A2817D104E074282F
:102BE00013D07A2812D110E00120400504430CE0F4
:102BF0000121090501E0032109050C437178814297
:102C000003D1012000052418761C761C3078119021
:102C100066280BD013DC58287DD009DC00287BD037
:102C20004528F6D04628F4D047281AD1A5E118E067
:102C3000632835D0642870D0652812D19DE17028B2
:102C40006CD008DC6728F1D069287BD06E280DD0C5
:102C50006F2806D1BAE073282ED0752871D0782855
:102C600059D01A9A199990476D1C7EE16002400F65
:102C7000022809D003280DD00428189801680DD027
:102C80000D60001D189070E11898EA1701680D603A
:102C90004A60F6E7189801680D80F2E70D70F0E7DA
:102CA00018986A4601781172001D18900020507221
:102CB00002A80090012005E0189802C81890002092
:102CC0000091C04361070DD5002101E00199491C25
:102CD0000191B94212DA8142F8DB009A515C002975
:102CE000F4D10BE0002101E00199491C01918142DE
:102CF000FADB019A0099895C0029F5D101990498C1
:102D00001A9B471A21463846199A00F097FA0199FA
:102D1000401945180BE04FE02CE113E04EE000981D
:102D200000990078491C00911A9A199990470198C6
:102D3000401E0190401CF2D1214638461A9B199A38
:102D400010E137E00A200021009001916002410F5C
:102D5000022907D0189A01CA1892C217944603296B
:102D600008D00AE01898C01DC108C90005C918910B
:102D7000944607E000B2C2179446042902D140B23B
:102D8000C1178C4600226146944506DA0A460021A6
:102D9000404291418C462D2102E0210504D52B2192
:102DA0006A461173012103E0E10701D02021F7E712
:102DB000029155E00A200AE0102008E0102000905F
:102DC0000021042004430191082703E0082000218A
:102DD000019100906002410F022907D0189A01CAA0
:102DE000189200229446032908D008E01898C01DC4
:102DF000C108C90005C91891944603E080B20429AE
:102E000000D1C0B200210291210729D51199702962
:102E100006D0009A1021019B4A401A4305D00EE0CB
:102E200040216A461173012108E06146014306D042
:102E300030216A4611731199517302210291009A4F
:102E40000821019B4A401A430AD16146014301D13E
:102E5000610705D530216A46117301217F1E029159
:102E60001199582904D035A10E910DA90D910DE0AD
:102E700037A1F9E76146019B009AFDF74DF90E9BDA
:102E80008C469B5C0D9A521E0D9213706146014355
:102E9000F0D10D9805A9081A20300190600703D5DC
:102EA00001200004844300E001270198874201DDEE
:102EB000381A00E000200199009041180298091882
:102EC0000498401A0490E00306D421461A9B199AEC
:102ED000049800F0B3F94519002706E003A81A9AF0
:102EE000C05D199990476D1C7F1C02988742F5DBE5
:102EF000E0030CD521461A9B199A049800F09EF91C
:102F0000451904E01A9A3020199990476D1C0099D0
:102F1000481E00900029F5DC08E00D980D99007816
:102F2000491C0D911A9A199990476D1C0199481ED8
:102F300001900029F1DC63E10928010030313233CE
:102F400034353637383961626364656600000000E5
:102F500030313233343536373839414243444546CF
:102F60000000000000F05AF94519761C307800285E
:102F700000D0E2E528461BB0F0BD600700D406276C
:102F80001898C01DC108C90048680A680831C30FF5
:102F9000DB071891190001D09CA108E0210501D59B
:102FA0009BA104E0E10701D09AA100E09AA14300AF
:102FB00011985B08109165280CD006DC452809D0D3
:102FC00046281DD0472841D141E0662818D06728FF
:102FD0003CD13CE00021112F01DB112000E0781CE6
:102FE0000191009008A911A8FFF7E8FC1399059139
:102FF0000021119A15927F1C12980197009150E0C0
:103000000120C00703900120019008A9009711A892
:10301000FFF7D4FC139A149905920022119B009299
:1030200012981593059A0192002901D0104602E0EA
:10303000791C40180190381A01D5019804E04042EB
:10304000401E0090781C0190C01B029043E0012FAD
:1030500000DA01270021112F01DD112000E03846A0
:103060000191009008A911A8FFF7A8FC13990591F8
:10307000119A0021129815920091019721070CD402
:103080000599B94201DB019900E00191012904DDB4
:10309000159A491E515C302906D0B84201DA011D4B
:1030A00005DA0121029115E00199491EEDE700289A
:1030B00005DC0099411800910199091A03E0019A71
:1030C000411C914200DD01910099401A401C029080
:1030D0000120C0070390200706D40299019881427D
:1030E00002DB0020C043029000206946C87707AF8A
:1030F000012103980337C907884224D00220119088
:103100002B201290039800280CDA404203902D20C7
:10311000129007E00A210398FCF7E8FF30317F1E88
:10312000039039701199481E11900029F2DC039820
:103130000028EFD1791E12980870307820210840BD
:103140004530BF1E387006A8C01BC01D03901098E4
:103150000078002800D00120019941180298C0177A
:103160000918039809180498401A401E0490E003B7
:1031700006D421461A9B199A049800F05FF8451965
:1031800010980078002803D01A9A199990476D1C5E
:10319000E00324D521461A9B199A049800F04EF8B2
:1031A00045191CE00098002807DB00990598884223
:1031B00003DD1598405C199901E0199930201A9A9D
:1031C000904700986D1C401C00900298401E029091
:1031D000002804D11A9A2E20199990476D1C019944
:1031E000481E01900029DDDC05E038781A9A7F1C22
:1031F000199990476D1C0399481E03900029F4DC2F
:1032000021461A9B199A0498ACE600002D00000094
:103210002B0000002000000000000000F8B504466C
:1032200000251E461746880404D405E039462020B0
:10323000B0476D1C641EF9D52846F8BDFFB504469D
:10324000002581B01E46C80301D5302700E02027A5
:10325000880404D505E038460399B0476D1C641E08
:10326000F9D5284605B0F0BD13B57D23DB0001225A
:1032700069460248FEF7E6FB00981CBDFC000020F2
:1032800008B5FDF77BFEFFF721F8FEF75BFDFEF7C3
:1032900095FDFEF7BFFDFEF753FE0020084C0090A1
:1032A00069460848FEF7D2FE0098FDF7DBF80246B3
:1032B0000B4605A0FFF78CFA2046FDF78FFBEFE7E2
:1032C0005203000018000020C1C1B6C8A3BA256689
:1032D0000A000000F0B51FB496B084460C460246C2
:1032E000199D189803904900680063004908400838
:1032F0000193002A01D0012600E000269E19FE4B12
:10330000F6185B109E422BD36E00039F0296002F8F
:1033100000D00127F719F84EF84BBE199E421FD373
:10332000039E0346F64F334309D03B469C4201D1EE
:10333000002A04D0019B002A05D0012604E00020C9
:1033400039461BB0F0BD00269E19EE4B9E4207D8B1
:10335000039F029E002F00D00127F6199E4207D935
:103360002B4660462146189AFFF7F2FA1BB0F0BDD3
:103370000023002C29DAE44EB04226DAE34EB042B4
:1033800001DB022321E0DE4EB0421EDBE04E070DE2
:10339000BE19142E09DD3427BF1B039EFE40019683
:1033A000BE40039FBE420BD00FE0039F002F0CD105
:1033B0001427BF1B0646FE400196BE40864204D13C
:1033C000019BDE07F60F02239B1B0E46164318D106
:1033D000002D16DA002C03D0022B01D0012B06D0D1
:1033E0000220FFF7E5FAFFF7A9FA1BB0F0BD0220B3
:1033F000FFF7DEFAFFF7A2FA0122D20751401BB015
:10340000F0BD039E002E61D1BF4EB04220D1C14815
:10341000844201D1002A08D0B948814209DB002D3D
:1034200010DB189829461BB0F0BD0020B4491BB032
:10343000F0BD002D06DA01222946D2071898514026
:103440001BB0F0BDB4497944086849681BB0F0BDB1
:10345000AB4FB84225D1002D1FDA002904D0B1426C
:1034600012D1002A09D018E0002A72D1A649E20F31
:103470000020D20711431BB0F0BD0020E20F01462F
:10348000D20711431BB0F0BDB14206DA234600203B
:103490003946FDF7EBF81BB0F0BD104621461BB0D6
:1034A000F0BDB14212DA0126B607B54203D1234678
:1034B00010461946FEE3994EB54207D1261E05DB9C
:1034C0001046314600F004FC1BB0F0BD67007F08D9
:1034D0001646002A40D100290AD08B4A914229D1B0
:1034E000002C0EDD002D1CDB002011461BB0F0BDB2
:1034F000022B16D0002C14D0012B12D1002C14DB7F
:103500000FE0002C28DA002D09DB012B03D000206E
:103510007D491BB0F0BD002081491BB0F0BD012BDF
:1035200003D0002001461BB0F0BD00200121C907D7
:103530001BB0F0BD724A91420ED1002C01DA002B73
:1035400017D0022B06D00020C043FCF753FF1BB05E
:10355000F0BD90E20120F8E7E217521C94461A43AE
:1035600007D000220892664C62465B1E1A4307D0C1
:1035700009E00120FFF71CFAFFF7EEF91BB0F0BDE0
:103580000022644C0892674A90427DDD664B674A90
:1035900098421FDD914202DC002D05DB4DE05848CA
:1035A000814217DB002D48DD0220FFF701FAFFF70B
:1035B000DBF905460E460022534B21460898FCF7DE
:1035C000B1FE084671004908C00FC00701432846F4
:1035D0001BB0F0BD914215DA002D2EDA0220FFF764
:1035E000E7F9FFF7C1F905460E460022464B214692
:1035F0000898FCF797FE72005208C80FC0070243F4
:10360000114617E03E4B994223DD002D15DD0220C7
:10361000FFF7CEF9FFF7A8F905460E4600223A4B10
:1036200021460898FCF77EFE084671004908C00F45
:10363000C007014328461BB0F0BD0220FFF7B8F9D0
:10364000FFF79CF949004908E20FD20711431BB06C
:10365000F0BD002230463946FCF756FE01220546F1
:103660000E46D243FDF77AF8314A324BFCF752FE50
:103670002A463346FCF756FE0022284BFCF74AFE4A
:1036800007462A46334600E064E003911046194697
:10369000FCF748FE3A46039BFCF744FE074603222C
:1036A00009915207244B28463146FCF73BFE07910F
:1036B0000C90224A204B38460999FCF733FE074606
:1036C00001911F4A1F4B28463146FCF72BFE3A4614
:1036D000019BFCF719FE07460B4602460991079924
:1036E0000C98FCF76DFD00250E462846079B0C9AAA
:1036F000FCF70AFE3A4627E0FFFF1F00FFFF0F001E
:103700000000F03F0000E0FF0000F07F00004043B9
:1037100001FCFFFF0000F0BFCE0900000000E03F09
:103720000000F0FF0000E0410000F043FFFFEF3F2A
:10373000555555555555D53F4715F73FFE822B65D5
:1037400044DF5DF80BAE543E099BFCF7E3FD0246F7
:103750000B4652E1012500202D05A94207DA35224A
:1037600030463946FCF7FAFF06463420C0430A15B6
:103770001218FE48101803900803FD49000B01437E
:103780000F46FC49884201DC002003E0FA498842E8
:1037900002DA0120119005E0002011900398401CEE
:1037A0007F1B039011980597C200F4480F9278444C
:1037B000801843680268394630460D930292FCF740
:1037C000A3FD07910C9030460D9B029A0599FCF7DA
:1037D000F7FC02460B460020E549FCF747FF09913C
:1037E0000490079B0C9AFCF79DFD1290002010900E
:1037F000E3480D46784400680E900121781049078F
:10380000084311990D9B890440180121C9044718E8
:103810003946029A0E98FCF777FD3246059BFCF775
:1038200079FD02460B4629461098FCF77BFD0646BB
:1038300002913B4629460E9A1098FCF773FD079BB0
:103840000C9AFCF767FD3246029BFCF75DFD099B75
:10385000049AFCF767FD0591129A0A902B461046D0
:103860001946FCF75FFD06460246C6480F460B4662
:1038700006217844FFF70CF832463B46009104904D
:1038800010461946FCF74EFD009B049AFCF74AFDD2
:1038900006460F462B461946129A1098FCF790FCE4
:1038A000059B0A9AFCF73EFD32463B46FCF788FC36
:1038B000109A079104902B4610461946FCF732FDEA
:1038C000B14E0022334609910290FCF779FC079B28
:1038D000049AFCF775FC0020074602463346009127
:1038E000FCF712FD099B029AFCF70EFD079B049A58
:1038F000FCF710FD06460D913A462946009B1098AC
:10390000FCF710FD07910C902B463046129A0D994A
:10391000FCF708FD05460E463A46009B05990A98B5
:10392000FCF700FD33462A46FCF74AFC02460B46EC
:103930000746099107990C98FCF742FC00250E46B2
:103940002846079B0C9AFCF7DFFC3A46099BFCF7DC
:10395000E1FC07460722099152078C4B3146284665
:10396000FCF7E0FC07910090894A884B384609999A
:10397000FCF7D8FC07460191864A874B314628461A
:10398000FCF7D0FC3A46019BFCF71AFC834B7B44C6
:103990000F9A9B181A685B68FCF712FC0290099159
:1039A0000398FCF727FD05910490099B029A07995B
:1039B0000098FCF705FC7A4B7B440F9A9B181A6819
:1039C0005B6817460393FCF7FBFB059B049AFCF727
:1039D000F7FB0E462846059B049AFCF795FC3A46F1
:1039E000039BFCF791FC079B009AFCF78DFC099B5D
:1039F000029AFCF78FFC02460B46199900200C90A6
:103A00000F461898FCF78EFC029104903B460C9AE6
:103A100019991898FCF778FC2A463346FCF782FC83
:103A2000029B049AFCF7CCFB09910E902A46334680
:103A300039460C98FCF776FC06460F46099B0E9A11
:103A4000FCF7BEFB574A0D46914220DB5242AA18B2
:103A5000024310D132463B46FCF756FC04900391DA
:103A6000514A524B09990E98FCF7AAFB039B049A02
:103A7000FCF7AAFE1ED20220FEF79AFFFEF774FFA3
:103A800049004908E20FD20711431BB0F0BD6A009C
:103A9000474B52089A420DD3464AAA18024300D017
:103AA000CBE532463B46FCF72FFC099B0E9AFCF710
:103AB0008BFEF5D96800002340082C490393020DC2
:103AC0003D4B5218984223DD01200005521CD04086
:103AD00042195000400D401838497944096813468E
:103AE0008C463749C1408B4312030121120B090553
:103AF00051181422101AC1400391002D01DA4842D6
:103B00000390624630463946FCF7FEFB06460F46F8
:103B100032463B4609990E98FCF752FB00252A468F
:103B2000284B28460591FCF7FDFB07910C90264A8F
:103B3000264B28460599FCF7F5FB0091029032468A
:103B40003B4628460599FCF7DFFB099B0E9AFCF7DC
:103B5000E1FB1F4A1F4BFCF7E5FB009B029AFCF7B9
:103B60002FFB07460B460246099135E001FCFFFF9B
:103B70000000F03F8E9803007AB60B00DE050000CF
:103B8000200600004A0500000000084009C7EE3F7B
:103B9000FD033ADCF5015B14E02F3EBE1E0400007D
:103BA000E403000000009040FE822B654715973C1F
:103BB00000CC904000346F3F0000E03F3A0300002B
:103BC000FFFF0F00432EE63F396CA80C615C20BE5E
:103BD000EF39FAFE422EE63F07990C98FCF7F0FA0F
:103BE00005460E46079B0C9AFCF78EFB3A46099B4E
:103BF000FCF790FB09912A4633460E901046194671
:103C0000FCF790FB074602462F480B46059105211D
:103C10007844FEF73DFE3A46059BFCF783FB2A46B7
:103C20003346FCF777FB0746019128463146099B4E
:103C30000E9AFCF777FB099B0E9AFCF7C1FA012359
:103C400004910C9000229B0738460199FCF75CFB1D
:103C500005910E903A4628463146019BFCF762FBDF
:103C6000059B0E9AFCF702FD049B0C9AFCF74CFB9B
:103C70002A463346FCF748FB0022144BFCF74AFB6C
:103C8000064603980D46000541190915002912DC66
:103C900030462946039AFCF761FDFEF7C1FD042872
:103CA00001D1FEF76BFE30462946039AFCF756FD1C
:103CB000064601E004E029180B46324621460898E2
:103CC000FCF730FB1BB0F0BDDC0100000000F03F52
:103CD000F8B506460C46FCF79DFD051E0F4600D0C4
:103CE0000120014349000B484908411AC90F0DD072
:103CF000002E01D0012100E000210C4361004908A1
:103D0000401AC00F02D10120FEF752FE2846394664
:103D1000F8BD00000000F07F010002000400060072
:103D200008000A000C001000200040008000000184
:103D30000000000000000000000000000000000083
:103D40000000000000000000000000000000000073
:103D50000100000002000000030000000400000059
:103D60000600000007000000080000000900000035
:103D70000000000000000000000000000000000043
:103D80000100000002000000030000000400000029
:103D9000000000000000F03F000000000000F83FBD
:103DA00000000000000000000000004003B8E23FF7
:103DB000000000000000000006D0CF43EBFD4C3EA9
:103DC000033333333333E33FFFAB6FDBB66DDB3F9E
:103DD0004D268F515555D53F01411DA96074D13FE6
:103DE00065DBC9934A86CD3FEF4E454A287ECA3FE0
:103DF0003E5555555555C53F93BDBE166CC166BF62
:103E00002CDE25AF6A56113FF16BD2C541BDBBBE5A
:103E1000D0A4BE726937663E0000000000000000BA
:103E2000403E000800000020180000009029000813
:103E3000583E00081800002078050000A02900085E
:103E40000100000004000000000000000024F40055
:083E500000000000000000006A
:04000005080000BD32
:00000001FF
